{"contracts/P256Signer.sol":{"P256Signer":{"abi":[{"inputs":[],"name":"InvalidHash","type":"error"},{"inputs":[],"name":"InvalidSignature","type":"error"},{"inputs":[{"internalType":"bytes32","name":"_hash","type":"bytes32"},{"internalType":"bytes","name":"_signature","type":"bytes"}],"name":"isValidSignature","outputs":[{"internalType":"bytes4","name":"","type":"bytes4"}],"stateMutability":"view","type":"function"},{"inputs":[{"internalType":"bytes","name":"_hash","type":"bytes"},{"internalType":"bytes","name":"_signature","type":"bytes"}],"name":"isValidSignature","outputs":[{"internalType":"bytes4","name":"","type":"bytes4"}],"stateMutability":"view","type":"function"},{"inputs":[],"name":"x","outputs":[{"internalType":"uint256","name":"","type":"uint256"}],"stateMutability":"pure","type":"function"},{"inputs":[],"name":"y","outputs":[{"internalType":"uint256","name":"","type":"uint256"}],"stateMutability":"pure","type":"function"}],"devdoc":{"details":"This contract is the implementation. It is meant to be used through      proxy clone.","kind":"dev","methods":{"x()":{"details":"It uses the Clone helper library to get the x coordinate      from calldata"},"y()":{"details":"It uses the Clone helper library to get the y coordinate      from calldata"}},"title":"P256Signer","version":1},"evm":{"bytecode":{"linkReferences":{"contracts/Webauthn.sol":{"Webauthn":[{"length":20,"start":501}]}},"object":"608060405234801561001057600080fd5b5061077b806100206000396000f3fe608060405234801561001057600080fd5b506004361061004c5760003560e01c80630c55699c146100515780631626ba7e1461009057806320c13b0b146100d4578063a56dfe4a146100e7575b600080fd5b367ffffffffffffffffffffffffffffffffffffffffffffffffffffffffffffffffe81013560f01c9003355b6040519081526020015b60405180910390f35b6100a361009e366004610451565b61011a565b6040517fffffffff000000000000000000000000000000000000000000000000000000009091168152602001610087565b6100a36100e2366004610498565b61016f565b367ffffffffffffffffffffffffffffffffffffffffffffffffffffffffffffffffe81013560f01c90036020013561007d565b60006101478360405160200161013291815260200190565b604051602081830303815290604052836101a3565b507f1626ba7e0000000000000000000000000000000000000000000000000000000092915050565b600061017b83836101a3565b507f20c13b0b0000000000000000000000000000000000000000000000000000000092915050565b600082805190602001209050600080600080858060200190518101906101c99190610563565b9350935093509350600073__$84047ae21dcd4eb7d6018436351b69d321$__630d5efec9866001878a888860405180604001604052806102317ffffffffffffffffffffffffffffffffffffffffffffffffffffffffffffffffe369081013560f01c90033590565b8152602090810190367ffffffffffffffffffffffffffffffffffffffffffffffffffffffffffffffffe81013560f01c900301358152506040518863ffffffff1660e01b815260040161028a9796959493929190610694565b602060405180830381865af41580156102a7573d6000803e3d6000fd5b505050506040513d601f19601f820116820180604052508101906102cb919061071c565b905080610304576040517f8baa579f00000000000000000000000000000000000000000000000000000000815260040160405180910390fd5b5050505050505050565b7f4e487b7100000000000000000000000000000000000000000000000000000000600052604160045260246000fd5b6040805190810167ffffffffffffffff811182821017156103605761036061030e565b60405290565b604051601f82017fffffffffffffffffffffffffffffffffffffffffffffffffffffffffffffffe016810167ffffffffffffffff811182821017156103ad576103ad61030e565b604052919050565b600067ffffffffffffffff8211156103cf576103cf61030e565b50601f017fffffffffffffffffffffffffffffffffffffffffffffffffffffffffffffffe01660200190565b600082601f83011261040c57600080fd5b813561041f61041a826103b5565b610366565b81815284602083860101111561043457600080fd5b816020850160208301376000918101602001919091529392505050565b6000806040838503121561046457600080fd5b82359150602083013567ffffffffffffffff81111561048257600080fd5b61048e858286016103fb565b9150509250929050565b600080604083850312156104ab57600080fd5b823567ffffffffffffffff808211156104c357600080fd5b6104cf868387016103fb565b935060208501359150808211156104e557600080fd5b5061048e858286016103fb565b60005b8381101561050d5781810151838201526020016104f5565b50506000910152565b600082601f83011261052757600080fd5b815161053561041a826103b5565b81815284602083860101111561054a57600080fd5b61055b8260208301602087016104f2565b949350505050565b60008060008060a0858703121561057957600080fd5b845167ffffffffffffffff8082111561059157600080fd5b61059d88838901610516565b95506020915081870151818111156105b457600080fd5b6105c089828a01610516565b955050506040860151925086607f8701126105da57600080fd5b6105e261033d565b8060a08801898111156105f457600080fd5b606089015b8181101561061057805184529284019284016105f9565b505080935050505092959194509250565b600081518084526106398160208601602086016104f2565b601f017fffffffffffffffffffffffffffffffffffffffffffffffffffffffffffffffe0169290920160200192915050565b8060005b600281101561068e57815184526020938401939091019060010161066f565b50505050565b60006101208083526106a88184018b610621565b90507fff000000000000000000000000000000000000000000000000000000000000008960f81b16602084015282810360408401526106e78189610621565b91505085606083015284608083015261070360a083018561066b565b61071060e083018461066b565b98975050505050505050565b60006020828403121561072e57600080fd5b8151801515811461073e57600080fd5b939250505056fea2646970667358221220c4808f2311cacb856a2867de252ad56bcb964869fa80741b0401f140ac4da63164736f6c63430008110033","opcodes":"PUSH1 0x80 PUSH1 0x40 MSTORE CALLVALUE DUP1 ISZERO PUSH2 0x10 JUMPI PUSH1 0x0 DUP1 REVERT JUMPDEST POP PUSH2 0x77B DUP1 PUSH2 0x20 PUSH1 0x0 CODECOPY PUSH1 0x0 RETURN INVALID PUSH1 0x80 PUSH1 0x40 MSTORE CALLVALUE DUP1 ISZERO PUSH2 0x10 JUMPI PUSH1 0x0 DUP1 REVERT JUMPDEST POP PUSH1 0x4 CALLDATASIZE LT PUSH2 0x4C JUMPI PUSH1 0x0 CALLDATALOAD PUSH1 0xE0 SHR DUP1 PUSH4 0xC55699C EQ PUSH2 0x51 JUMPI DUP1 PUSH4 0x1626BA7E EQ PUSH2 0x90 JUMPI DUP1 PUSH4 0x20C13B0B EQ PUSH2 0xD4 JUMPI DUP1 PUSH4 0xA56DFE4A EQ PUSH2 0xE7 JUMPI JUMPDEST PUSH1 0x0 DUP1 REVERT JUMPDEST CALLDATASIZE PUSH32 0xFFFFFFFFFFFFFFFFFFFFFFFFFFFFFFFFFFFFFFFFFFFFFFFFFFFFFFFFFFFFFFFE DUP2 ADD CALLDATALOAD PUSH1 0xF0 SHR SWAP1 SUB CALLDATALOAD JUMPDEST PUSH1 0x40 MLOAD SWAP1 DUP2 MSTORE PUSH1 0x20 ADD JUMPDEST PUSH1 0x40 MLOAD DUP1 SWAP2 SUB SWAP1 RETURN JUMPDEST PUSH2 0xA3 PUSH2 0x9E CALLDATASIZE PUSH1 0x4 PUSH2 0x451 JUMP JUMPDEST PUSH2 0x11A JUMP JUMPDEST PUSH1 0x40 MLOAD PUSH32 0xFFFFFFFF00000000000000000000000000000000000000000000000000000000 SWAP1 SWAP2 AND DUP2 MSTORE PUSH1 0x20 ADD PUSH2 0x87 JUMP JUMPDEST PUSH2 0xA3 PUSH2 0xE2 CALLDATASIZE PUSH1 0x4 PUSH2 0x498 JUMP JUMPDEST PUSH2 0x16F JUMP JUMPDEST CALLDATASIZE PUSH32 0xFFFFFFFFFFFFFFFFFFFFFFFFFFFFFFFFFFFFFFFFFFFFFFFFFFFFFFFFFFFFFFFE DUP2 ADD CALLDATALOAD PUSH1 0xF0 SHR SWAP1 SUB PUSH1 0x20 ADD CALLDATALOAD PUSH2 0x7D JUMP JUMPDEST PUSH1 0x0 PUSH2 0x147 DUP4 PUSH1 0x40 MLOAD PUSH1 0x20 ADD PUSH2 0x132 SWAP2 DUP2 MSTORE PUSH1 0x20 ADD SWAP1 JUMP JUMPDEST PUSH1 0x40 MLOAD PUSH1 0x20 DUP2 DUP4 SUB SUB DUP2 MSTORE SWAP1 PUSH1 0x40 MSTORE DUP4 PUSH2 0x1A3 JUMP JUMPDEST POP PUSH32 0x1626BA7E00000000000000000000000000000000000000000000000000000000 SWAP3 SWAP2 POP POP JUMP JUMPDEST PUSH1 0x0 PUSH2 0x17B DUP4 DUP4 PUSH2 0x1A3 JUMP JUMPDEST POP PUSH32 0x20C13B0B00000000000000000000000000000000000000000000000000000000 SWAP3 SWAP2 POP POP JUMP JUMPDEST PUSH1 0x0 DUP3 DUP1 MLOAD SWAP1 PUSH1 0x20 ADD KECCAK256 SWAP1 POP PUSH1 0x0 DUP1 PUSH1 0x0 DUP1 DUP6 DUP1 PUSH1 0x20 ADD SWAP1 MLOAD DUP2 ADD SWAP1 PUSH2 0x1C9 SWAP2 SWAP1 PUSH2 0x563 JUMP JUMPDEST SWAP4 POP SWAP4 POP SWAP4 POP SWAP4 POP PUSH1 0x0 PUSH20 0x0 PUSH4 0xD5EFEC9 DUP7 PUSH1 0x1 DUP8 DUP11 DUP9 DUP9 PUSH1 0x40 MLOAD DUP1 PUSH1 0x40 ADD PUSH1 0x40 MSTORE DUP1 PUSH2 0x231 PUSH32 0xFFFFFFFFFFFFFFFFFFFFFFFFFFFFFFFFFFFFFFFFFFFFFFFFFFFFFFFFFFFFFFFE CALLDATASIZE SWAP1 DUP2 ADD CALLDATALOAD PUSH1 0xF0 SHR SWAP1 SUB CALLDATALOAD SWAP1 JUMP JUMPDEST DUP2 MSTORE PUSH1 0x20 SWAP1 DUP2 ADD SWAP1 CALLDATASIZE PUSH32 0xFFFFFFFFFFFFFFFFFFFFFFFFFFFFFFFFFFFFFFFFFFFFFFFFFFFFFFFFFFFFFFFE DUP2 ADD CALLDATALOAD PUSH1 0xF0 SHR SWAP1 SUB ADD CALLDATALOAD DUP2 MSTORE POP PUSH1 0x40 MLOAD DUP9 PUSH4 0xFFFFFFFF AND PUSH1 0xE0 SHL DUP2 MSTORE PUSH1 0x4 ADD PUSH2 0x28A SWAP8 SWAP7 SWAP6 SWAP5 SWAP4 SWAP3 SWAP2 SWAP1 PUSH2 0x694 JUMP JUMPDEST PUSH1 0x20 PUSH1 0x40 MLOAD DUP1 DUP4 SUB DUP2 DUP7 GAS DELEGATECALL ISZERO DUP1 ISZERO PUSH2 0x2A7 JUMPI RETURNDATASIZE PUSH1 0x0 DUP1 RETURNDATACOPY RETURNDATASIZE PUSH1 0x0 REVERT JUMPDEST POP POP POP POP PUSH1 0x40 MLOAD RETURNDATASIZE PUSH1 0x1F NOT PUSH1 0x1F DUP3 ADD AND DUP3 ADD DUP1 PUSH1 0x40 MSTORE POP DUP2 ADD SWAP1 PUSH2 0x2CB SWAP2 SWAP1 PUSH2 0x71C JUMP JUMPDEST SWAP1 POP DUP1 PUSH2 0x304 JUMPI PUSH1 0x40 MLOAD PUSH32 0x8BAA579F00000000000000000000000000000000000000000000000000000000 DUP2 MSTORE PUSH1 0x4 ADD PUSH1 0x40 MLOAD DUP1 SWAP2 SUB SWAP1 REVERT JUMPDEST POP POP POP POP POP POP POP POP JUMP JUMPDEST PUSH32 0x4E487B7100000000000000000000000000000000000000000000000000000000 PUSH1 0x0 MSTORE PUSH1 0x41 PUSH1 0x4 MSTORE PUSH1 0x24 PUSH1 0x0 REVERT JUMPDEST PUSH1 0x40 DUP1 MLOAD SWAP1 DUP2 ADD PUSH8 0xFFFFFFFFFFFFFFFF DUP2 GT DUP3 DUP3 LT OR ISZERO PUSH2 0x360 JUMPI PUSH2 0x360 PUSH2 0x30E JUMP JUMPDEST PUSH1 0x40 MSTORE SWAP1 JUMP JUMPDEST PUSH1 0x40 MLOAD PUSH1 0x1F DUP3 ADD PUSH32 0xFFFFFFFFFFFFFFFFFFFFFFFFFFFFFFFFFFFFFFFFFFFFFFFFFFFFFFFFFFFFFFE0 AND DUP2 ADD PUSH8 0xFFFFFFFFFFFFFFFF DUP2 GT DUP3 DUP3 LT OR ISZERO PUSH2 0x3AD JUMPI PUSH2 0x3AD PUSH2 0x30E JUMP JUMPDEST PUSH1 0x40 MSTORE SWAP2 SWAP1 POP JUMP JUMPDEST PUSH1 0x0 PUSH8 0xFFFFFFFFFFFFFFFF DUP3 GT ISZERO PUSH2 0x3CF JUMPI PUSH2 0x3CF PUSH2 0x30E JUMP JUMPDEST POP PUSH1 0x1F ADD PUSH32 0xFFFFFFFFFFFFFFFFFFFFFFFFFFFFFFFFFFFFFFFFFFFFFFFFFFFFFFFFFFFFFFE0 AND PUSH1 0x20 ADD SWAP1 JUMP JUMPDEST PUSH1 0x0 DUP3 PUSH1 0x1F DUP4 ADD SLT PUSH2 0x40C JUMPI PUSH1 0x0 DUP1 REVERT JUMPDEST DUP2 CALLDATALOAD PUSH2 0x41F PUSH2 0x41A DUP3 PUSH2 0x3B5 JUMP JUMPDEST PUSH2 0x366 JUMP JUMPDEST DUP2 DUP2 MSTORE DUP5 PUSH1 0x20 DUP4 DUP7 ADD ADD GT ISZERO PUSH2 0x434 JUMPI PUSH1 0x0 DUP1 REVERT JUMPDEST DUP2 PUSH1 0x20 DUP6 ADD PUSH1 0x20 DUP4 ADD CALLDATACOPY PUSH1 0x0 SWAP2 DUP2 ADD PUSH1 0x20 ADD SWAP2 SWAP1 SWAP2 MSTORE SWAP4 SWAP3 POP POP POP JUMP JUMPDEST PUSH1 0x0 DUP1 PUSH1 0x40 DUP4 DUP6 SUB SLT ISZERO PUSH2 0x464 JUMPI PUSH1 0x0 DUP1 REVERT JUMPDEST DUP3 CALLDATALOAD SWAP2 POP PUSH1 0x20 DUP4 ADD CALLDATALOAD PUSH8 0xFFFFFFFFFFFFFFFF DUP2 GT ISZERO PUSH2 0x482 JUMPI PUSH1 0x0 DUP1 REVERT JUMPDEST PUSH2 0x48E DUP6 DUP3 DUP7 ADD PUSH2 0x3FB JUMP JUMPDEST SWAP2 POP POP SWAP3 POP SWAP3 SWAP1 POP JUMP JUMPDEST PUSH1 0x0 DUP1 PUSH1 0x40 DUP4 DUP6 SUB SLT ISZERO PUSH2 0x4AB JUMPI PUSH1 0x0 DUP1 REVERT JUMPDEST DUP3 CALLDATALOAD PUSH8 0xFFFFFFFFFFFFFFFF DUP1 DUP3 GT ISZERO PUSH2 0x4C3 JUMPI PUSH1 0x0 DUP1 REVERT JUMPDEST PUSH2 0x4CF DUP7 DUP4 DUP8 ADD PUSH2 0x3FB JUMP JUMPDEST SWAP4 POP PUSH1 0x20 DUP6 ADD CALLDATALOAD SWAP2 POP DUP1 DUP3 GT ISZERO PUSH2 0x4E5 JUMPI PUSH1 0x0 DUP1 REVERT JUMPDEST POP PUSH2 0x48E DUP6 DUP3 DUP7 ADD PUSH2 0x3FB JUMP JUMPDEST PUSH1 0x0 JUMPDEST DUP4 DUP2 LT ISZERO PUSH2 0x50D JUMPI DUP2 DUP2 ADD MLOAD DUP4 DUP3 ADD MSTORE PUSH1 0x20 ADD PUSH2 0x4F5 JUMP JUMPDEST POP POP PUSH1 0x0 SWAP2 ADD MSTORE JUMP JUMPDEST PUSH1 0x0 DUP3 PUSH1 0x1F DUP4 ADD SLT PUSH2 0x527 JUMPI PUSH1 0x0 DUP1 REVERT JUMPDEST DUP2 MLOAD PUSH2 0x535 PUSH2 0x41A DUP3 PUSH2 0x3B5 JUMP JUMPDEST DUP2 DUP2 MSTORE DUP5 PUSH1 0x20 DUP4 DUP7 ADD ADD GT ISZERO PUSH2 0x54A JUMPI PUSH1 0x0 DUP1 REVERT JUMPDEST PUSH2 0x55B DUP3 PUSH1 0x20 DUP4 ADD PUSH1 0x20 DUP8 ADD PUSH2 0x4F2 JUMP JUMPDEST SWAP5 SWAP4 POP POP POP POP JUMP JUMPDEST PUSH1 0x0 DUP1 PUSH1 0x0 DUP1 PUSH1 0xA0 DUP6 DUP8 SUB SLT ISZERO PUSH2 0x579 JUMPI PUSH1 0x0 DUP1 REVERT JUMPDEST DUP5 MLOAD PUSH8 0xFFFFFFFFFFFFFFFF DUP1 DUP3 GT ISZERO PUSH2 0x591 JUMPI PUSH1 0x0 DUP1 REVERT JUMPDEST PUSH2 0x59D DUP9 DUP4 DUP10 ADD PUSH2 0x516 JUMP JUMPDEST SWAP6 POP PUSH1 0x20 SWAP2 POP DUP2 DUP8 ADD MLOAD DUP2 DUP2 GT ISZERO PUSH2 0x5B4 JUMPI PUSH1 0x0 DUP1 REVERT JUMPDEST PUSH2 0x5C0 DUP10 DUP3 DUP11 ADD PUSH2 0x516 JUMP JUMPDEST SWAP6 POP POP POP PUSH1 0x40 DUP7 ADD MLOAD SWAP3 POP DUP7 PUSH1 0x7F DUP8 ADD SLT PUSH2 0x5DA JUMPI PUSH1 0x0 DUP1 REVERT JUMPDEST PUSH2 0x5E2 PUSH2 0x33D JUMP JUMPDEST DUP1 PUSH1 0xA0 DUP9 ADD DUP10 DUP2 GT ISZERO PUSH2 0x5F4 JUMPI PUSH1 0x0 DUP1 REVERT JUMPDEST PUSH1 0x60 DUP10 ADD JUMPDEST DUP2 DUP2 LT ISZERO PUSH2 0x610 JUMPI DUP1 MLOAD DUP5 MSTORE SWAP3 DUP5 ADD SWAP3 DUP5 ADD PUSH2 0x5F9 JUMP JUMPDEST POP POP DUP1 SWAP4 POP POP POP POP SWAP3 SWAP6 SWAP2 SWAP5 POP SWAP3 POP JUMP JUMPDEST PUSH1 0x0 DUP2 MLOAD DUP1 DUP5 MSTORE PUSH2 0x639 DUP2 PUSH1 0x20 DUP7 ADD PUSH1 0x20 DUP7 ADD PUSH2 0x4F2 JUMP JUMPDEST PUSH1 0x1F ADD PUSH32 0xFFFFFFFFFFFFFFFFFFFFFFFFFFFFFFFFFFFFFFFFFFFFFFFFFFFFFFFFFFFFFFE0 AND SWAP3 SWAP1 SWAP3 ADD PUSH1 0x20 ADD SWAP3 SWAP2 POP POP JUMP JUMPDEST DUP1 PUSH1 0x0 JUMPDEST PUSH1 0x2 DUP2 LT ISZERO PUSH2 0x68E JUMPI DUP2 MLOAD DUP5 MSTORE PUSH1 0x20 SWAP4 DUP5 ADD SWAP4 SWAP1 SWAP2 ADD SWAP1 PUSH1 0x1 ADD PUSH2 0x66F JUMP JUMPDEST POP POP POP POP JUMP JUMPDEST PUSH1 0x0 PUSH2 0x120 DUP1 DUP4 MSTORE PUSH2 0x6A8 DUP2 DUP5 ADD DUP12 PUSH2 0x621 JUMP JUMPDEST SWAP1 POP PUSH32 0xFF00000000000000000000000000000000000000000000000000000000000000 DUP10 PUSH1 0xF8 SHL AND PUSH1 0x20 DUP5 ADD MSTORE DUP3 DUP2 SUB PUSH1 0x40 DUP5 ADD MSTORE PUSH2 0x6E7 DUP2 DUP10 PUSH2 0x621 JUMP JUMPDEST SWAP2 POP POP DUP6 PUSH1 0x60 DUP4 ADD MSTORE DUP5 PUSH1 0x80 DUP4 ADD MSTORE PUSH2 0x703 PUSH1 0xA0 DUP4 ADD DUP6 PUSH2 0x66B JUMP JUMPDEST PUSH2 0x710 PUSH1 0xE0 DUP4 ADD DUP5 PUSH2 0x66B JUMP JUMPDEST SWAP9 SWAP8 POP POP POP POP POP POP POP POP JUMP JUMPDEST PUSH1 0x0 PUSH1 0x20 DUP3 DUP5 SUB SLT ISZERO PUSH2 0x72E JUMPI PUSH1 0x0 DUP1 REVERT JUMPDEST DUP2 MLOAD DUP1 ISZERO ISZERO DUP2 EQ PUSH2 0x73E JUMPI PUSH1 0x0 DUP1 REVERT JUMPDEST SWAP4 SWAP3 POP POP POP JUMP INVALID LOG2 PUSH5 0x6970667358 0x22 SLT KECCAK256 0xC4 DUP1 DUP16 0x23 GT 0xCA 0xCB DUP6 PUSH11 0x2867DE252AD56BCB964869 STATICCALL DUP1 PUSH21 0x1B0401F140AC4DA63164736F6C6343000811003300 "},"gasEstimates":{"creation":{"codeDepositCost":"383000","executionCost":"418","totalCost":"383418"},"external":{"isValidSignature(bytes,bytes)":"infinite","isValidSignature(bytes32,bytes)":"infinite","x()":"174","y()":"257"},"internal":{"_validate(bytes memory,bytes memory)":"infinite"}},"methodIdentifiers":{"isValidSignature(bytes,bytes)":"20c13b0b","isValidSignature(bytes32,bytes)":"1626ba7e","x()":"0c55699c","y()":"a56dfe4a"}},"storageLayout":{"storage":[],"types":null},"userdoc":{"errors":{"InvalidHash()":[{"notice":"Error message when the hash is invalid"}],"InvalidSignature()":[{"notice":"Error message when the signature is invalid"}]},"kind":"user","methods":{"x()":{"notice":"The x coordinate of the public key"},"y()":{"notice":"The y coordinate of the public key"}},"notice":"A contract that can be used to verify signatures from a secp256r1 public key","version":1}}}}