{"contracts/P256SignerFactory.sol":{"P256SignerFactory":{"abi":[{"inputs":[{"internalType":"address","name":"implementation_","type":"address"}],"stateMutability":"nonpayable","type":"constructor"},{"anonymous":false,"inputs":[{"indexed":true,"internalType":"uint256","name":"x","type":"uint256"},{"indexed":true,"internalType":"uint256","name":"y","type":"uint256"},{"indexed":false,"internalType":"address","name":"signer","type":"address"}],"name":"NewSignerCreated","type":"event"},{"inputs":[{"internalType":"uint256","name":"x","type":"uint256"},{"internalType":"uint256","name":"y","type":"uint256"}],"name":"create","outputs":[],"stateMutability":"nonpayable","type":"function"},{"inputs":[],"name":"implementation","outputs":[{"internalType":"address","name":"","type":"address"}],"stateMutability":"view","type":"function"}],"devdoc":{"kind":"dev","methods":{"create(uint256,uint256)":{"params":{"x":"The x coordinate of the public key","y":"The y coordinate of the public key"}}},"title":"P256SignerFactory","version":1},"evm":{"bytecode":{"linkReferences":{},"object":"60a060405234801561001057600080fd5b506040516103a33803806103a383398101604081905261002f91610040565b6001600160a01b0316608052610070565b60006020828403121561005257600080fd5b81516001600160a01b038116811461006957600080fd5b9392505050565b608051610313610090600039600081816040015260f601526103136000f3fe608060405234801561001057600080fd5b50600436106100365760003560e01c80635c60da1b1461003b5780639f7b45791461008b575b600080fd5b6100627f000000000000000000000000000000000000000000000000000000000000000081565b60405173ffffffffffffffffffffffffffffffffffffffff909116815260200160405180910390f35b61009e6100993660046102bb565b6100a0565b005b6040805160208101849052908101829052600090606001604080517fffffffffffffffffffffffffffffffffffffffffffffffffffffffffffffffe081840301815291905280516020820120909150600061011c7f00000000000000000000000000000000000000000000000000000000000000008484610173565b60405173ffffffffffffffffffffffffffffffffffffffff82168152909150849086907f33b61205835e3063eb8935cac4b29d7fc333ad80d6cb11893ba4758adf8cdde19060200160405180910390a35050505050565b600060608303516040840351602085035185518060208801018051600283016c5af43d3d93803e606057fd5bf38a528a600d8b035278593da1005b363d3d373d3d3d3d610000806062363936013d738160481b1760218b03527f9e4ac34f21c619cefc926c8bd93b54bf5a39c7ab2127a895af1cc0691d7e3dff603a8b035272fd6100003d81600a3d39f336602c57343d527f6062820160781b1761ff9e82106059018b03528060f01b835288606c8201604c8c036000f5975050866102415763301164256000526004601cfd5b905286527fffffffffffffffffffffffffffffffffffffffffffffffffffffffffffffffe08601527fffffffffffffffffffffffffffffffffffffffffffffffffffffffffffffffc08501527fffffffffffffffffffffffffffffffffffffffffffffffffffffffffffffffa09093019290925250919050565b600080604083850312156102ce57600080fd5b5050803592602090910135915056fea2646970667358221220681b3db1dda03804a3ebd7c93a426888538e30b47f13c63d5253ab3e97486bc264736f6c63430008110033","opcodes":"PUSH1 0xA0 PUSH1 0x40 MSTORE CALLVALUE DUP1 ISZERO PUSH2 0x10 JUMPI PUSH1 0x0 DUP1 REVERT JUMPDEST POP PUSH1 0x40 MLOAD PUSH2 0x3A3 CODESIZE SUB DUP1 PUSH2 0x3A3 DUP4 CODECOPY DUP2 ADD PUSH1 0x40 DUP2 SWAP1 MSTORE PUSH2 0x2F SWAP2 PUSH2 0x40 JUMP JUMPDEST PUSH1 0x1 PUSH1 0x1 PUSH1 0xA0 SHL SUB AND PUSH1 0x80 MSTORE PUSH2 0x70 JUMP JUMPDEST PUSH1 0x0 PUSH1 0x20 DUP3 DUP5 SUB SLT ISZERO PUSH2 0x52 JUMPI PUSH1 0x0 DUP1 REVERT JUMPDEST DUP2 MLOAD PUSH1 0x1 PUSH1 0x1 PUSH1 0xA0 SHL SUB DUP2 AND DUP2 EQ PUSH2 0x69 JUMPI PUSH1 0x0 DUP1 REVERT JUMPDEST SWAP4 SWAP3 POP POP POP JUMP JUMPDEST PUSH1 0x80 MLOAD PUSH2 0x313 PUSH2 0x90 PUSH1 0x0 CODECOPY PUSH1 0x0 DUP2 DUP2 PUSH1 0x40 ADD MSTORE PUSH1 0xF6 ADD MSTORE PUSH2 0x313 PUSH1 0x0 RETURN INVALID PUSH1 0x80 PUSH1 0x40 MSTORE CALLVALUE DUP1 ISZERO PUSH2 0x10 JUMPI PUSH1 0x0 DUP1 REVERT JUMPDEST POP PUSH1 0x4 CALLDATASIZE LT PUSH2 0x36 JUMPI PUSH1 0x0 CALLDATALOAD PUSH1 0xE0 SHR DUP1 PUSH4 0x5C60DA1B EQ PUSH2 0x3B JUMPI DUP1 PUSH4 0x9F7B4579 EQ PUSH2 0x8B JUMPI JUMPDEST PUSH1 0x0 DUP1 REVERT JUMPDEST PUSH2 0x62 PUSH32 0x0 DUP2 JUMP JUMPDEST PUSH1 0x40 MLOAD PUSH20 0xFFFFFFFFFFFFFFFFFFFFFFFFFFFFFFFFFFFFFFFF SWAP1 SWAP2 AND DUP2 MSTORE PUSH1 0x20 ADD PUSH1 0x40 MLOAD DUP1 SWAP2 SUB SWAP1 RETURN JUMPDEST PUSH2 0x9E PUSH2 0x99 CALLDATASIZE PUSH1 0x4 PUSH2 0x2BB JUMP JUMPDEST PUSH2 0xA0 JUMP JUMPDEST STOP JUMPDEST PUSH1 0x40 DUP1 MLOAD PUSH1 0x20 DUP2 ADD DUP5 SWAP1 MSTORE SWAP1 DUP2 ADD DUP3 SWAP1 MSTORE PUSH1 0x0 SWAP1 PUSH1 0x60 ADD PUSH1 0x40 DUP1 MLOAD PUSH32 0xFFFFFFFFFFFFFFFFFFFFFFFFFFFFFFFFFFFFFFFFFFFFFFFFFFFFFFFFFFFFFFE0 DUP2 DUP5 SUB ADD DUP2 MSTORE SWAP2 SWAP1 MSTORE DUP1 MLOAD PUSH1 0x20 DUP3 ADD KECCAK256 SWAP1 SWAP2 POP PUSH1 0x0 PUSH2 0x11C PUSH32 0x0 DUP5 DUP5 PUSH2 0x173 JUMP JUMPDEST PUSH1 0x40 MLOAD PUSH20 0xFFFFFFFFFFFFFFFFFFFFFFFFFFFFFFFFFFFFFFFF DUP3 AND DUP2 MSTORE SWAP1 SWAP2 POP DUP5 SWAP1 DUP7 SWAP1 PUSH32 0x33B61205835E3063EB8935CAC4B29D7FC333AD80D6CB11893BA4758ADF8CDDE1 SWAP1 PUSH1 0x20 ADD PUSH1 0x40 MLOAD DUP1 SWAP2 SUB SWAP1 LOG3 POP POP POP POP POP JUMP JUMPDEST PUSH1 0x0 PUSH1 0x60 DUP4 SUB MLOAD PUSH1 0x40 DUP5 SUB MLOAD PUSH1 0x20 DUP6 SUB MLOAD DUP6 MLOAD DUP1 PUSH1 0x20 DUP9 ADD ADD DUP1 MLOAD PUSH1 0x2 DUP4 ADD PUSH13 0x5AF43D3D93803E606057FD5BF3 DUP11 MSTORE DUP11 PUSH1 0xD DUP12 SUB MSTORE PUSH25 0x593DA1005B363D3D373D3D3D3D610000806062363936013D73 DUP2 PUSH1 0x48 SHL OR PUSH1 0x21 DUP12 SUB MSTORE PUSH32 0x9E4AC34F21C619CEFC926C8BD93B54BF5A39C7AB2127A895AF1CC0691D7E3DFF PUSH1 0x3A DUP12 SUB MSTORE PUSH19 0xFD6100003D81600A3D39F336602C57343D527F PUSH1 0x62 DUP3 ADD PUSH1 0x78 SHL OR PUSH2 0xFF9E DUP3 LT PUSH1 0x59 ADD DUP12 SUB MSTORE DUP1 PUSH1 0xF0 SHL DUP4 MSTORE DUP9 PUSH1 0x6C DUP3 ADD PUSH1 0x4C DUP13 SUB PUSH1 0x0 CREATE2 SWAP8 POP POP DUP7 PUSH2 0x241 JUMPI PUSH4 0x30116425 PUSH1 0x0 MSTORE PUSH1 0x4 PUSH1 0x1C REVERT JUMPDEST SWAP1 MSTORE DUP7 MSTORE PUSH32 0xFFFFFFFFFFFFFFFFFFFFFFFFFFFFFFFFFFFFFFFFFFFFFFFFFFFFFFFFFFFFFFE0 DUP7 ADD MSTORE PUSH32 0xFFFFFFFFFFFFFFFFFFFFFFFFFFFFFFFFFFFFFFFFFFFFFFFFFFFFFFFFFFFFFFC0 DUP6 ADD MSTORE PUSH32 0xFFFFFFFFFFFFFFFFFFFFFFFFFFFFFFFFFFFFFFFFFFFFFFFFFFFFFFFFFFFFFFA0 SWAP1 SWAP4 ADD SWAP3 SWAP1 SWAP3 MSTORE POP SWAP2 SWAP1 POP JUMP JUMPDEST PUSH1 0x0 DUP1 PUSH1 0x40 DUP4 DUP6 SUB SLT ISZERO PUSH2 0x2CE JUMPI PUSH1 0x0 DUP1 REVERT JUMPDEST POP POP DUP1 CALLDATALOAD SWAP3 PUSH1 0x20 SWAP1 SWAP2 ADD CALLDATALOAD SWAP2 POP JUMP INVALID LOG2 PUSH5 0x6970667358 0x22 SLT KECCAK256 PUSH9 0x1B3DB1DDA03804A3EB 0xD7 0xC9 GASPRICE TIMESTAMP PUSH9 0x88538E30B47F13C63D MSTORE MSTORE8 0xAB RETURNDATACOPY SWAP8 BASEFEE PUSH12 0xC264736F6C63430008110033 "},"gasEstimates":{"creation":{"codeDepositCost":"157400","executionCost":"infinite","totalCost":"infinite"},"external":{"create(uint256,uint256)":"infinite","implementation()":"infinite"}},"methodIdentifiers":{"create(uint256,uint256)":"9f7b4579","implementation()":"5c60da1b"}},"storageLayout":{"storage":[],"types":null},"userdoc":{"events":{"NewSignerCreated(uint256,uint256,address)":{"notice":"Emitted when a new P256Signer proxy contract is created"}},"kind":"user","methods":{"create(uint256,uint256)":{"notice":"Creates a new P256Signer proxy contract"},"implementation()":{"notice":"The implementation address of the P256Signer contract"}},"notice":"Factory contract for creating proxies for P256Signer","version":1}}}}