{"contracts/P256SignerFactory.sol":{"P256SignerFactory":{"abi":[{"anonymous":false,"inputs":[{"indexed":true,"internalType":"uint256","name":"x","type":"uint256"},{"indexed":true,"internalType":"uint256","name":"y","type":"uint256"},{"indexed":false,"internalType":"address","name":"signer","type":"address"}],"name":"NewSignerCreated","type":"event"},{"inputs":[{"internalType":"uint256","name":"x","type":"uint256"},{"internalType":"uint256","name":"y","type":"uint256"}],"name":"create","outputs":[],"stateMutability":"nonpayable","type":"function"}],"devdoc":{"kind":"dev","methods":{},"version":1},"evm":{"bytecode":{"linkReferences":{"contracts/Webauthn.sol":{"Webauthn":[{"length":20,"start":941}]}},"object":"608060405234801561001057600080fd5b50610949806100206000396000f3fe608060405234801561001057600080fd5b506004361061002b5760003560e01c80639f7b457914610030575b600080fd5b61004361003e366004610114565b610045565b005b6040805160208101849052908101829052600090606001604051602081830303815290604052805190602001209050600081848460405161008590610107565b91825260208201526040018190604051809103906000f59050801580156100b0573d6000803e3d6000fd5b5060405173ffffffffffffffffffffffffffffffffffffffff82168152909150839085907f33b61205835e3063eb8935cac4b29d7fc333ad80d6cb11893ba4758adf8cdde19060200160405180910390a350505050565b6107dd8061013783390190565b6000806040838503121561012757600080fd5b5050803592602090910135915056fe60c060405234801561001057600080fd5b506040516107dd3803806107dd83398101604081905261002f9161003d565b60809190915260a052610061565b6000806040838503121561005057600080fd5b505080516020909101519092909150565b60805160a05161074b6100926000396000818160e70152610216015260008181605601526101f0015261074b6000f3fe608060405234801561001057600080fd5b506004361061004c5760003560e01c80630c55699c146100515780631626ba7e1461008b57806320c13b0b146100cf578063a56dfe4a146100e2575b600080fd5b6100787f000000000000000000000000000000000000000000000000000000000000000081565b6040519081526020015b60405180910390f35b61009e610099366004610421565b610109565b6040517fffffffff000000000000000000000000000000000000000000000000000000009091168152602001610082565b61009e6100dd366004610468565b61015e565b6100787f000000000000000000000000000000000000000000000000000000000000000081565b60006101368360405160200161012191815260200190565b60405160208183030381529060405283610192565b507f1626ba7e0000000000000000000000000000000000000000000000000000000092915050565b600061016a8383610192565b507f20c13b0b0000000000000000000000000000000000000000000000000000000092915050565b600082805190602001209050600080600080858060200190518101906101b89190610533565b9350935093509350600073__$84047ae21dcd4eb7d6018436351b69d321$__630d5efec9866001878a888860405180604001604052807f000000000000000000000000000000000000000000000000000000000000000081526020017f00000000000000000000000000000000000000000000000000000000000000008152506040518863ffffffff1660e01b815260040161025a9796959493929190610664565b602060405180830381865af4158015610277573d6000803e3d6000fd5b505050506040513d601f19601f8201168201806040525081019061029b91906106ec565b9050806102d4576040517f8baa579f00000000000000000000000000000000000000000000000000000000815260040160405180910390fd5b5050505050505050565b7f4e487b7100000000000000000000000000000000000000000000000000000000600052604160045260246000fd5b6040805190810167ffffffffffffffff81118282101715610330576103306102de565b60405290565b604051601f82017fffffffffffffffffffffffffffffffffffffffffffffffffffffffffffffffe016810167ffffffffffffffff8111828210171561037d5761037d6102de565b604052919050565b600067ffffffffffffffff82111561039f5761039f6102de565b50601f017fffffffffffffffffffffffffffffffffffffffffffffffffffffffffffffffe01660200190565b600082601f8301126103dc57600080fd5b81356103ef6103ea82610385565b610336565b81815284602083860101111561040457600080fd5b816020850160208301376000918101602001919091529392505050565b6000806040838503121561043457600080fd5b82359150602083013567ffffffffffffffff81111561045257600080fd5b61045e858286016103cb565b9150509250929050565b6000806040838503121561047b57600080fd5b823567ffffffffffffffff8082111561049357600080fd5b61049f868387016103cb565b935060208501359150808211156104b557600080fd5b5061045e858286016103cb565b60005b838110156104dd5781810151838201526020016104c5565b50506000910152565b600082601f8301126104f757600080fd5b81516105056103ea82610385565b81815284602083860101111561051a57600080fd5b61052b8260208301602087016104c2565b949350505050565b60008060008060a0858703121561054957600080fd5b845167ffffffffffffffff8082111561056157600080fd5b61056d888389016104e6565b955060209150818701518181111561058457600080fd5b61059089828a016104e6565b955050506040860151925086607f8701126105aa57600080fd5b6105b261030d565b8060a08801898111156105c457600080fd5b606089015b818110156105e057805184529284019284016105c9565b505080935050505092959194509250565b600081518084526106098160208601602086016104c2565b601f017fffffffffffffffffffffffffffffffffffffffffffffffffffffffffffffffe0169290920160200192915050565b8060005b600281101561065e57815184526020938401939091019060010161063f565b50505050565b60006101208083526106788184018b6105f1565b90507fff000000000000000000000000000000000000000000000000000000000000008960f81b16602084015282810360408401526106b781896105f1565b9150508560608301528460808301526106d360a083018561063b565b6106e060e083018461063b565b98975050505050505050565b6000602082840312156106fe57600080fd5b8151801515811461070e57600080fd5b939250505056fea2646970667358221220ee8ed319334e4dc8d418cc771e5c5a1619dbc07de1e6cb3983d9ab34ae5ddd1d64736f6c63430008110033a2646970667358221220dcc57105a98cb3072ac9ab25a6a587969539fe7c8e17fe962097fbacfd0d621864736f6c63430008110033","opcodes":"PUSH1 0x80 PUSH1 0x40 MSTORE CALLVALUE DUP1 ISZERO PUSH2 0x10 JUMPI PUSH1 0x0 DUP1 REVERT JUMPDEST POP PUSH2 0x949 DUP1 PUSH2 0x20 PUSH1 0x0 CODECOPY PUSH1 0x0 RETURN INVALID PUSH1 0x80 PUSH1 0x40 MSTORE CALLVALUE DUP1 ISZERO PUSH2 0x10 JUMPI PUSH1 0x0 DUP1 REVERT JUMPDEST POP PUSH1 0x4 CALLDATASIZE LT PUSH2 0x2B JUMPI PUSH1 0x0 CALLDATALOAD PUSH1 0xE0 SHR DUP1 PUSH4 0x9F7B4579 EQ PUSH2 0x30 JUMPI JUMPDEST PUSH1 0x0 DUP1 REVERT JUMPDEST PUSH2 0x43 PUSH2 0x3E CALLDATASIZE PUSH1 0x4 PUSH2 0x114 JUMP JUMPDEST PUSH2 0x45 JUMP JUMPDEST STOP JUMPDEST PUSH1 0x40 DUP1 MLOAD PUSH1 0x20 DUP2 ADD DUP5 SWAP1 MSTORE SWAP1 DUP2 ADD DUP3 SWAP1 MSTORE PUSH1 0x0 SWAP1 PUSH1 0x60 ADD PUSH1 0x40 MLOAD PUSH1 0x20 DUP2 DUP4 SUB SUB DUP2 MSTORE SWAP1 PUSH1 0x40 MSTORE DUP1 MLOAD SWAP1 PUSH1 0x20 ADD KECCAK256 SWAP1 POP PUSH1 0x0 DUP2 DUP5 DUP5 PUSH1 0x40 MLOAD PUSH2 0x85 SWAP1 PUSH2 0x107 JUMP JUMPDEST SWAP2 DUP3 MSTORE PUSH1 0x20 DUP3 ADD MSTORE PUSH1 0x40 ADD DUP2 SWAP1 PUSH1 0x40 MLOAD DUP1 SWAP2 SUB SWAP1 PUSH1 0x0 CREATE2 SWAP1 POP DUP1 ISZERO DUP1 ISZERO PUSH2 0xB0 JUMPI RETURNDATASIZE PUSH1 0x0 DUP1 RETURNDATACOPY RETURNDATASIZE PUSH1 0x0 REVERT JUMPDEST POP PUSH1 0x40 MLOAD PUSH20 0xFFFFFFFFFFFFFFFFFFFFFFFFFFFFFFFFFFFFFFFF DUP3 AND DUP2 MSTORE SWAP1 SWAP2 POP DUP4 SWAP1 DUP6 SWAP1 PUSH32 0x33B61205835E3063EB8935CAC4B29D7FC333AD80D6CB11893BA4758ADF8CDDE1 SWAP1 PUSH1 0x20 ADD PUSH1 0x40 MLOAD DUP1 SWAP2 SUB SWAP1 LOG3 POP POP POP POP JUMP JUMPDEST PUSH2 0x7DD DUP1 PUSH2 0x137 DUP4 CODECOPY ADD SWAP1 JUMP JUMPDEST PUSH1 0x0 DUP1 PUSH1 0x40 DUP4 DUP6 SUB SLT ISZERO PUSH2 0x127 JUMPI PUSH1 0x0 DUP1 REVERT JUMPDEST POP POP DUP1 CALLDATALOAD SWAP3 PUSH1 0x20 SWAP1 SWAP2 ADD CALLDATALOAD SWAP2 POP JUMP INVALID PUSH1 0xC0 PUSH1 0x40 MSTORE CALLVALUE DUP1 ISZERO PUSH2 0x10 JUMPI PUSH1 0x0 DUP1 REVERT JUMPDEST POP PUSH1 0x40 MLOAD PUSH2 0x7DD CODESIZE SUB DUP1 PUSH2 0x7DD DUP4 CODECOPY DUP2 ADD PUSH1 0x40 DUP2 SWAP1 MSTORE PUSH2 0x2F SWAP2 PUSH2 0x3D JUMP JUMPDEST PUSH1 0x80 SWAP2 SWAP1 SWAP2 MSTORE PUSH1 0xA0 MSTORE PUSH2 0x61 JUMP JUMPDEST PUSH1 0x0 DUP1 PUSH1 0x40 DUP4 DUP6 SUB SLT ISZERO PUSH2 0x50 JUMPI PUSH1 0x0 DUP1 REVERT JUMPDEST POP POP DUP1 MLOAD PUSH1 0x20 SWAP1 SWAP2 ADD MLOAD SWAP1 SWAP3 SWAP1 SWAP2 POP JUMP JUMPDEST PUSH1 0x80 MLOAD PUSH1 0xA0 MLOAD PUSH2 0x74B PUSH2 0x92 PUSH1 0x0 CODECOPY PUSH1 0x0 DUP2 DUP2 PUSH1 0xE7 ADD MSTORE PUSH2 0x216 ADD MSTORE PUSH1 0x0 DUP2 DUP2 PUSH1 0x56 ADD MSTORE PUSH2 0x1F0 ADD MSTORE PUSH2 0x74B PUSH1 0x0 RETURN INVALID PUSH1 0x80 PUSH1 0x40 MSTORE CALLVALUE DUP1 ISZERO PUSH2 0x10 JUMPI PUSH1 0x0 DUP1 REVERT JUMPDEST POP PUSH1 0x4 CALLDATASIZE LT PUSH2 0x4C JUMPI PUSH1 0x0 CALLDATALOAD PUSH1 0xE0 SHR DUP1 PUSH4 0xC55699C EQ PUSH2 0x51 JUMPI DUP1 PUSH4 0x1626BA7E EQ PUSH2 0x8B JUMPI DUP1 PUSH4 0x20C13B0B EQ PUSH2 0xCF JUMPI DUP1 PUSH4 0xA56DFE4A EQ PUSH2 0xE2 JUMPI JUMPDEST PUSH1 0x0 DUP1 REVERT JUMPDEST PUSH2 0x78 PUSH32 0x0 DUP2 JUMP JUMPDEST PUSH1 0x40 MLOAD SWAP1 DUP2 MSTORE PUSH1 0x20 ADD JUMPDEST PUSH1 0x40 MLOAD DUP1 SWAP2 SUB SWAP1 RETURN JUMPDEST PUSH2 0x9E PUSH2 0x99 CALLDATASIZE PUSH1 0x4 PUSH2 0x421 JUMP JUMPDEST PUSH2 0x109 JUMP JUMPDEST PUSH1 0x40 MLOAD PUSH32 0xFFFFFFFF00000000000000000000000000000000000000000000000000000000 SWAP1 SWAP2 AND DUP2 MSTORE PUSH1 0x20 ADD PUSH2 0x82 JUMP JUMPDEST PUSH2 0x9E PUSH2 0xDD CALLDATASIZE PUSH1 0x4 PUSH2 0x468 JUMP JUMPDEST PUSH2 0x15E JUMP JUMPDEST PUSH2 0x78 PUSH32 0x0 DUP2 JUMP JUMPDEST PUSH1 0x0 PUSH2 0x136 DUP4 PUSH1 0x40 MLOAD PUSH1 0x20 ADD PUSH2 0x121 SWAP2 DUP2 MSTORE PUSH1 0x20 ADD SWAP1 JUMP JUMPDEST PUSH1 0x40 MLOAD PUSH1 0x20 DUP2 DUP4 SUB SUB DUP2 MSTORE SWAP1 PUSH1 0x40 MSTORE DUP4 PUSH2 0x192 JUMP JUMPDEST POP PUSH32 0x1626BA7E00000000000000000000000000000000000000000000000000000000 SWAP3 SWAP2 POP POP JUMP JUMPDEST PUSH1 0x0 PUSH2 0x16A DUP4 DUP4 PUSH2 0x192 JUMP JUMPDEST POP PUSH32 0x20C13B0B00000000000000000000000000000000000000000000000000000000 SWAP3 SWAP2 POP POP JUMP JUMPDEST PUSH1 0x0 DUP3 DUP1 MLOAD SWAP1 PUSH1 0x20 ADD KECCAK256 SWAP1 POP PUSH1 0x0 DUP1 PUSH1 0x0 DUP1 DUP6 DUP1 PUSH1 0x20 ADD SWAP1 MLOAD DUP2 ADD SWAP1 PUSH2 0x1B8 SWAP2 SWAP1 PUSH2 0x533 JUMP JUMPDEST SWAP4 POP SWAP4 POP SWAP4 POP SWAP4 POP PUSH1 0x0 PUSH20 0x0 PUSH4 0xD5EFEC9 DUP7 PUSH1 0x1 DUP8 DUP11 DUP9 DUP9 PUSH1 0x40 MLOAD DUP1 PUSH1 0x40 ADD PUSH1 0x40 MSTORE DUP1 PUSH32 0x0 DUP2 MSTORE PUSH1 0x20 ADD PUSH32 0x0 DUP2 MSTORE POP PUSH1 0x40 MLOAD DUP9 PUSH4 0xFFFFFFFF AND PUSH1 0xE0 SHL DUP2 MSTORE PUSH1 0x4 ADD PUSH2 0x25A SWAP8 SWAP7 SWAP6 SWAP5 SWAP4 SWAP3 SWAP2 SWAP1 PUSH2 0x664 JUMP JUMPDEST PUSH1 0x20 PUSH1 0x40 MLOAD DUP1 DUP4 SUB DUP2 DUP7 GAS DELEGATECALL ISZERO DUP1 ISZERO PUSH2 0x277 JUMPI RETURNDATASIZE PUSH1 0x0 DUP1 RETURNDATACOPY RETURNDATASIZE PUSH1 0x0 REVERT JUMPDEST POP POP POP POP PUSH1 0x40 MLOAD RETURNDATASIZE PUSH1 0x1F NOT PUSH1 0x1F DUP3 ADD AND DUP3 ADD DUP1 PUSH1 0x40 MSTORE POP DUP2 ADD SWAP1 PUSH2 0x29B SWAP2 SWAP1 PUSH2 0x6EC JUMP JUMPDEST SWAP1 POP DUP1 PUSH2 0x2D4 JUMPI PUSH1 0x40 MLOAD PUSH32 0x8BAA579F00000000000000000000000000000000000000000000000000000000 DUP2 MSTORE PUSH1 0x4 ADD PUSH1 0x40 MLOAD DUP1 SWAP2 SUB SWAP1 REVERT JUMPDEST POP POP POP POP POP POP POP POP JUMP JUMPDEST PUSH32 0x4E487B7100000000000000000000000000000000000000000000000000000000 PUSH1 0x0 MSTORE PUSH1 0x41 PUSH1 0x4 MSTORE PUSH1 0x24 PUSH1 0x0 REVERT JUMPDEST PUSH1 0x40 DUP1 MLOAD SWAP1 DUP2 ADD PUSH8 0xFFFFFFFFFFFFFFFF DUP2 GT DUP3 DUP3 LT OR ISZERO PUSH2 0x330 JUMPI PUSH2 0x330 PUSH2 0x2DE JUMP JUMPDEST PUSH1 0x40 MSTORE SWAP1 JUMP JUMPDEST PUSH1 0x40 MLOAD PUSH1 0x1F DUP3 ADD PUSH32 0xFFFFFFFFFFFFFFFFFFFFFFFFFFFFFFFFFFFFFFFFFFFFFFFFFFFFFFFFFFFFFFE0 AND DUP2 ADD PUSH8 0xFFFFFFFFFFFFFFFF DUP2 GT DUP3 DUP3 LT OR ISZERO PUSH2 0x37D JUMPI PUSH2 0x37D PUSH2 0x2DE JUMP JUMPDEST PUSH1 0x40 MSTORE SWAP2 SWAP1 POP JUMP JUMPDEST PUSH1 0x0 PUSH8 0xFFFFFFFFFFFFFFFF DUP3 GT ISZERO PUSH2 0x39F JUMPI PUSH2 0x39F PUSH2 0x2DE JUMP JUMPDEST POP PUSH1 0x1F ADD PUSH32 0xFFFFFFFFFFFFFFFFFFFFFFFFFFFFFFFFFFFFFFFFFFFFFFFFFFFFFFFFFFFFFFE0 AND PUSH1 0x20 ADD SWAP1 JUMP JUMPDEST PUSH1 0x0 DUP3 PUSH1 0x1F DUP4 ADD SLT PUSH2 0x3DC JUMPI PUSH1 0x0 DUP1 REVERT JUMPDEST DUP2 CALLDATALOAD PUSH2 0x3EF PUSH2 0x3EA DUP3 PUSH2 0x385 JUMP JUMPDEST PUSH2 0x336 JUMP JUMPDEST DUP2 DUP2 MSTORE DUP5 PUSH1 0x20 DUP4 DUP7 ADD ADD GT ISZERO PUSH2 0x404 JUMPI PUSH1 0x0 DUP1 REVERT JUMPDEST DUP2 PUSH1 0x20 DUP6 ADD PUSH1 0x20 DUP4 ADD CALLDATACOPY PUSH1 0x0 SWAP2 DUP2 ADD PUSH1 0x20 ADD SWAP2 SWAP1 SWAP2 MSTORE SWAP4 SWAP3 POP POP POP JUMP JUMPDEST PUSH1 0x0 DUP1 PUSH1 0x40 DUP4 DUP6 SUB SLT ISZERO PUSH2 0x434 JUMPI PUSH1 0x0 DUP1 REVERT JUMPDEST DUP3 CALLDATALOAD SWAP2 POP PUSH1 0x20 DUP4 ADD CALLDATALOAD PUSH8 0xFFFFFFFFFFFFFFFF DUP2 GT ISZERO PUSH2 0x452 JUMPI PUSH1 0x0 DUP1 REVERT JUMPDEST PUSH2 0x45E DUP6 DUP3 DUP7 ADD PUSH2 0x3CB JUMP JUMPDEST SWAP2 POP POP SWAP3 POP SWAP3 SWAP1 POP JUMP JUMPDEST PUSH1 0x0 DUP1 PUSH1 0x40 DUP4 DUP6 SUB SLT ISZERO PUSH2 0x47B JUMPI PUSH1 0x0 DUP1 REVERT JUMPDEST DUP3 CALLDATALOAD PUSH8 0xFFFFFFFFFFFFFFFF DUP1 DUP3 GT ISZERO PUSH2 0x493 JUMPI PUSH1 0x0 DUP1 REVERT JUMPDEST PUSH2 0x49F DUP7 DUP4 DUP8 ADD PUSH2 0x3CB JUMP JUMPDEST SWAP4 POP PUSH1 0x20 DUP6 ADD CALLDATALOAD SWAP2 POP DUP1 DUP3 GT ISZERO PUSH2 0x4B5 JUMPI PUSH1 0x0 DUP1 REVERT JUMPDEST POP PUSH2 0x45E DUP6 DUP3 DUP7 ADD PUSH2 0x3CB JUMP JUMPDEST PUSH1 0x0 JUMPDEST DUP4 DUP2 LT ISZERO PUSH2 0x4DD JUMPI DUP2 DUP2 ADD MLOAD DUP4 DUP3 ADD MSTORE PUSH1 0x20 ADD PUSH2 0x4C5 JUMP JUMPDEST POP POP PUSH1 0x0 SWAP2 ADD MSTORE JUMP JUMPDEST PUSH1 0x0 DUP3 PUSH1 0x1F DUP4 ADD SLT PUSH2 0x4F7 JUMPI PUSH1 0x0 DUP1 REVERT JUMPDEST DUP2 MLOAD PUSH2 0x505 PUSH2 0x3EA DUP3 PUSH2 0x385 JUMP JUMPDEST DUP2 DUP2 MSTORE DUP5 PUSH1 0x20 DUP4 DUP7 ADD ADD GT ISZERO PUSH2 0x51A JUMPI PUSH1 0x0 DUP1 REVERT JUMPDEST PUSH2 0x52B DUP3 PUSH1 0x20 DUP4 ADD PUSH1 0x20 DUP8 ADD PUSH2 0x4C2 JUMP JUMPDEST SWAP5 SWAP4 POP POP POP POP JUMP JUMPDEST PUSH1 0x0 DUP1 PUSH1 0x0 DUP1 PUSH1 0xA0 DUP6 DUP8 SUB SLT ISZERO PUSH2 0x549 JUMPI PUSH1 0x0 DUP1 REVERT JUMPDEST DUP5 MLOAD PUSH8 0xFFFFFFFFFFFFFFFF DUP1 DUP3 GT ISZERO PUSH2 0x561 JUMPI PUSH1 0x0 DUP1 REVERT JUMPDEST PUSH2 0x56D DUP9 DUP4 DUP10 ADD PUSH2 0x4E6 JUMP JUMPDEST SWAP6 POP PUSH1 0x20 SWAP2 POP DUP2 DUP8 ADD MLOAD DUP2 DUP2 GT ISZERO PUSH2 0x584 JUMPI PUSH1 0x0 DUP1 REVERT JUMPDEST PUSH2 0x590 DUP10 DUP3 DUP11 ADD PUSH2 0x4E6 JUMP JUMPDEST SWAP6 POP POP POP PUSH1 0x40 DUP7 ADD MLOAD SWAP3 POP DUP7 PUSH1 0x7F DUP8 ADD SLT PUSH2 0x5AA JUMPI PUSH1 0x0 DUP1 REVERT JUMPDEST PUSH2 0x5B2 PUSH2 0x30D JUMP JUMPDEST DUP1 PUSH1 0xA0 DUP9 ADD DUP10 DUP2 GT ISZERO PUSH2 0x5C4 JUMPI PUSH1 0x0 DUP1 REVERT JUMPDEST PUSH1 0x60 DUP10 ADD JUMPDEST DUP2 DUP2 LT ISZERO PUSH2 0x5E0 JUMPI DUP1 MLOAD DUP5 MSTORE SWAP3 DUP5 ADD SWAP3 DUP5 ADD PUSH2 0x5C9 JUMP JUMPDEST POP POP DUP1 SWAP4 POP POP POP POP SWAP3 SWAP6 SWAP2 SWAP5 POP SWAP3 POP JUMP JUMPDEST PUSH1 0x0 DUP2 MLOAD DUP1 DUP5 MSTORE PUSH2 0x609 DUP2 PUSH1 0x20 DUP7 ADD PUSH1 0x20 DUP7 ADD PUSH2 0x4C2 JUMP JUMPDEST PUSH1 0x1F ADD PUSH32 0xFFFFFFFFFFFFFFFFFFFFFFFFFFFFFFFFFFFFFFFFFFFFFFFFFFFFFFFFFFFFFFE0 AND SWAP3 SWAP1 SWAP3 ADD PUSH1 0x20 ADD SWAP3 SWAP2 POP POP JUMP JUMPDEST DUP1 PUSH1 0x0 JUMPDEST PUSH1 0x2 DUP2 LT ISZERO PUSH2 0x65E JUMPI DUP2 MLOAD DUP5 MSTORE PUSH1 0x20 SWAP4 DUP5 ADD SWAP4 SWAP1 SWAP2 ADD SWAP1 PUSH1 0x1 ADD PUSH2 0x63F JUMP JUMPDEST POP POP POP POP JUMP JUMPDEST PUSH1 0x0 PUSH2 0x120 DUP1 DUP4 MSTORE PUSH2 0x678 DUP2 DUP5 ADD DUP12 PUSH2 0x5F1 JUMP JUMPDEST SWAP1 POP PUSH32 0xFF00000000000000000000000000000000000000000000000000000000000000 DUP10 PUSH1 0xF8 SHL AND PUSH1 0x20 DUP5 ADD MSTORE DUP3 DUP2 SUB PUSH1 0x40 DUP5 ADD MSTORE PUSH2 0x6B7 DUP2 DUP10 PUSH2 0x5F1 JUMP JUMPDEST SWAP2 POP POP DUP6 PUSH1 0x60 DUP4 ADD MSTORE DUP5 PUSH1 0x80 DUP4 ADD MSTORE PUSH2 0x6D3 PUSH1 0xA0 DUP4 ADD DUP6 PUSH2 0x63B JUMP JUMPDEST PUSH2 0x6E0 PUSH1 0xE0 DUP4 ADD DUP5 PUSH2 0x63B JUMP JUMPDEST SWAP9 SWAP8 POP POP POP POP POP POP POP POP JUMP JUMPDEST PUSH1 0x0 PUSH1 0x20 DUP3 DUP5 SUB SLT ISZERO PUSH2 0x6FE JUMPI PUSH1 0x0 DUP1 REVERT JUMPDEST DUP2 MLOAD DUP1 ISZERO ISZERO DUP2 EQ PUSH2 0x70E JUMPI PUSH1 0x0 DUP1 REVERT JUMPDEST SWAP4 SWAP3 POP POP POP JUMP INVALID LOG2 PUSH5 0x6970667358 0x22 SLT KECCAK256 0xEE DUP15 0xD3 NOT CALLER 0x4E 0x4D 0xC8 0xD4 XOR 0xCC PUSH24 0x1E5C5A1619DBC07DE1E6CB3983D9AB34AE5DDD1D64736F6C PUSH4 0x43000811 STOP CALLER LOG2 PUSH5 0x6970667358 0x22 SLT KECCAK256 0xDC 0xC5 PUSH18 0x5A98CB3072AC9AB25A6A587969539FE7C8E OR INVALID SWAP7 KECCAK256 SWAP8 0xFB 0xAC REVERT 0xD PUSH3 0x186473 PUSH16 0x6C634300081100330000000000000000 "},"gasEstimates":{"creation":{"codeDepositCost":"475400","executionCost":"511","totalCost":"475911"},"external":{"create(uint256,uint256)":"infinite"}},"methodIdentifiers":{"create(uint256,uint256)":"9f7b4579"}},"storageLayout":{"storage":[],"types":null},"userdoc":{"kind":"user","methods":{},"version":1}}}}