{"contracts/P256Signer.sol":{"P256Signer":{"abi":[{"inputs":[{"internalType":"address","name":"FCLWebAuthn_","type":"address"}],"stateMutability":"nonpayable","type":"constructor"},{"inputs":[],"name":"AlreadyInitialized","type":"error"},{"inputs":[],"name":"InvalidHash","type":"error"},{"inputs":[],"name":"InvalidSignature","type":"error"},{"inputs":[],"name":"FCLWebAuthn","outputs":[{"internalType":"contract WrapperFCLWebAuthn","name":"","type":"address"}],"stateMutability":"view","type":"function"},{"inputs":[{"internalType":"uint256","name":"x_","type":"uint256"},{"internalType":"uint256","name":"y_","type":"uint256"}],"name":"initialize","outputs":[],"stateMutability":"nonpayable","type":"function"},{"inputs":[],"name":"initialized","outputs":[{"internalType":"bool","name":"","type":"bool"}],"stateMutability":"view","type":"function"},{"inputs":[{"internalType":"bytes32","name":"_hash","type":"bytes32"},{"internalType":"bytes","name":"_signature","type":"bytes"}],"name":"isValidSignature","outputs":[{"internalType":"bytes4","name":"","type":"bytes4"}],"stateMutability":"view","type":"function"},{"inputs":[{"internalType":"bytes","name":"_hash","type":"bytes"},{"internalType":"bytes","name":"_signature","type":"bytes"}],"name":"isValidSignature","outputs":[{"internalType":"bytes4","name":"","type":"bytes4"}],"stateMutability":"view","type":"function"},{"inputs":[],"name":"x","outputs":[{"internalType":"uint256","name":"","type":"uint256"}],"stateMutability":"view","type":"function"},{"inputs":[],"name":"y","outputs":[{"internalType":"uint256","name":"","type":"uint256"}],"stateMutability":"view","type":"function"}],"devdoc":{"details":"This contract is the implementation. It is meant to be used through      proxy clone.","kind":"dev","methods":{"initialize(uint256,uint256)":{"details":"This function is only callable once and needs to be called immediately      after deployment by the factory in the same transaction.","params":{"x_":"The x coordinate of the public key","y_":"The y coordinate of the public key"}},"isValidSignature(bytes,bytes)":{"details":"This is the old version of the function of EIP-1271 using bytes      memory instead of bytes32","params":{"_hash":"The hash of the data signed","_signature":"The signature"},"returns":{"_0":"The EIP-1271 magic value"}},"isValidSignature(bytes32,bytes)":{"params":{"_hash":"The hash of the data signed","_signature":"The signature"},"returns":{"_0":"The EIP-1271 magic value"}}},"title":"P256Signer","version":1},"evm":{"bytecode":{"linkReferences":{},"object":"60a060405234801561001057600080fd5b506040516108d93803806108d983398101604081905261002f9161004d565b6000805460ff191660011790556001600160a01b031660805261007d565b60006020828403121561005f57600080fd5b81516001600160a01b038116811461007657600080fd5b9392505050565b60805161083a61009f6000396000818161012001526102ab015261083a6000f3fe608060405234801561001057600080fd5b506004361061007d5760003560e01c806320c13b0b1161005b57806320c13b0b146100ff578063a56dfe4a14610112578063c71187f01461011b578063e4a301161461016757600080fd5b80630c55699c14610082578063158ef93e1461009e5780631626ba7e146100bb575b600080fd5b61008b60015481565b6040519081526020015b60405180910390f35b6000546100ab9060ff1681565b6040519015158152602001610095565b6100ce6100c93660046104ee565b61017c565b6040517fffffffff000000000000000000000000000000000000000000000000000000009091168152602001610095565b6100ce61010d366004610535565b6101d1565b61008b60025481565b6101427f000000000000000000000000000000000000000000000000000000000000000081565b60405173ffffffffffffffffffffffffffffffffffffffff9091168152602001610095565b61017a61017536600461058f565b610205565b005b60006101a98360405160200161019491815260200190565b60405160208183030381529060405283610279565b507f1626ba7e0000000000000000000000000000000000000000000000000000000092915050565b60006101dd8383610279565b507f20c13b0b0000000000000000000000000000000000000000000000000000000092915050565b60005460ff1615610242576040517f0dc149f000000000000000000000000000000000000000000000000000000000815260040160405180910390fd5b600080547fffffffffffffffffffffffffffffffffffffffffffffffffffffffffffffff0016600190811790915591909155600255565b6000828051906020012090506000806000808580602001905181019061029f9190610622565b935093509350935060007f000000000000000000000000000000000000000000000000000000000000000073ffffffffffffffffffffffffffffffffffffffff16630d5efec9866001878a8888604051806040016040528060015481526020016002548152506040518863ffffffff1660e01b81526004016103279796959493929190610753565b602060405180830381865afa158015610344573d6000803e3d6000fd5b505050506040513d601f19601f8201168201806040525081019061036891906107db565b9050806103a1576040517f8baa579f00000000000000000000000000000000000000000000000000000000815260040160405180910390fd5b5050505050505050565b7f4e487b7100000000000000000000000000000000000000000000000000000000600052604160045260246000fd5b6040805190810167ffffffffffffffff811182821017156103fd576103fd6103ab565b60405290565b604051601f82017fffffffffffffffffffffffffffffffffffffffffffffffffffffffffffffffe016810167ffffffffffffffff8111828210171561044a5761044a6103ab565b604052919050565b600067ffffffffffffffff82111561046c5761046c6103ab565b50601f017fffffffffffffffffffffffffffffffffffffffffffffffffffffffffffffffe01660200190565b600082601f8301126104a957600080fd5b81356104bc6104b782610452565b610403565b8181528460208386010111156104d157600080fd5b816020850160208301376000918101602001919091529392505050565b6000806040838503121561050157600080fd5b82359150602083013567ffffffffffffffff81111561051f57600080fd5b61052b85828601610498565b9150509250929050565b6000806040838503121561054857600080fd5b823567ffffffffffffffff8082111561056057600080fd5b61056c86838701610498565b9350602085013591508082111561058257600080fd5b5061052b85828601610498565b600080604083850312156105a257600080fd5b50508035926020909101359150565b60005b838110156105cc5781810151838201526020016105b4565b50506000910152565b600082601f8301126105e657600080fd5b81516105f46104b782610452565b81815284602083860101111561060957600080fd5b61061a8260208301602087016105b1565b949350505050565b60008060008060a0858703121561063857600080fd5b845167ffffffffffffffff8082111561065057600080fd5b61065c888389016105d5565b955060209150818701518181111561067357600080fd5b61067f89828a016105d5565b955050506040860151925086607f87011261069957600080fd5b6106a16103da565b8060a08801898111156106b357600080fd5b606089015b818110156106cf57805184529284019284016106b8565b505080935050505092959194509250565b600081518084526106f88160208601602086016105b1565b601f017fffffffffffffffffffffffffffffffffffffffffffffffffffffffffffffffe0169290920160200192915050565b8060005b600281101561074d57815184526020938401939091019060010161072e565b50505050565b60006101208083526107678184018b6106e0565b90507fff000000000000000000000000000000000000000000000000000000000000008960f81b16602084015282810360408401526107a681896106e0565b9150508560608301528460808301526107c260a083018561072a565b6107cf60e083018461072a565b98975050505050505050565b6000602082840312156107ed57600080fd5b815180151581146107fd57600080fd5b939250505056fea2646970667358221220e2459884096b6098f1ab893e1294550f8a6f46ac1414f13f4ba4f26cfbfbffe664736f6c63430008140033","opcodes":"PUSH1 0xA0 PUSH1 0x40 MSTORE CALLVALUE DUP1 ISZERO PUSH2 0x10 JUMPI PUSH1 0x0 DUP1 REVERT JUMPDEST POP PUSH1 0x40 MLOAD PUSH2 0x8D9 CODESIZE SUB DUP1 PUSH2 0x8D9 DUP4 CODECOPY DUP2 ADD PUSH1 0x40 DUP2 SWAP1 MSTORE PUSH2 0x2F SWAP2 PUSH2 0x4D JUMP JUMPDEST PUSH1 0x0 DUP1 SLOAD PUSH1 0xFF NOT AND PUSH1 0x1 OR SWAP1 SSTORE PUSH1 0x1 PUSH1 0x1 PUSH1 0xA0 SHL SUB AND PUSH1 0x80 MSTORE PUSH2 0x7D JUMP JUMPDEST PUSH1 0x0 PUSH1 0x20 DUP3 DUP5 SUB SLT ISZERO PUSH2 0x5F JUMPI PUSH1 0x0 DUP1 REVERT JUMPDEST DUP2 MLOAD PUSH1 0x1 PUSH1 0x1 PUSH1 0xA0 SHL SUB DUP2 AND DUP2 EQ PUSH2 0x76 JUMPI PUSH1 0x0 DUP1 REVERT JUMPDEST SWAP4 SWAP3 POP POP POP JUMP JUMPDEST PUSH1 0x80 MLOAD PUSH2 0x83A PUSH2 0x9F PUSH1 0x0 CODECOPY PUSH1 0x0 DUP2 DUP2 PUSH2 0x120 ADD MSTORE PUSH2 0x2AB ADD MSTORE PUSH2 0x83A PUSH1 0x0 RETURN INVALID PUSH1 0x80 PUSH1 0x40 MSTORE CALLVALUE DUP1 ISZERO PUSH2 0x10 JUMPI PUSH1 0x0 DUP1 REVERT JUMPDEST POP PUSH1 0x4 CALLDATASIZE LT PUSH2 0x7D JUMPI PUSH1 0x0 CALLDATALOAD PUSH1 0xE0 SHR DUP1 PUSH4 0x20C13B0B GT PUSH2 0x5B JUMPI DUP1 PUSH4 0x20C13B0B EQ PUSH2 0xFF JUMPI DUP1 PUSH4 0xA56DFE4A EQ PUSH2 0x112 JUMPI DUP1 PUSH4 0xC71187F0 EQ PUSH2 0x11B JUMPI DUP1 PUSH4 0xE4A30116 EQ PUSH2 0x167 JUMPI PUSH1 0x0 DUP1 REVERT JUMPDEST DUP1 PUSH4 0xC55699C EQ PUSH2 0x82 JUMPI DUP1 PUSH4 0x158EF93E EQ PUSH2 0x9E JUMPI DUP1 PUSH4 0x1626BA7E EQ PUSH2 0xBB JUMPI JUMPDEST PUSH1 0x0 DUP1 REVERT JUMPDEST PUSH2 0x8B PUSH1 0x1 SLOAD DUP2 JUMP JUMPDEST PUSH1 0x40 MLOAD SWAP1 DUP2 MSTORE PUSH1 0x20 ADD JUMPDEST PUSH1 0x40 MLOAD DUP1 SWAP2 SUB SWAP1 RETURN JUMPDEST PUSH1 0x0 SLOAD PUSH2 0xAB SWAP1 PUSH1 0xFF AND DUP2 JUMP JUMPDEST PUSH1 0x40 MLOAD SWAP1 ISZERO ISZERO DUP2 MSTORE PUSH1 0x20 ADD PUSH2 0x95 JUMP JUMPDEST PUSH2 0xCE PUSH2 0xC9 CALLDATASIZE PUSH1 0x4 PUSH2 0x4EE JUMP JUMPDEST PUSH2 0x17C JUMP JUMPDEST PUSH1 0x40 MLOAD PUSH32 0xFFFFFFFF00000000000000000000000000000000000000000000000000000000 SWAP1 SWAP2 AND DUP2 MSTORE PUSH1 0x20 ADD PUSH2 0x95 JUMP JUMPDEST PUSH2 0xCE PUSH2 0x10D CALLDATASIZE PUSH1 0x4 PUSH2 0x535 JUMP JUMPDEST PUSH2 0x1D1 JUMP JUMPDEST PUSH2 0x8B PUSH1 0x2 SLOAD DUP2 JUMP JUMPDEST PUSH2 0x142 PUSH32 0x0 DUP2 JUMP JUMPDEST PUSH1 0x40 MLOAD PUSH20 0xFFFFFFFFFFFFFFFFFFFFFFFFFFFFFFFFFFFFFFFF SWAP1 SWAP2 AND DUP2 MSTORE PUSH1 0x20 ADD PUSH2 0x95 JUMP JUMPDEST PUSH2 0x17A PUSH2 0x175 CALLDATASIZE PUSH1 0x4 PUSH2 0x58F JUMP JUMPDEST PUSH2 0x205 JUMP JUMPDEST STOP JUMPDEST PUSH1 0x0 PUSH2 0x1A9 DUP4 PUSH1 0x40 MLOAD PUSH1 0x20 ADD PUSH2 0x194 SWAP2 DUP2 MSTORE PUSH1 0x20 ADD SWAP1 JUMP JUMPDEST PUSH1 0x40 MLOAD PUSH1 0x20 DUP2 DUP4 SUB SUB DUP2 MSTORE SWAP1 PUSH1 0x40 MSTORE DUP4 PUSH2 0x279 JUMP JUMPDEST POP PUSH32 0x1626BA7E00000000000000000000000000000000000000000000000000000000 SWAP3 SWAP2 POP POP JUMP JUMPDEST PUSH1 0x0 PUSH2 0x1DD DUP4 DUP4 PUSH2 0x279 JUMP JUMPDEST POP PUSH32 0x20C13B0B00000000000000000000000000000000000000000000000000000000 SWAP3 SWAP2 POP POP JUMP JUMPDEST PUSH1 0x0 SLOAD PUSH1 0xFF AND ISZERO PUSH2 0x242 JUMPI PUSH1 0x40 MLOAD PUSH32 0xDC149F000000000000000000000000000000000000000000000000000000000 DUP2 MSTORE PUSH1 0x4 ADD PUSH1 0x40 MLOAD DUP1 SWAP2 SUB SWAP1 REVERT JUMPDEST PUSH1 0x0 DUP1 SLOAD PUSH32 0xFFFFFFFFFFFFFFFFFFFFFFFFFFFFFFFFFFFFFFFFFFFFFFFFFFFFFFFFFFFFFF00 AND PUSH1 0x1 SWAP1 DUP2 OR SWAP1 SWAP2 SSTORE SWAP2 SWAP1 SWAP2 SSTORE PUSH1 0x2 SSTORE JUMP JUMPDEST PUSH1 0x0 DUP3 DUP1 MLOAD SWAP1 PUSH1 0x20 ADD KECCAK256 SWAP1 POP PUSH1 0x0 DUP1 PUSH1 0x0 DUP1 DUP6 DUP1 PUSH1 0x20 ADD SWAP1 MLOAD DUP2 ADD SWAP1 PUSH2 0x29F SWAP2 SWAP1 PUSH2 0x622 JUMP JUMPDEST SWAP4 POP SWAP4 POP SWAP4 POP SWAP4 POP PUSH1 0x0 PUSH32 0x0 PUSH20 0xFFFFFFFFFFFFFFFFFFFFFFFFFFFFFFFFFFFFFFFF AND PUSH4 0xD5EFEC9 DUP7 PUSH1 0x1 DUP8 DUP11 DUP9 DUP9 PUSH1 0x40 MLOAD DUP1 PUSH1 0x40 ADD PUSH1 0x40 MSTORE DUP1 PUSH1 0x1 SLOAD DUP2 MSTORE PUSH1 0x20 ADD PUSH1 0x2 SLOAD DUP2 MSTORE POP PUSH1 0x40 MLOAD DUP9 PUSH4 0xFFFFFFFF AND PUSH1 0xE0 SHL DUP2 MSTORE PUSH1 0x4 ADD PUSH2 0x327 SWAP8 SWAP7 SWAP6 SWAP5 SWAP4 SWAP3 SWAP2 SWAP1 PUSH2 0x753 JUMP JUMPDEST PUSH1 0x20 PUSH1 0x40 MLOAD DUP1 DUP4 SUB DUP2 DUP7 GAS STATICCALL ISZERO DUP1 ISZERO PUSH2 0x344 JUMPI RETURNDATASIZE PUSH1 0x0 DUP1 RETURNDATACOPY RETURNDATASIZE PUSH1 0x0 REVERT JUMPDEST POP POP POP POP PUSH1 0x40 MLOAD RETURNDATASIZE PUSH1 0x1F NOT PUSH1 0x1F DUP3 ADD AND DUP3 ADD DUP1 PUSH1 0x40 MSTORE POP DUP2 ADD SWAP1 PUSH2 0x368 SWAP2 SWAP1 PUSH2 0x7DB JUMP JUMPDEST SWAP1 POP DUP1 PUSH2 0x3A1 JUMPI PUSH1 0x40 MLOAD PUSH32 0x8BAA579F00000000000000000000000000000000000000000000000000000000 DUP2 MSTORE PUSH1 0x4 ADD PUSH1 0x40 MLOAD DUP1 SWAP2 SUB SWAP1 REVERT JUMPDEST POP POP POP POP POP POP POP POP JUMP JUMPDEST PUSH32 0x4E487B7100000000000000000000000000000000000000000000000000000000 PUSH1 0x0 MSTORE PUSH1 0x41 PUSH1 0x4 MSTORE PUSH1 0x24 PUSH1 0x0 REVERT JUMPDEST PUSH1 0x40 DUP1 MLOAD SWAP1 DUP2 ADD PUSH8 0xFFFFFFFFFFFFFFFF DUP2 GT DUP3 DUP3 LT OR ISZERO PUSH2 0x3FD JUMPI PUSH2 0x3FD PUSH2 0x3AB JUMP JUMPDEST PUSH1 0x40 MSTORE SWAP1 JUMP JUMPDEST PUSH1 0x40 MLOAD PUSH1 0x1F DUP3 ADD PUSH32 0xFFFFFFFFFFFFFFFFFFFFFFFFFFFFFFFFFFFFFFFFFFFFFFFFFFFFFFFFFFFFFFE0 AND DUP2 ADD PUSH8 0xFFFFFFFFFFFFFFFF DUP2 GT DUP3 DUP3 LT OR ISZERO PUSH2 0x44A JUMPI PUSH2 0x44A PUSH2 0x3AB JUMP JUMPDEST PUSH1 0x40 MSTORE SWAP2 SWAP1 POP JUMP JUMPDEST PUSH1 0x0 PUSH8 0xFFFFFFFFFFFFFFFF DUP3 GT ISZERO PUSH2 0x46C JUMPI PUSH2 0x46C PUSH2 0x3AB JUMP JUMPDEST POP PUSH1 0x1F ADD PUSH32 0xFFFFFFFFFFFFFFFFFFFFFFFFFFFFFFFFFFFFFFFFFFFFFFFFFFFFFFFFFFFFFFE0 AND PUSH1 0x20 ADD SWAP1 JUMP JUMPDEST PUSH1 0x0 DUP3 PUSH1 0x1F DUP4 ADD SLT PUSH2 0x4A9 JUMPI PUSH1 0x0 DUP1 REVERT JUMPDEST DUP2 CALLDATALOAD PUSH2 0x4BC PUSH2 0x4B7 DUP3 PUSH2 0x452 JUMP JUMPDEST PUSH2 0x403 JUMP JUMPDEST DUP2 DUP2 MSTORE DUP5 PUSH1 0x20 DUP4 DUP7 ADD ADD GT ISZERO PUSH2 0x4D1 JUMPI PUSH1 0x0 DUP1 REVERT JUMPDEST DUP2 PUSH1 0x20 DUP6 ADD PUSH1 0x20 DUP4 ADD CALLDATACOPY PUSH1 0x0 SWAP2 DUP2 ADD PUSH1 0x20 ADD SWAP2 SWAP1 SWAP2 MSTORE SWAP4 SWAP3 POP POP POP JUMP JUMPDEST PUSH1 0x0 DUP1 PUSH1 0x40 DUP4 DUP6 SUB SLT ISZERO PUSH2 0x501 JUMPI PUSH1 0x0 DUP1 REVERT JUMPDEST DUP3 CALLDATALOAD SWAP2 POP PUSH1 0x20 DUP4 ADD CALLDATALOAD PUSH8 0xFFFFFFFFFFFFFFFF DUP2 GT ISZERO PUSH2 0x51F JUMPI PUSH1 0x0 DUP1 REVERT JUMPDEST PUSH2 0x52B DUP6 DUP3 DUP7 ADD PUSH2 0x498 JUMP JUMPDEST SWAP2 POP POP SWAP3 POP SWAP3 SWAP1 POP JUMP JUMPDEST PUSH1 0x0 DUP1 PUSH1 0x40 DUP4 DUP6 SUB SLT ISZERO PUSH2 0x548 JUMPI PUSH1 0x0 DUP1 REVERT JUMPDEST DUP3 CALLDATALOAD PUSH8 0xFFFFFFFFFFFFFFFF DUP1 DUP3 GT ISZERO PUSH2 0x560 JUMPI PUSH1 0x0 DUP1 REVERT JUMPDEST PUSH2 0x56C DUP7 DUP4 DUP8 ADD PUSH2 0x498 JUMP JUMPDEST SWAP4 POP PUSH1 0x20 DUP6 ADD CALLDATALOAD SWAP2 POP DUP1 DUP3 GT ISZERO PUSH2 0x582 JUMPI PUSH1 0x0 DUP1 REVERT JUMPDEST POP PUSH2 0x52B DUP6 DUP3 DUP7 ADD PUSH2 0x498 JUMP JUMPDEST PUSH1 0x0 DUP1 PUSH1 0x40 DUP4 DUP6 SUB SLT ISZERO PUSH2 0x5A2 JUMPI PUSH1 0x0 DUP1 REVERT JUMPDEST POP POP DUP1 CALLDATALOAD SWAP3 PUSH1 0x20 SWAP1 SWAP2 ADD CALLDATALOAD SWAP2 POP JUMP JUMPDEST PUSH1 0x0 JUMPDEST DUP4 DUP2 LT ISZERO PUSH2 0x5CC JUMPI DUP2 DUP2 ADD MLOAD DUP4 DUP3 ADD MSTORE PUSH1 0x20 ADD PUSH2 0x5B4 JUMP JUMPDEST POP POP PUSH1 0x0 SWAP2 ADD MSTORE JUMP JUMPDEST PUSH1 0x0 DUP3 PUSH1 0x1F DUP4 ADD SLT PUSH2 0x5E6 JUMPI PUSH1 0x0 DUP1 REVERT JUMPDEST DUP2 MLOAD PUSH2 0x5F4 PUSH2 0x4B7 DUP3 PUSH2 0x452 JUMP JUMPDEST DUP2 DUP2 MSTORE DUP5 PUSH1 0x20 DUP4 DUP7 ADD ADD GT ISZERO PUSH2 0x609 JUMPI PUSH1 0x0 DUP1 REVERT JUMPDEST PUSH2 0x61A DUP3 PUSH1 0x20 DUP4 ADD PUSH1 0x20 DUP8 ADD PUSH2 0x5B1 JUMP JUMPDEST SWAP5 SWAP4 POP POP POP POP JUMP JUMPDEST PUSH1 0x0 DUP1 PUSH1 0x0 DUP1 PUSH1 0xA0 DUP6 DUP8 SUB SLT ISZERO PUSH2 0x638 JUMPI PUSH1 0x0 DUP1 REVERT JUMPDEST DUP5 MLOAD PUSH8 0xFFFFFFFFFFFFFFFF DUP1 DUP3 GT ISZERO PUSH2 0x650 JUMPI PUSH1 0x0 DUP1 REVERT JUMPDEST PUSH2 0x65C DUP9 DUP4 DUP10 ADD PUSH2 0x5D5 JUMP JUMPDEST SWAP6 POP PUSH1 0x20 SWAP2 POP DUP2 DUP8 ADD MLOAD DUP2 DUP2 GT ISZERO PUSH2 0x673 JUMPI PUSH1 0x0 DUP1 REVERT JUMPDEST PUSH2 0x67F DUP10 DUP3 DUP11 ADD PUSH2 0x5D5 JUMP JUMPDEST SWAP6 POP POP POP PUSH1 0x40 DUP7 ADD MLOAD SWAP3 POP DUP7 PUSH1 0x7F DUP8 ADD SLT PUSH2 0x699 JUMPI PUSH1 0x0 DUP1 REVERT JUMPDEST PUSH2 0x6A1 PUSH2 0x3DA JUMP JUMPDEST DUP1 PUSH1 0xA0 DUP9 ADD DUP10 DUP2 GT ISZERO PUSH2 0x6B3 JUMPI PUSH1 0x0 DUP1 REVERT JUMPDEST PUSH1 0x60 DUP10 ADD JUMPDEST DUP2 DUP2 LT ISZERO PUSH2 0x6CF JUMPI DUP1 MLOAD DUP5 MSTORE SWAP3 DUP5 ADD SWAP3 DUP5 ADD PUSH2 0x6B8 JUMP JUMPDEST POP POP DUP1 SWAP4 POP POP POP POP SWAP3 SWAP6 SWAP2 SWAP5 POP SWAP3 POP JUMP JUMPDEST PUSH1 0x0 DUP2 MLOAD DUP1 DUP5 MSTORE PUSH2 0x6F8 DUP2 PUSH1 0x20 DUP7 ADD PUSH1 0x20 DUP7 ADD PUSH2 0x5B1 JUMP JUMPDEST PUSH1 0x1F ADD PUSH32 0xFFFFFFFFFFFFFFFFFFFFFFFFFFFFFFFFFFFFFFFFFFFFFFFFFFFFFFFFFFFFFFE0 AND SWAP3 SWAP1 SWAP3 ADD PUSH1 0x20 ADD SWAP3 SWAP2 POP POP JUMP JUMPDEST DUP1 PUSH1 0x0 JUMPDEST PUSH1 0x2 DUP2 LT ISZERO PUSH2 0x74D JUMPI DUP2 MLOAD DUP5 MSTORE PUSH1 0x20 SWAP4 DUP5 ADD SWAP4 SWAP1 SWAP2 ADD SWAP1 PUSH1 0x1 ADD PUSH2 0x72E JUMP JUMPDEST POP POP POP POP JUMP JUMPDEST PUSH1 0x0 PUSH2 0x120 DUP1 DUP4 MSTORE PUSH2 0x767 DUP2 DUP5 ADD DUP12 PUSH2 0x6E0 JUMP JUMPDEST SWAP1 POP PUSH32 0xFF00000000000000000000000000000000000000000000000000000000000000 DUP10 PUSH1 0xF8 SHL AND PUSH1 0x20 DUP5 ADD MSTORE DUP3 DUP2 SUB PUSH1 0x40 DUP5 ADD MSTORE PUSH2 0x7A6 DUP2 DUP10 PUSH2 0x6E0 JUMP JUMPDEST SWAP2 POP POP DUP6 PUSH1 0x60 DUP4 ADD MSTORE DUP5 PUSH1 0x80 DUP4 ADD MSTORE PUSH2 0x7C2 PUSH1 0xA0 DUP4 ADD DUP6 PUSH2 0x72A JUMP JUMPDEST PUSH2 0x7CF PUSH1 0xE0 DUP4 ADD DUP5 PUSH2 0x72A JUMP JUMPDEST SWAP9 SWAP8 POP POP POP POP POP POP POP POP JUMP JUMPDEST PUSH1 0x0 PUSH1 0x20 DUP3 DUP5 SUB SLT ISZERO PUSH2 0x7ED JUMPI PUSH1 0x0 DUP1 REVERT JUMPDEST DUP2 MLOAD DUP1 ISZERO ISZERO DUP2 EQ PUSH2 0x7FD JUMPI PUSH1 0x0 DUP1 REVERT JUMPDEST SWAP4 SWAP3 POP POP POP JUMP INVALID LOG2 PUSH5 0x6970667358 0x22 SLT KECCAK256 0xE2 GASLIMIT SWAP9 DUP5 MULMOD PUSH12 0x6098F1AB893E1294550F8A6F CHAINID 0xAC EQ EQ CALL EXTCODEHASH 0x4B LOG4 CALLCODE PUSH13 0xFBFBFFE664736F6C6343000814 STOP CALLER "},"gasEstimates":{"creation":{"codeDepositCost":"421200","executionCost":"infinite","totalCost":"infinite"},"external":{"FCLWebAuthn()":"infinite","initialize(uint256,uint256)":"70878","initialized()":"2333","isValidSignature(bytes,bytes)":"infinite","isValidSignature(bytes32,bytes)":"infinite","x()":"2285","y()":"2306"},"internal":{"_validate(bytes memory,bytes memory)":"infinite"}},"methodIdentifiers":{"FCLWebAuthn()":"c71187f0","initialize(uint256,uint256)":"e4a30116","initialized()":"158ef93e","isValidSignature(bytes,bytes)":"20c13b0b","isValidSignature(bytes32,bytes)":"1626ba7e","x()":"0c55699c","y()":"a56dfe4a"}},"storageLayout":{"storage":[{"astId":1992,"contract":"contracts/P256Signer.sol:P256Signer","label":"initialized","offset":0,"slot":"0","type":"t_bool"},{"astId":1995,"contract":"contracts/P256Signer.sol:P256Signer","label":"x","offset":0,"slot":"1","type":"t_uint256"},{"astId":1998,"contract":"contracts/P256Signer.sol:P256Signer","label":"y","offset":0,"slot":"2","type":"t_uint256"}],"types":{"t_bool":{"encoding":"inplace","label":"bool","numberOfBytes":"1"},"t_uint256":{"encoding":"inplace","label":"uint256","numberOfBytes":"32"}}},"userdoc":{"errors":{"AlreadyInitialized()":[{"notice":"Error message when the contract is already initialized"}],"InvalidHash()":[{"notice":"Error message when the hash is invalid"}],"InvalidSignature()":[{"notice":"Error message when the signature is invalid"}]},"kind":"user","methods":{"initialized()":{"notice":"Whether the contract has been initialized"},"isValidSignature(bytes,bytes)":{"notice":"Verifies that the signer is the owner of the secp256r1 public key."},"isValidSignature(bytes32,bytes)":{"notice":"Verifies that the signer is the owner of the secp256r1 public key."},"x()":{"notice":"The x coordinate of the secp256r1 public key"},"y()":{"notice":"The y coordinate of the secp256r1 public key"}},"notice":"A contract used to verify ECDSA signatures over secp256r1 through         EIP-1271 of Webauthn payloads.","version":1}}}}