{"contracts/Webauthn.sol":{"Webauthn":{"abi":[{"inputs":[],"name":"InvalidAuthenticatorData","type":"error"},{"inputs":[],"name":"InvalidClientData","type":"error"},{"inputs":[{"internalType":"bytes","name":"authenticatorData","type":"bytes"},{"internalType":"bytes1","name":"authenticatorDataFlagMask","type":"bytes1"},{"internalType":"bytes","name":"clientData","type":"bytes"},{"internalType":"bytes32","name":"clientChallenge","type":"bytes32"},{"internalType":"uint256","name":"clientChallengeDataOffset","type":"uint256"},{"internalType":"uint256[2]","name":"rs","type":"uint256[2]"},{"internalType":"uint256[2]","name":"Q","type":"uint256[2]"}],"name":"checkSignature","outputs":[{"internalType":"bool","name":"","type":"bool"}],"stateMutability":"view","type":"function"}],"devdoc":{"kind":"dev","methods":{},"version":1},"evm":{"bytecode":{"linkReferences":{},"object":"611c2961003a600b82828239805160001a60731461002d57634e487b7160e01b600052600060045260246000fd5b30600052607381538281f3fe73000000000000000000000000000000000000000030146080604052600436106100355760003560e01c80630d5efec91461003a575b600080fd5b61004d6100483660046119c0565b610061565b604051901515815260200160405180910390f35b6000867effffffffffffffffffffffffffffffffffffffffffffffffffffffffffffff1916878960208151811061009a5761009a611a95565b0160200151167fff0000000000000000000000000000000000000000000000000000000000000016146100f9576040517ffc93479200000000000000000000000000000000000000000000000000000000815260040160405180910390fd5b60006101258660405160200161011191815260200190565b60405160208183030381529060405261035b565b90506000815167ffffffffffffffff81111561014357610143611876565b6040519080825280601f01601f19166020018201604052801561016d576020820181803683370190505b50905061017f88878351846000610484565b50806040516020016101919190611ac4565b60405160208183030381529060405280519060200120826040516020016101b89190611ac4565b6040516020818303038152906040528051906020012014610205576040517febab5d2900000000000000000000000000000000000000000000000000000000815260040160405180910390fd5b60008a5160206102159190611b22565b67ffffffffffffffff81111561022d5761022d611876565b6040519080825280601f01601f191660200182016040528015610257576020820181803683370190505b50905061026a8b60008d51846000610484565b506102eb60028a60405161027e9190611ac4565b602060405180830381855afa15801561029b573d6000803e3d6000fd5b5050506040513d601f19601f820116820180604052508101906102be9190611b35565b6040516020016102d091815260200190565b60405160208183030381529060405260006020848f51610484565b5060006002826040516102fe9190611ac4565b602060405180830381855afa15801561031b573d6000803e3d6000fd5b5050506040513d601f19601f8201168201806040525081019061033e9190611b35565b905061034b818888610512565b9c9b505050505050505050505050565b6060815160000361037a57505060408051602081019091526000815290565b6000604051806060016040528060408152602001611bb4604091399050600060016003855160026103ab9190611b22565b6103b59190611b4e565b6103c0906004611b89565b6103ca9190611ba0565b67ffffffffffffffff8111156103e2576103e2611876565b6040519080825280601f01601f19166020018201604052801561040c576020820181803683370190505b509050600182016020820185865187015b80821015610478576003820191508151603f8160121c168501518453600184019350603f81600c1c168501518453600184019350603f8160061c168501518453600184019350603f811685015184535060018301925061041d565b50929695505050505050565b606060006104928386611b22565b905080845110156104a257600080fd5b60006104af876020611b22565b905060006104be856020611b22565b90505b866104cd896020611b22565b6104d79190611b22565b8210156105055788820151868201526104f1602083611b22565b91506104fe602082611b22565b90506104c1565b5093979650505050505050565b81516000901580610544575082517fffffffff00000000ffffffffffffffffbce6faada7179e84f3b9cac2fc63255111155b8061055157506020830151155b80610580575060208301517fffffffff00000000ffffffffffffffffbce6faada7179e84f3b9cac2fc63255111155b1561058d575060006106a7565b8151602083015161059e91906106ae565b6105aa575060006106a7565b60006105e684600160200201516105e1907fffffffff00000000ffffffffffffffffbce6faada7179e84f3b9cac2fc632551611ba0565b610827565b905060007fffffffff00000000ffffffffffffffffbce6faada7179e84f3b9cac2fc632551828709905060007fffffffff00000000ffffffffffffffffbce6faada7179e84f3b9cac2fc6325518387600060200201510985516020870151919250600091610656919085856108b0565b90507fffffffff00000000ffffffffffffffffbce6faada7179e84f3b9cac2fc63255187517fffffffff00000000ffffffffffffffffbce6faada7179e84f3b9cac2fc632551038208159450505050505b9392505050565b60008215806106dc57507fffffffff00000001000000000000000000000000ffffffffffffffffffffffff83145b806106e5575081155b8061070f57507fffffffff00000001000000000000000000000000ffffffffffffffffffffffff82145b1561071c57506000610821565b60007fffffffff00000001000000000000000000000000ffffffffffffffffffffffff838409905060007fffffffff00000001000000000000000000000000ffffffffffffffffffffffff807fffffffff00000001000000000000000000000000fffffffffffffffffffffffc87097fffffffff00000001000000000000000000000000ffffffffffffffffffffffff877fffffffff00000001000000000000000000000000ffffffffffffffffffffffff898a09090890507fffffffff00000001000000000000000000000000ffffffffffffffffffffffff7f5ac635d8aa3a93e7b3ebbd55769886bc651d06b0cc53b0f63bce3c3e27d2604b8208919091149150505b92915050565b6000610831611858565b60208152602080820152602060408201528260608201527fffffffff00000000ffffffffffffffffbce6faada7179e84f3b9cac2fc63254f60808201527fffffffff00000000ffffffffffffffffbce6faada7179e84f3b9cac2fc63255160a082015260208160c0836005600019fa6108a957600080fd5b5192915050565b600080808060ff6108bf611858565b600080891580156108ce575088155b156108e35760009750505050505050506113f6565b61092f7f6b17d1f2e12c4247f8bce6e563a440f277037d812deb33a0f4a13945d898c2967f4fe342e2fe1a7f9b8ee7eb4a7c0f9e162bce33576b315ececbb6406837bf51f58e8e6113fe565b809250819350505060018a851c1660018a861c1660011b015b8061096a5760018503945060018b861c1660018b871c1660011b019050610948565b5060018a851c1660018a861c1660011b019650600187036109cc577f6b17d1f2e12c4247f8bce6e563a440f277037d812deb33a0f4a13945d898c29697507f4fe342e2fe1a7f9b8ee7eb4a7c0f9e162bce33576b315ececbb6406837bf51f594505b600287036109db578b97508a94505b600387036109ea578197508094505b60018403935060019650600195505b837fffffffffffffffffffffffffffffffffffffffffffffffffffffffffffffffff111561134f577fffffffff00000001000000000000000000000000ffffffffffffffffffffffff856002097fffffffff00000001000000000000000000000000ffffffffffffffffffffffff8182097fffffffff00000001000000000000000000000000ffffffffffffffffffffffff818b097fffffffff00000001000000000000000000000000ffffffffffffffffffffffff82840992507fffffffff00000001000000000000000000000000ffffffffffffffffffffffff807fffffffff00000001000000000000000000000000ffffffffffffffffffffffff8c8e087fffffffff00000001000000000000000000000000ffffffffffffffffffffffff8d7fffffffff00000001000000000000000000000000ffffffffffffffffffffffff038f08096003097fffffffff00000001000000000000000000000000ffffffffffffffffffffffff8a850999507fffffffff00000001000000000000000000000000ffffffffffffffffffffffff8b84099a507fffffffff00000001000000000000000000000000ffffffffffffffffffffffff80837fffffffff00000001000000000000000000000000fffffffffffffffffffffffd097fffffffff00000001000000000000000000000000ffffffffffffffffffffffff838409089b507fffffffff00000001000000000000000000000000ffffffffffffffffffffffff80837fffffffff00000001000000000000000000000000ffffffffffffffffffffffff038e08820992507fffffffff00000001000000000000000000000000ffffffffffffffffffffffff837fffffffff00000001000000000000000000000000ffffffffffffffffffffffff8b870908985060018e891c1660018e8a1c1660011b01905080610cd557887fffffffff00000001000000000000000000000000ffffffffffffffffffffffff03985050505050611344565b60018103610d24577f6b17d1f2e12c4247f8bce6e563a440f277037d812deb33a0f4a13945d898c29693507f4fe342e2fe1a7f9b8ee7eb4a7c0f9e162bce33576b315ececbb6406837bf51f592505b60028103610d33578f93508e92505b60038103610d42578593508492505b7fffffffff00000001000000000000000000000000ffffffffffffffffffffffff897fffffffff00000001000000000000000000000000ffffffffffffffffffffffff8c8609087fffffffff00000001000000000000000000000000ffffffffffffffffffffffff8d7fffffffff00000001000000000000000000000000ffffffffffffffffffffffff037fffffffff00000001000000000000000000000000ffffffffffffffffffffffff8e88090893508061113d578361113d577fffffffff00000001000000000000000000000000ffffffffffffffffffffffff8a60020994507fffffffff00000001000000000000000000000000ffffffffffffffffffffffff85860993507fffffffff00000001000000000000000000000000ffffffffffffffffffffffff848e0992507fffffffff00000001000000000000000000000000ffffffffffffffffffffffff8486097fffffffff00000001000000000000000000000000ffffffffffffffffffffffff8d8f0891507fffffffff00000001000000000000000000000000ffffffffffffffffffffffff8d7fffffffff00000001000000000000000000000000ffffffffffffffffffffffff038f0890507fffffffff00000001000000000000000000000000ffffffffffffffffffffffff8183099150507fffffffff00000001000000000000000000000000ffffffffffffffffffffffff8c8e0893507fffffffff00000001000000000000000000000000ffffffffffffffffffffffff8c7fffffffff00000001000000000000000000000000ffffffffffffffffffffffff038e0894507fffffffff00000001000000000000000000000000ffffffffffffffffffffffff84860993507fffffffff00000001000000000000000000000000ffffffffffffffffffffffff8460030991507fffffffff00000001000000000000000000000000ffffffffffffffffffffffff8b86099a507fffffffff00000001000000000000000000000000ffffffffffffffffffffffff8c85099b507fffffffff00000001000000000000000000000000ffffffffffffffffffffffff80847fffffffff00000001000000000000000000000000fffffffffffffffffffffffd097fffffffff00000001000000000000000000000000ffffffffffffffffffffffff848509089c507fffffffff00000001000000000000000000000000ffffffffffffffffffffffff808e7fffffffff00000001000000000000000000000000ffffffffffffffffffffffff038508830993507fffffffff00000001000000000000000000000000ffffffffffffffffffffffff808b87097fffffffff00000001000000000000000000000000ffffffffffffffffffffffff03850899505050505050611344565b7fffffffff00000001000000000000000000000000ffffffffffffffffffffffff84850991507fffffffff00000001000000000000000000000000ffffffffffffffffffffffff8483097fffffffff00000001000000000000000000000000ffffffffffffffffffffffff838e099c507fffffffff00000001000000000000000000000000ffffffffffffffffffffffff818d099b507fffffffff00000001000000000000000000000000ffffffffffffffffffffffff838f097fffffffff00000001000000000000000000000000ffffffffffffffffffffffff80827fffffffff00000001000000000000000000000000fffffffffffffffffffffffd097fffffffff00000001000000000000000000000000ffffffffffffffffffffffff847fffffffff00000001000000000000000000000000ffffffffffffffffffffffff037fffffffff00000001000000000000000000000000ffffffffffffffffffffffff878809080893507fffffffff00000001000000000000000000000000ffffffffffffffffffffffff80838e097fffffffff00000001000000000000000000000000ffffffffffffffffffffffff857fffffffff00000001000000000000000000000000ffffffffffffffffffffffff887fffffffff00000001000000000000000000000000ffffffffffffffffffffffff03860809089b50505050809b50505050505b6001840393506109f9565b86606084015260208352602080840152602060408401527fffffffff00000001000000000000000000000000fffffffffffffffffffffffd60808401527fffffffff00000001000000000000000000000000ffffffffffffffffffffffff60a084015260208360c0856005600019fa6113c757600080fd5b7fffffffff00000001000000000000000000000000ffffffffffffffffffffffff835189099750505050505050505b949350505050565b600080808086611415578585935093505050611453565b84611427578585935093505050611453565b61143688886001808a8a61145c565b929a509098509250905061144c88888484611721565b9350935050505b94509492505050565b6000806000808860000361147b57508492508391506001905080611714565b7fffffffff00000001000000000000000000000000ffffffffffffffffffffffff9889039889818988090894507fffffffff00000001000000000000000000000000ffffffffffffffffffffffff8a7fffffffff00000001000000000000000000000000ffffffffffffffffffffffff037fffffffff00000001000000000000000000000000ffffffffffffffffffffffff8a89090895507fffffffff00000001000000000000000000000000ffffffffffffffffffffffff86870993507fffffffff00000001000000000000000000000000ffffffffffffffffffffffff86850992507fffffffff00000001000000000000000000000000ffffffffffffffffffffffff84890991507fffffffff00000001000000000000000000000000ffffffffffffffffffffffff83880990507fffffffff00000001000000000000000000000000ffffffffffffffffffffffff848b0997507fffffffff00000001000000000000000000000000ffffffffffffffffffffffff80897fffffffff00000001000000000000000000000000fffffffffffffffffffffffd097fffffffff00000001000000000000000000000000ffffffffffffffffffffffff857fffffffff00000001000000000000000000000000ffffffffffffffffffffffff037fffffffff00000001000000000000000000000000ffffffffffffffffffffffff898a09080893507fffffffff00000001000000000000000000000000ffffffffffffffffffffffff80848b097fffffffff00000001000000000000000000000000ffffffffffffffffffffffff877fffffffff00000001000000000000000000000000ffffffffffffffffffffffff887fffffffff00000001000000000000000000000000ffffffffffffffffffffffff038d08090892505b9650965096509692505050565b600080600061172f846117d6565b90507fffffffff00000001000000000000000000000000ffffffffffffffffffffffff818709915060007fffffffff00000001000000000000000000000000ffffffffffffffffffffffff82870990507fffffffff00000001000000000000000000000000ffffffffffffffffffffffff81820991507fffffffff00000001000000000000000000000000ffffffffffffffffffffffff8289099350505094509492505050565b60006117e0611858565b60208152602080820152602060408201528260608201527fffffffff00000001000000000000000000000000fffffffffffffffffffffffd60808201527fffffffff00000001000000000000000000000000ffffffffffffffffffffffff60a082015260208160c0836005600019fa6108a957600080fd5b6040518060c001604052806006906020820280368337509192915050565b7f4e487b7100000000000000000000000000000000000000000000000000000000600052604160045260246000fd5b600082601f8301126118b657600080fd5b813567ffffffffffffffff808211156118d1576118d1611876565b604051601f83017fffffffffffffffffffffffffffffffffffffffffffffffffffffffffffffffe0908116603f0116810190828211818310171561191757611917611876565b8160405283815286602085880101111561193057600080fd5b836020870160208301376000602085830101528094505050505092915050565b600082601f83011261196157600080fd5b6040516040810181811067ffffffffffffffff8211171561198457611984611876565b806040525080604084018581111561199b57600080fd5b845b818110156119b557803583526020928301920161199d565b509195945050505050565b6000806000806000806000610120888a0312156119dc57600080fd5b873567ffffffffffffffff808211156119f457600080fd5b611a008b838c016118a5565b985060208a013591507fff0000000000000000000000000000000000000000000000000000000000000082168214611a3757600080fd5b90965060408901359080821115611a4d57600080fd5b50611a5a8a828b016118a5565b9550506060880135935060808801359250611a788960a08a01611950565b9150611a878960e08a01611950565b905092959891949750929550565b7f4e487b7100000000000000000000000000000000000000000000000000000000600052603260045260246000fd5b6000825160005b81811015611ae55760208186018101518583015201611acb565b506000920191825250919050565b7f4e487b7100000000000000000000000000000000000000000000000000000000600052601160045260246000fd5b8082018082111561082157610821611af3565b600060208284031215611b4757600080fd5b5051919050565b600082611b84577f4e487b7100000000000000000000000000000000000000000000000000000000600052601260045260246000fd5b500490565b808202811582820484141761082157610821611af3565b8181038181111561082157610821611af356fe4142434445464748494a4b4c4d4e4f505152535455565758595a6162636465666768696a6b6c6d6e6f707172737475767778797a303132333435363738392d5fa26469706673582212206ade7dd0b613234b411942fd561d291ed8cd89909a7311a3a3ae85f64afb2b9d64736f6c63430008110033","opcodes":"PUSH2 0x1C29 PUSH2 0x3A PUSH1 0xB DUP3 DUP3 DUP3 CODECOPY DUP1 MLOAD PUSH1 0x0 BYTE PUSH1 0x73 EQ PUSH2 0x2D JUMPI PUSH4 0x4E487B71 PUSH1 0xE0 SHL PUSH1 0x0 MSTORE PUSH1 0x0 PUSH1 0x4 MSTORE PUSH1 0x24 PUSH1 0x0 REVERT JUMPDEST ADDRESS PUSH1 0x0 MSTORE PUSH1 0x73 DUP2 MSTORE8 DUP3 DUP2 RETURN INVALID PUSH20 0x0 ADDRESS EQ PUSH1 0x80 PUSH1 0x40 MSTORE PUSH1 0x4 CALLDATASIZE LT PUSH2 0x35 JUMPI PUSH1 0x0 CALLDATALOAD PUSH1 0xE0 SHR DUP1 PUSH4 0xD5EFEC9 EQ PUSH2 0x3A JUMPI JUMPDEST PUSH1 0x0 DUP1 REVERT JUMPDEST PUSH2 0x4D PUSH2 0x48 CALLDATASIZE PUSH1 0x4 PUSH2 0x19C0 JUMP JUMPDEST PUSH2 0x61 JUMP JUMPDEST PUSH1 0x40 MLOAD SWAP1 ISZERO ISZERO DUP2 MSTORE PUSH1 0x20 ADD PUSH1 0x40 MLOAD DUP1 SWAP2 SUB SWAP1 RETURN JUMPDEST PUSH1 0x0 DUP7 PUSH31 0xFFFFFFFFFFFFFFFFFFFFFFFFFFFFFFFFFFFFFFFFFFFFFFFFFFFFFFFFFFFFFF NOT AND DUP8 DUP10 PUSH1 0x20 DUP2 MLOAD DUP2 LT PUSH2 0x9A JUMPI PUSH2 0x9A PUSH2 0x1A95 JUMP JUMPDEST ADD PUSH1 0x20 ADD MLOAD AND PUSH32 0xFF00000000000000000000000000000000000000000000000000000000000000 AND EQ PUSH2 0xF9 JUMPI PUSH1 0x40 MLOAD PUSH32 0xFC93479200000000000000000000000000000000000000000000000000000000 DUP2 MSTORE PUSH1 0x4 ADD PUSH1 0x40 MLOAD DUP1 SWAP2 SUB SWAP1 REVERT JUMPDEST PUSH1 0x0 PUSH2 0x125 DUP7 PUSH1 0x40 MLOAD PUSH1 0x20 ADD PUSH2 0x111 SWAP2 DUP2 MSTORE PUSH1 0x20 ADD SWAP1 JUMP JUMPDEST PUSH1 0x40 MLOAD PUSH1 0x20 DUP2 DUP4 SUB SUB DUP2 MSTORE SWAP1 PUSH1 0x40 MSTORE PUSH2 0x35B JUMP JUMPDEST SWAP1 POP PUSH1 0x0 DUP2 MLOAD PUSH8 0xFFFFFFFFFFFFFFFF DUP2 GT ISZERO PUSH2 0x143 JUMPI PUSH2 0x143 PUSH2 0x1876 JUMP JUMPDEST PUSH1 0x40 MLOAD SWAP1 DUP1 DUP3 MSTORE DUP1 PUSH1 0x1F ADD PUSH1 0x1F NOT AND PUSH1 0x20 ADD DUP3 ADD PUSH1 0x40 MSTORE DUP1 ISZERO PUSH2 0x16D JUMPI PUSH1 0x20 DUP3 ADD DUP2 DUP1 CALLDATASIZE DUP4 CALLDATACOPY ADD SWAP1 POP JUMPDEST POP SWAP1 POP PUSH2 0x17F DUP9 DUP8 DUP4 MLOAD DUP5 PUSH1 0x0 PUSH2 0x484 JUMP JUMPDEST POP DUP1 PUSH1 0x40 MLOAD PUSH1 0x20 ADD PUSH2 0x191 SWAP2 SWAP1 PUSH2 0x1AC4 JUMP JUMPDEST PUSH1 0x40 MLOAD PUSH1 0x20 DUP2 DUP4 SUB SUB DUP2 MSTORE SWAP1 PUSH1 0x40 MSTORE DUP1 MLOAD SWAP1 PUSH1 0x20 ADD KECCAK256 DUP3 PUSH1 0x40 MLOAD PUSH1 0x20 ADD PUSH2 0x1B8 SWAP2 SWAP1 PUSH2 0x1AC4 JUMP JUMPDEST PUSH1 0x40 MLOAD PUSH1 0x20 DUP2 DUP4 SUB SUB DUP2 MSTORE SWAP1 PUSH1 0x40 MSTORE DUP1 MLOAD SWAP1 PUSH1 0x20 ADD KECCAK256 EQ PUSH2 0x205 JUMPI PUSH1 0x40 MLOAD PUSH32 0xEBAB5D2900000000000000000000000000000000000000000000000000000000 DUP2 MSTORE PUSH1 0x4 ADD PUSH1 0x40 MLOAD DUP1 SWAP2 SUB SWAP1 REVERT JUMPDEST PUSH1 0x0 DUP11 MLOAD PUSH1 0x20 PUSH2 0x215 SWAP2 SWAP1 PUSH2 0x1B22 JUMP JUMPDEST PUSH8 0xFFFFFFFFFFFFFFFF DUP2 GT ISZERO PUSH2 0x22D JUMPI PUSH2 0x22D PUSH2 0x1876 JUMP JUMPDEST PUSH1 0x40 MLOAD SWAP1 DUP1 DUP3 MSTORE DUP1 PUSH1 0x1F ADD PUSH1 0x1F NOT AND PUSH1 0x20 ADD DUP3 ADD PUSH1 0x40 MSTORE DUP1 ISZERO PUSH2 0x257 JUMPI PUSH1 0x20 DUP3 ADD DUP2 DUP1 CALLDATASIZE DUP4 CALLDATACOPY ADD SWAP1 POP JUMPDEST POP SWAP1 POP PUSH2 0x26A DUP12 PUSH1 0x0 DUP14 MLOAD DUP5 PUSH1 0x0 PUSH2 0x484 JUMP JUMPDEST POP PUSH2 0x2EB PUSH1 0x2 DUP11 PUSH1 0x40 MLOAD PUSH2 0x27E SWAP2 SWAP1 PUSH2 0x1AC4 JUMP JUMPDEST PUSH1 0x20 PUSH1 0x40 MLOAD DUP1 DUP4 SUB DUP2 DUP6 GAS STATICCALL ISZERO DUP1 ISZERO PUSH2 0x29B JUMPI RETURNDATASIZE PUSH1 0x0 DUP1 RETURNDATACOPY RETURNDATASIZE PUSH1 0x0 REVERT JUMPDEST POP POP POP PUSH1 0x40 MLOAD RETURNDATASIZE PUSH1 0x1F NOT PUSH1 0x1F DUP3 ADD AND DUP3 ADD DUP1 PUSH1 0x40 MSTORE POP DUP2 ADD SWAP1 PUSH2 0x2BE SWAP2 SWAP1 PUSH2 0x1B35 JUMP JUMPDEST PUSH1 0x40 MLOAD PUSH1 0x20 ADD PUSH2 0x2D0 SWAP2 DUP2 MSTORE PUSH1 0x20 ADD SWAP1 JUMP JUMPDEST PUSH1 0x40 MLOAD PUSH1 0x20 DUP2 DUP4 SUB SUB DUP2 MSTORE SWAP1 PUSH1 0x40 MSTORE PUSH1 0x0 PUSH1 0x20 DUP5 DUP16 MLOAD PUSH2 0x484 JUMP JUMPDEST POP PUSH1 0x0 PUSH1 0x2 DUP3 PUSH1 0x40 MLOAD PUSH2 0x2FE SWAP2 SWAP1 PUSH2 0x1AC4 JUMP JUMPDEST PUSH1 0x20 PUSH1 0x40 MLOAD DUP1 DUP4 SUB DUP2 DUP6 GAS STATICCALL ISZERO DUP1 ISZERO PUSH2 0x31B JUMPI RETURNDATASIZE PUSH1 0x0 DUP1 RETURNDATACOPY RETURNDATASIZE PUSH1 0x0 REVERT JUMPDEST POP POP POP PUSH1 0x40 MLOAD RETURNDATASIZE PUSH1 0x1F NOT PUSH1 0x1F DUP3 ADD AND DUP3 ADD DUP1 PUSH1 0x40 MSTORE POP DUP2 ADD SWAP1 PUSH2 0x33E SWAP2 SWAP1 PUSH2 0x1B35 JUMP JUMPDEST SWAP1 POP PUSH2 0x34B DUP2 DUP9 DUP9 PUSH2 0x512 JUMP JUMPDEST SWAP13 SWAP12 POP POP POP POP POP POP POP POP POP POP POP POP JUMP JUMPDEST PUSH1 0x60 DUP2 MLOAD PUSH1 0x0 SUB PUSH2 0x37A JUMPI POP POP PUSH1 0x40 DUP1 MLOAD PUSH1 0x20 DUP2 ADD SWAP1 SWAP2 MSTORE PUSH1 0x0 DUP2 MSTORE SWAP1 JUMP JUMPDEST PUSH1 0x0 PUSH1 0x40 MLOAD DUP1 PUSH1 0x60 ADD PUSH1 0x40 MSTORE DUP1 PUSH1 0x40 DUP2 MSTORE PUSH1 0x20 ADD PUSH2 0x1BB4 PUSH1 0x40 SWAP2 CODECOPY SWAP1 POP PUSH1 0x0 PUSH1 0x1 PUSH1 0x3 DUP6 MLOAD PUSH1 0x2 PUSH2 0x3AB SWAP2 SWAP1 PUSH2 0x1B22 JUMP JUMPDEST PUSH2 0x3B5 SWAP2 SWAP1 PUSH2 0x1B4E JUMP JUMPDEST PUSH2 0x3C0 SWAP1 PUSH1 0x4 PUSH2 0x1B89 JUMP JUMPDEST PUSH2 0x3CA SWAP2 SWAP1 PUSH2 0x1BA0 JUMP JUMPDEST PUSH8 0xFFFFFFFFFFFFFFFF DUP2 GT ISZERO PUSH2 0x3E2 JUMPI PUSH2 0x3E2 PUSH2 0x1876 JUMP JUMPDEST PUSH1 0x40 MLOAD SWAP1 DUP1 DUP3 MSTORE DUP1 PUSH1 0x1F ADD PUSH1 0x1F NOT AND PUSH1 0x20 ADD DUP3 ADD PUSH1 0x40 MSTORE DUP1 ISZERO PUSH2 0x40C JUMPI PUSH1 0x20 DUP3 ADD DUP2 DUP1 CALLDATASIZE DUP4 CALLDATACOPY ADD SWAP1 POP JUMPDEST POP SWAP1 POP PUSH1 0x1 DUP3 ADD PUSH1 0x20 DUP3 ADD DUP6 DUP7 MLOAD DUP8 ADD JUMPDEST DUP1 DUP3 LT ISZERO PUSH2 0x478 JUMPI PUSH1 0x3 DUP3 ADD SWAP2 POP DUP2 MLOAD PUSH1 0x3F DUP2 PUSH1 0x12 SHR AND DUP6 ADD MLOAD DUP5 MSTORE8 PUSH1 0x1 DUP5 ADD SWAP4 POP PUSH1 0x3F DUP2 PUSH1 0xC SHR AND DUP6 ADD MLOAD DUP5 MSTORE8 PUSH1 0x1 DUP5 ADD SWAP4 POP PUSH1 0x3F DUP2 PUSH1 0x6 SHR AND DUP6 ADD MLOAD DUP5 MSTORE8 PUSH1 0x1 DUP5 ADD SWAP4 POP PUSH1 0x3F DUP2 AND DUP6 ADD MLOAD DUP5 MSTORE8 POP PUSH1 0x1 DUP4 ADD SWAP3 POP PUSH2 0x41D JUMP JUMPDEST POP SWAP3 SWAP7 SWAP6 POP POP POP POP POP POP JUMP JUMPDEST PUSH1 0x60 PUSH1 0x0 PUSH2 0x492 DUP4 DUP7 PUSH2 0x1B22 JUMP JUMPDEST SWAP1 POP DUP1 DUP5 MLOAD LT ISZERO PUSH2 0x4A2 JUMPI PUSH1 0x0 DUP1 REVERT JUMPDEST PUSH1 0x0 PUSH2 0x4AF DUP8 PUSH1 0x20 PUSH2 0x1B22 JUMP JUMPDEST SWAP1 POP PUSH1 0x0 PUSH2 0x4BE DUP6 PUSH1 0x20 PUSH2 0x1B22 JUMP JUMPDEST SWAP1 POP JUMPDEST DUP7 PUSH2 0x4CD DUP10 PUSH1 0x20 PUSH2 0x1B22 JUMP JUMPDEST PUSH2 0x4D7 SWAP2 SWAP1 PUSH2 0x1B22 JUMP JUMPDEST DUP3 LT ISZERO PUSH2 0x505 JUMPI DUP9 DUP3 ADD MLOAD DUP7 DUP3 ADD MSTORE PUSH2 0x4F1 PUSH1 0x20 DUP4 PUSH2 0x1B22 JUMP JUMPDEST SWAP2 POP PUSH2 0x4FE PUSH1 0x20 DUP3 PUSH2 0x1B22 JUMP JUMPDEST SWAP1 POP PUSH2 0x4C1 JUMP JUMPDEST POP SWAP4 SWAP8 SWAP7 POP POP POP POP POP POP POP JUMP JUMPDEST DUP2 MLOAD PUSH1 0x0 SWAP1 ISZERO DUP1 PUSH2 0x544 JUMPI POP DUP3 MLOAD PUSH32 0xFFFFFFFF00000000FFFFFFFFFFFFFFFFBCE6FAADA7179E84F3B9CAC2FC632551 GT ISZERO JUMPDEST DUP1 PUSH2 0x551 JUMPI POP PUSH1 0x20 DUP4 ADD MLOAD ISZERO JUMPDEST DUP1 PUSH2 0x580 JUMPI POP PUSH1 0x20 DUP4 ADD MLOAD PUSH32 0xFFFFFFFF00000000FFFFFFFFFFFFFFFFBCE6FAADA7179E84F3B9CAC2FC632551 GT ISZERO JUMPDEST ISZERO PUSH2 0x58D JUMPI POP PUSH1 0x0 PUSH2 0x6A7 JUMP JUMPDEST DUP2 MLOAD PUSH1 0x20 DUP4 ADD MLOAD PUSH2 0x59E SWAP2 SWAP1 PUSH2 0x6AE JUMP JUMPDEST PUSH2 0x5AA JUMPI POP PUSH1 0x0 PUSH2 0x6A7 JUMP JUMPDEST PUSH1 0x0 PUSH2 0x5E6 DUP5 PUSH1 0x1 PUSH1 0x20 MUL ADD MLOAD PUSH2 0x5E1 SWAP1 PUSH32 0xFFFFFFFF00000000FFFFFFFFFFFFFFFFBCE6FAADA7179E84F3B9CAC2FC632551 PUSH2 0x1BA0 JUMP JUMPDEST PUSH2 0x827 JUMP JUMPDEST SWAP1 POP PUSH1 0x0 PUSH32 0xFFFFFFFF00000000FFFFFFFFFFFFFFFFBCE6FAADA7179E84F3B9CAC2FC632551 DUP3 DUP8 MULMOD SWAP1 POP PUSH1 0x0 PUSH32 0xFFFFFFFF00000000FFFFFFFFFFFFFFFFBCE6FAADA7179E84F3B9CAC2FC632551 DUP4 DUP8 PUSH1 0x0 PUSH1 0x20 MUL ADD MLOAD MULMOD DUP6 MLOAD PUSH1 0x20 DUP8 ADD MLOAD SWAP2 SWAP3 POP PUSH1 0x0 SWAP2 PUSH2 0x656 SWAP2 SWAP1 DUP6 DUP6 PUSH2 0x8B0 JUMP JUMPDEST SWAP1 POP PUSH32 0xFFFFFFFF00000000FFFFFFFFFFFFFFFFBCE6FAADA7179E84F3B9CAC2FC632551 DUP8 MLOAD PUSH32 0xFFFFFFFF00000000FFFFFFFFFFFFFFFFBCE6FAADA7179E84F3B9CAC2FC632551 SUB DUP3 ADDMOD ISZERO SWAP5 POP POP POP POP POP JUMPDEST SWAP4 SWAP3 POP POP POP JUMP JUMPDEST PUSH1 0x0 DUP3 ISZERO DUP1 PUSH2 0x6DC JUMPI POP PUSH32 0xFFFFFFFF00000001000000000000000000000000FFFFFFFFFFFFFFFFFFFFFFFF DUP4 EQ JUMPDEST DUP1 PUSH2 0x6E5 JUMPI POP DUP2 ISZERO JUMPDEST DUP1 PUSH2 0x70F JUMPI POP PUSH32 0xFFFFFFFF00000001000000000000000000000000FFFFFFFFFFFFFFFFFFFFFFFF DUP3 EQ JUMPDEST ISZERO PUSH2 0x71C JUMPI POP PUSH1 0x0 PUSH2 0x821 JUMP JUMPDEST PUSH1 0x0 PUSH32 0xFFFFFFFF00000001000000000000000000000000FFFFFFFFFFFFFFFFFFFFFFFF DUP4 DUP5 MULMOD SWAP1 POP PUSH1 0x0 PUSH32 0xFFFFFFFF00000001000000000000000000000000FFFFFFFFFFFFFFFFFFFFFFFF DUP1 PUSH32 0xFFFFFFFF00000001000000000000000000000000FFFFFFFFFFFFFFFFFFFFFFFC DUP8 MULMOD PUSH32 0xFFFFFFFF00000001000000000000000000000000FFFFFFFFFFFFFFFFFFFFFFFF DUP8 PUSH32 0xFFFFFFFF00000001000000000000000000000000FFFFFFFFFFFFFFFFFFFFFFFF DUP10 DUP11 MULMOD MULMOD ADDMOD SWAP1 POP PUSH32 0xFFFFFFFF00000001000000000000000000000000FFFFFFFFFFFFFFFFFFFFFFFF PUSH32 0x5AC635D8AA3A93E7B3EBBD55769886BC651D06B0CC53B0F63BCE3C3E27D2604B DUP3 ADDMOD SWAP2 SWAP1 SWAP2 EQ SWAP2 POP POP JUMPDEST SWAP3 SWAP2 POP POP JUMP JUMPDEST PUSH1 0x0 PUSH2 0x831 PUSH2 0x1858 JUMP JUMPDEST PUSH1 0x20 DUP2 MSTORE PUSH1 0x20 DUP1 DUP3 ADD MSTORE PUSH1 0x20 PUSH1 0x40 DUP3 ADD MSTORE DUP3 PUSH1 0x60 DUP3 ADD MSTORE PUSH32 0xFFFFFFFF00000000FFFFFFFFFFFFFFFFBCE6FAADA7179E84F3B9CAC2FC63254F PUSH1 0x80 DUP3 ADD MSTORE PUSH32 0xFFFFFFFF00000000FFFFFFFFFFFFFFFFBCE6FAADA7179E84F3B9CAC2FC632551 PUSH1 0xA0 DUP3 ADD MSTORE PUSH1 0x20 DUP2 PUSH1 0xC0 DUP4 PUSH1 0x5 PUSH1 0x0 NOT STATICCALL PUSH2 0x8A9 JUMPI PUSH1 0x0 DUP1 REVERT JUMPDEST MLOAD SWAP3 SWAP2 POP POP JUMP JUMPDEST PUSH1 0x0 DUP1 DUP1 DUP1 PUSH1 0xFF PUSH2 0x8BF PUSH2 0x1858 JUMP JUMPDEST PUSH1 0x0 DUP1 DUP10 ISZERO DUP1 ISZERO PUSH2 0x8CE JUMPI POP DUP9 ISZERO JUMPDEST ISZERO PUSH2 0x8E3 JUMPI PUSH1 0x0 SWAP8 POP POP POP POP POP POP POP POP PUSH2 0x13F6 JUMP JUMPDEST PUSH2 0x92F PUSH32 0x6B17D1F2E12C4247F8BCE6E563A440F277037D812DEB33A0F4A13945D898C296 PUSH32 0x4FE342E2FE1A7F9B8EE7EB4A7C0F9E162BCE33576B315ECECBB6406837BF51F5 DUP15 DUP15 PUSH2 0x13FE JUMP JUMPDEST DUP1 SWAP3 POP DUP2 SWAP4 POP POP POP PUSH1 0x1 DUP11 DUP6 SHR AND PUSH1 0x1 DUP11 DUP7 SHR AND PUSH1 0x1 SHL ADD JUMPDEST DUP1 PUSH2 0x96A JUMPI PUSH1 0x1 DUP6 SUB SWAP5 POP PUSH1 0x1 DUP12 DUP7 SHR AND PUSH1 0x1 DUP12 DUP8 SHR AND PUSH1 0x1 SHL ADD SWAP1 POP PUSH2 0x948 JUMP JUMPDEST POP PUSH1 0x1 DUP11 DUP6 SHR AND PUSH1 0x1 DUP11 DUP7 SHR AND PUSH1 0x1 SHL ADD SWAP7 POP PUSH1 0x1 DUP8 SUB PUSH2 0x9CC JUMPI PUSH32 0x6B17D1F2E12C4247F8BCE6E563A440F277037D812DEB33A0F4A13945D898C296 SWAP8 POP PUSH32 0x4FE342E2FE1A7F9B8EE7EB4A7C0F9E162BCE33576B315ECECBB6406837BF51F5 SWAP5 POP JUMPDEST PUSH1 0x2 DUP8 SUB PUSH2 0x9DB JUMPI DUP12 SWAP8 POP DUP11 SWAP5 POP JUMPDEST PUSH1 0x3 DUP8 SUB PUSH2 0x9EA JUMPI DUP2 SWAP8 POP DUP1 SWAP5 POP JUMPDEST PUSH1 0x1 DUP5 SUB SWAP4 POP PUSH1 0x1 SWAP7 POP PUSH1 0x1 SWAP6 POP JUMPDEST DUP4 PUSH32 0xFFFFFFFFFFFFFFFFFFFFFFFFFFFFFFFFFFFFFFFFFFFFFFFFFFFFFFFFFFFFFFFF GT ISZERO PUSH2 0x134F JUMPI PUSH32 0xFFFFFFFF00000001000000000000000000000000FFFFFFFFFFFFFFFFFFFFFFFF DUP6 PUSH1 0x2 MULMOD PUSH32 0xFFFFFFFF00000001000000000000000000000000FFFFFFFFFFFFFFFFFFFFFFFF DUP2 DUP3 MULMOD PUSH32 0xFFFFFFFF00000001000000000000000000000000FFFFFFFFFFFFFFFFFFFFFFFF DUP2 DUP12 MULMOD PUSH32 0xFFFFFFFF00000001000000000000000000000000FFFFFFFFFFFFFFFFFFFFFFFF DUP3 DUP5 MULMOD SWAP3 POP PUSH32 0xFFFFFFFF00000001000000000000000000000000FFFFFFFFFFFFFFFFFFFFFFFF DUP1 PUSH32 0xFFFFFFFF00000001000000000000000000000000FFFFFFFFFFFFFFFFFFFFFFFF DUP13 DUP15 ADDMOD PUSH32 0xFFFFFFFF00000001000000000000000000000000FFFFFFFFFFFFFFFFFFFFFFFF DUP14 PUSH32 0xFFFFFFFF00000001000000000000000000000000FFFFFFFFFFFFFFFFFFFFFFFF SUB DUP16 ADDMOD MULMOD PUSH1 0x3 MULMOD PUSH32 0xFFFFFFFF00000001000000000000000000000000FFFFFFFFFFFFFFFFFFFFFFFF DUP11 DUP6 MULMOD SWAP10 POP PUSH32 0xFFFFFFFF00000001000000000000000000000000FFFFFFFFFFFFFFFFFFFFFFFF DUP12 DUP5 MULMOD SWAP11 POP PUSH32 0xFFFFFFFF00000001000000000000000000000000FFFFFFFFFFFFFFFFFFFFFFFF DUP1 DUP4 PUSH32 0xFFFFFFFF00000001000000000000000000000000FFFFFFFFFFFFFFFFFFFFFFFD MULMOD PUSH32 0xFFFFFFFF00000001000000000000000000000000FFFFFFFFFFFFFFFFFFFFFFFF DUP4 DUP5 MULMOD ADDMOD SWAP12 POP PUSH32 0xFFFFFFFF00000001000000000000000000000000FFFFFFFFFFFFFFFFFFFFFFFF DUP1 DUP4 PUSH32 0xFFFFFFFF00000001000000000000000000000000FFFFFFFFFFFFFFFFFFFFFFFF SUB DUP15 ADDMOD DUP3 MULMOD SWAP3 POP PUSH32 0xFFFFFFFF00000001000000000000000000000000FFFFFFFFFFFFFFFFFFFFFFFF DUP4 PUSH32 0xFFFFFFFF00000001000000000000000000000000FFFFFFFFFFFFFFFFFFFFFFFF DUP12 DUP8 MULMOD ADDMOD SWAP9 POP PUSH1 0x1 DUP15 DUP10 SHR AND PUSH1 0x1 DUP15 DUP11 SHR AND PUSH1 0x1 SHL ADD SWAP1 POP DUP1 PUSH2 0xCD5 JUMPI DUP9 PUSH32 0xFFFFFFFF00000001000000000000000000000000FFFFFFFFFFFFFFFFFFFFFFFF SUB SWAP9 POP POP POP POP POP PUSH2 0x1344 JUMP JUMPDEST PUSH1 0x1 DUP2 SUB PUSH2 0xD24 JUMPI PUSH32 0x6B17D1F2E12C4247F8BCE6E563A440F277037D812DEB33A0F4A13945D898C296 SWAP4 POP PUSH32 0x4FE342E2FE1A7F9B8EE7EB4A7C0F9E162BCE33576B315ECECBB6406837BF51F5 SWAP3 POP JUMPDEST PUSH1 0x2 DUP2 SUB PUSH2 0xD33 JUMPI DUP16 SWAP4 POP DUP15 SWAP3 POP JUMPDEST PUSH1 0x3 DUP2 SUB PUSH2 0xD42 JUMPI DUP6 SWAP4 POP DUP5 SWAP3 POP JUMPDEST PUSH32 0xFFFFFFFF00000001000000000000000000000000FFFFFFFFFFFFFFFFFFFFFFFF DUP10 PUSH32 0xFFFFFFFF00000001000000000000000000000000FFFFFFFFFFFFFFFFFFFFFFFF DUP13 DUP7 MULMOD ADDMOD PUSH32 0xFFFFFFFF00000001000000000000000000000000FFFFFFFFFFFFFFFFFFFFFFFF DUP14 PUSH32 0xFFFFFFFF00000001000000000000000000000000FFFFFFFFFFFFFFFFFFFFFFFF SUB PUSH32 0xFFFFFFFF00000001000000000000000000000000FFFFFFFFFFFFFFFFFFFFFFFF DUP15 DUP9 MULMOD ADDMOD SWAP4 POP DUP1 PUSH2 0x113D JUMPI DUP4 PUSH2 0x113D JUMPI PUSH32 0xFFFFFFFF00000001000000000000000000000000FFFFFFFFFFFFFFFFFFFFFFFF DUP11 PUSH1 0x2 MULMOD SWAP5 POP PUSH32 0xFFFFFFFF00000001000000000000000000000000FFFFFFFFFFFFFFFFFFFFFFFF DUP6 DUP7 MULMOD SWAP4 POP PUSH32 0xFFFFFFFF00000001000000000000000000000000FFFFFFFFFFFFFFFFFFFFFFFF DUP5 DUP15 MULMOD SWAP3 POP PUSH32 0xFFFFFFFF00000001000000000000000000000000FFFFFFFFFFFFFFFFFFFFFFFF DUP5 DUP7 MULMOD PUSH32 0xFFFFFFFF00000001000000000000000000000000FFFFFFFFFFFFFFFFFFFFFFFF DUP14 DUP16 ADDMOD SWAP2 POP PUSH32 0xFFFFFFFF00000001000000000000000000000000FFFFFFFFFFFFFFFFFFFFFFFF DUP14 PUSH32 0xFFFFFFFF00000001000000000000000000000000FFFFFFFFFFFFFFFFFFFFFFFF SUB DUP16 ADDMOD SWAP1 POP PUSH32 0xFFFFFFFF00000001000000000000000000000000FFFFFFFFFFFFFFFFFFFFFFFF DUP2 DUP4 MULMOD SWAP2 POP POP PUSH32 0xFFFFFFFF00000001000000000000000000000000FFFFFFFFFFFFFFFFFFFFFFFF DUP13 DUP15 ADDMOD SWAP4 POP PUSH32 0xFFFFFFFF00000001000000000000000000000000FFFFFFFFFFFFFFFFFFFFFFFF DUP13 PUSH32 0xFFFFFFFF00000001000000000000000000000000FFFFFFFFFFFFFFFFFFFFFFFF SUB DUP15 ADDMOD SWAP5 POP PUSH32 0xFFFFFFFF00000001000000000000000000000000FFFFFFFFFFFFFFFFFFFFFFFF DUP5 DUP7 MULMOD SWAP4 POP PUSH32 0xFFFFFFFF00000001000000000000000000000000FFFFFFFFFFFFFFFFFFFFFFFF DUP5 PUSH1 0x3 MULMOD SWAP2 POP PUSH32 0xFFFFFFFF00000001000000000000000000000000FFFFFFFFFFFFFFFFFFFFFFFF DUP12 DUP7 MULMOD SWAP11 POP PUSH32 0xFFFFFFFF00000001000000000000000000000000FFFFFFFFFFFFFFFFFFFFFFFF DUP13 DUP6 MULMOD SWAP12 POP PUSH32 0xFFFFFFFF00000001000000000000000000000000FFFFFFFFFFFFFFFFFFFFFFFF DUP1 DUP5 PUSH32 0xFFFFFFFF00000001000000000000000000000000FFFFFFFFFFFFFFFFFFFFFFFD MULMOD PUSH32 0xFFFFFFFF00000001000000000000000000000000FFFFFFFFFFFFFFFFFFFFFFFF DUP5 DUP6 MULMOD ADDMOD SWAP13 POP PUSH32 0xFFFFFFFF00000001000000000000000000000000FFFFFFFFFFFFFFFFFFFFFFFF DUP1 DUP15 PUSH32 0xFFFFFFFF00000001000000000000000000000000FFFFFFFFFFFFFFFFFFFFFFFF SUB DUP6 ADDMOD DUP4 MULMOD SWAP4 POP PUSH32 0xFFFFFFFF00000001000000000000000000000000FFFFFFFFFFFFFFFFFFFFFFFF DUP1 DUP12 DUP8 MULMOD PUSH32 0xFFFFFFFF00000001000000000000000000000000FFFFFFFFFFFFFFFFFFFFFFFF SUB DUP6 ADDMOD SWAP10 POP POP POP POP POP POP PUSH2 0x1344 JUMP JUMPDEST PUSH32 0xFFFFFFFF00000001000000000000000000000000FFFFFFFFFFFFFFFFFFFFFFFF DUP5 DUP6 MULMOD SWAP2 POP PUSH32 0xFFFFFFFF00000001000000000000000000000000FFFFFFFFFFFFFFFFFFFFFFFF DUP5 DUP4 MULMOD PUSH32 0xFFFFFFFF00000001000000000000000000000000FFFFFFFFFFFFFFFFFFFFFFFF DUP4 DUP15 MULMOD SWAP13 POP PUSH32 0xFFFFFFFF00000001000000000000000000000000FFFFFFFFFFFFFFFFFFFFFFFF DUP2 DUP14 MULMOD SWAP12 POP PUSH32 0xFFFFFFFF00000001000000000000000000000000FFFFFFFFFFFFFFFFFFFFFFFF DUP4 DUP16 MULMOD PUSH32 0xFFFFFFFF00000001000000000000000000000000FFFFFFFFFFFFFFFFFFFFFFFF DUP1 DUP3 PUSH32 0xFFFFFFFF00000001000000000000000000000000FFFFFFFFFFFFFFFFFFFFFFFD MULMOD PUSH32 0xFFFFFFFF00000001000000000000000000000000FFFFFFFFFFFFFFFFFFFFFFFF DUP5 PUSH32 0xFFFFFFFF00000001000000000000000000000000FFFFFFFFFFFFFFFFFFFFFFFF SUB PUSH32 0xFFFFFFFF00000001000000000000000000000000FFFFFFFFFFFFFFFFFFFFFFFF DUP8 DUP9 MULMOD ADDMOD ADDMOD SWAP4 POP PUSH32 0xFFFFFFFF00000001000000000000000000000000FFFFFFFFFFFFFFFFFFFFFFFF DUP1 DUP4 DUP15 MULMOD PUSH32 0xFFFFFFFF00000001000000000000000000000000FFFFFFFFFFFFFFFFFFFFFFFF DUP6 PUSH32 0xFFFFFFFF00000001000000000000000000000000FFFFFFFFFFFFFFFFFFFFFFFF DUP9 PUSH32 0xFFFFFFFF00000001000000000000000000000000FFFFFFFFFFFFFFFFFFFFFFFF SUB DUP7 ADDMOD MULMOD ADDMOD SWAP12 POP POP POP POP DUP1 SWAP12 POP POP POP POP POP JUMPDEST PUSH1 0x1 DUP5 SUB SWAP4 POP PUSH2 0x9F9 JUMP JUMPDEST DUP7 PUSH1 0x60 DUP5 ADD MSTORE PUSH1 0x20 DUP4 MSTORE PUSH1 0x20 DUP1 DUP5 ADD MSTORE PUSH1 0x20 PUSH1 0x40 DUP5 ADD MSTORE PUSH32 0xFFFFFFFF00000001000000000000000000000000FFFFFFFFFFFFFFFFFFFFFFFD PUSH1 0x80 DUP5 ADD MSTORE PUSH32 0xFFFFFFFF00000001000000000000000000000000FFFFFFFFFFFFFFFFFFFFFFFF PUSH1 0xA0 DUP5 ADD MSTORE PUSH1 0x20 DUP4 PUSH1 0xC0 DUP6 PUSH1 0x5 PUSH1 0x0 NOT STATICCALL PUSH2 0x13C7 JUMPI PUSH1 0x0 DUP1 REVERT JUMPDEST PUSH32 0xFFFFFFFF00000001000000000000000000000000FFFFFFFFFFFFFFFFFFFFFFFF DUP4 MLOAD DUP10 MULMOD SWAP8 POP POP POP POP POP POP POP POP JUMPDEST SWAP5 SWAP4 POP POP POP POP JUMP JUMPDEST PUSH1 0x0 DUP1 DUP1 DUP1 DUP7 PUSH2 0x1415 JUMPI DUP6 DUP6 SWAP4 POP SWAP4 POP POP POP PUSH2 0x1453 JUMP JUMPDEST DUP5 PUSH2 0x1427 JUMPI DUP6 DUP6 SWAP4 POP SWAP4 POP POP POP PUSH2 0x1453 JUMP JUMPDEST PUSH2 0x1436 DUP9 DUP9 PUSH1 0x1 DUP1 DUP11 DUP11 PUSH2 0x145C JUMP JUMPDEST SWAP3 SWAP11 POP SWAP1 SWAP9 POP SWAP3 POP SWAP1 POP PUSH2 0x144C DUP9 DUP9 DUP5 DUP5 PUSH2 0x1721 JUMP JUMPDEST SWAP4 POP SWAP4 POP POP POP JUMPDEST SWAP5 POP SWAP5 SWAP3 POP POP POP JUMP JUMPDEST PUSH1 0x0 DUP1 PUSH1 0x0 DUP1 DUP9 PUSH1 0x0 SUB PUSH2 0x147B JUMPI POP DUP5 SWAP3 POP DUP4 SWAP2 POP PUSH1 0x1 SWAP1 POP DUP1 PUSH2 0x1714 JUMP JUMPDEST PUSH32 0xFFFFFFFF00000001000000000000000000000000FFFFFFFFFFFFFFFFFFFFFFFF SWAP9 DUP10 SUB SWAP9 DUP10 DUP2 DUP10 DUP9 MULMOD ADDMOD SWAP5 POP PUSH32 0xFFFFFFFF00000001000000000000000000000000FFFFFFFFFFFFFFFFFFFFFFFF DUP11 PUSH32 0xFFFFFFFF00000001000000000000000000000000FFFFFFFFFFFFFFFFFFFFFFFF SUB PUSH32 0xFFFFFFFF00000001000000000000000000000000FFFFFFFFFFFFFFFFFFFFFFFF DUP11 DUP10 MULMOD ADDMOD SWAP6 POP PUSH32 0xFFFFFFFF00000001000000000000000000000000FFFFFFFFFFFFFFFFFFFFFFFF DUP7 DUP8 MULMOD SWAP4 POP PUSH32 0xFFFFFFFF00000001000000000000000000000000FFFFFFFFFFFFFFFFFFFFFFFF DUP7 DUP6 MULMOD SWAP3 POP PUSH32 0xFFFFFFFF00000001000000000000000000000000FFFFFFFFFFFFFFFFFFFFFFFF DUP5 DUP10 MULMOD SWAP2 POP PUSH32 0xFFFFFFFF00000001000000000000000000000000FFFFFFFFFFFFFFFFFFFFFFFF DUP4 DUP9 MULMOD SWAP1 POP PUSH32 0xFFFFFFFF00000001000000000000000000000000FFFFFFFFFFFFFFFFFFFFFFFF DUP5 DUP12 MULMOD SWAP8 POP PUSH32 0xFFFFFFFF00000001000000000000000000000000FFFFFFFFFFFFFFFFFFFFFFFF DUP1 DUP10 PUSH32 0xFFFFFFFF00000001000000000000000000000000FFFFFFFFFFFFFFFFFFFFFFFD MULMOD PUSH32 0xFFFFFFFF00000001000000000000000000000000FFFFFFFFFFFFFFFFFFFFFFFF DUP6 PUSH32 0xFFFFFFFF00000001000000000000000000000000FFFFFFFFFFFFFFFFFFFFFFFF SUB PUSH32 0xFFFFFFFF00000001000000000000000000000000FFFFFFFFFFFFFFFFFFFFFFFF DUP10 DUP11 MULMOD ADDMOD ADDMOD SWAP4 POP PUSH32 0xFFFFFFFF00000001000000000000000000000000FFFFFFFFFFFFFFFFFFFFFFFF DUP1 DUP5 DUP12 MULMOD PUSH32 0xFFFFFFFF00000001000000000000000000000000FFFFFFFFFFFFFFFFFFFFFFFF DUP8 PUSH32 0xFFFFFFFF00000001000000000000000000000000FFFFFFFFFFFFFFFFFFFFFFFF DUP9 PUSH32 0xFFFFFFFF00000001000000000000000000000000FFFFFFFFFFFFFFFFFFFFFFFF SUB DUP14 ADDMOD MULMOD ADDMOD SWAP3 POP JUMPDEST SWAP7 POP SWAP7 POP SWAP7 POP SWAP7 SWAP3 POP POP POP JUMP JUMPDEST PUSH1 0x0 DUP1 PUSH1 0x0 PUSH2 0x172F DUP5 PUSH2 0x17D6 JUMP JUMPDEST SWAP1 POP PUSH32 0xFFFFFFFF00000001000000000000000000000000FFFFFFFFFFFFFFFFFFFFFFFF DUP2 DUP8 MULMOD SWAP2 POP PUSH1 0x0 PUSH32 0xFFFFFFFF00000001000000000000000000000000FFFFFFFFFFFFFFFFFFFFFFFF DUP3 DUP8 MULMOD SWAP1 POP PUSH32 0xFFFFFFFF00000001000000000000000000000000FFFFFFFFFFFFFFFFFFFFFFFF DUP2 DUP3 MULMOD SWAP2 POP PUSH32 0xFFFFFFFF00000001000000000000000000000000FFFFFFFFFFFFFFFFFFFFFFFF DUP3 DUP10 MULMOD SWAP4 POP POP POP SWAP5 POP SWAP5 SWAP3 POP POP POP JUMP JUMPDEST PUSH1 0x0 PUSH2 0x17E0 PUSH2 0x1858 JUMP JUMPDEST PUSH1 0x20 DUP2 MSTORE PUSH1 0x20 DUP1 DUP3 ADD MSTORE PUSH1 0x20 PUSH1 0x40 DUP3 ADD MSTORE DUP3 PUSH1 0x60 DUP3 ADD MSTORE PUSH32 0xFFFFFFFF00000001000000000000000000000000FFFFFFFFFFFFFFFFFFFFFFFD PUSH1 0x80 DUP3 ADD MSTORE PUSH32 0xFFFFFFFF00000001000000000000000000000000FFFFFFFFFFFFFFFFFFFFFFFF PUSH1 0xA0 DUP3 ADD MSTORE PUSH1 0x20 DUP2 PUSH1 0xC0 DUP4 PUSH1 0x5 PUSH1 0x0 NOT STATICCALL PUSH2 0x8A9 JUMPI PUSH1 0x0 DUP1 REVERT JUMPDEST PUSH1 0x40 MLOAD DUP1 PUSH1 0xC0 ADD PUSH1 0x40 MSTORE DUP1 PUSH1 0x6 SWAP1 PUSH1 0x20 DUP3 MUL DUP1 CALLDATASIZE DUP4 CALLDATACOPY POP SWAP2 SWAP3 SWAP2 POP POP JUMP JUMPDEST PUSH32 0x4E487B7100000000000000000000000000000000000000000000000000000000 PUSH1 0x0 MSTORE PUSH1 0x41 PUSH1 0x4 MSTORE PUSH1 0x24 PUSH1 0x0 REVERT JUMPDEST PUSH1 0x0 DUP3 PUSH1 0x1F DUP4 ADD SLT PUSH2 0x18B6 JUMPI PUSH1 0x0 DUP1 REVERT JUMPDEST DUP2 CALLDATALOAD PUSH8 0xFFFFFFFFFFFFFFFF DUP1 DUP3 GT ISZERO PUSH2 0x18D1 JUMPI PUSH2 0x18D1 PUSH2 0x1876 JUMP JUMPDEST PUSH1 0x40 MLOAD PUSH1 0x1F DUP4 ADD PUSH32 0xFFFFFFFFFFFFFFFFFFFFFFFFFFFFFFFFFFFFFFFFFFFFFFFFFFFFFFFFFFFFFFE0 SWAP1 DUP2 AND PUSH1 0x3F ADD AND DUP2 ADD SWAP1 DUP3 DUP3 GT DUP2 DUP4 LT OR ISZERO PUSH2 0x1917 JUMPI PUSH2 0x1917 PUSH2 0x1876 JUMP JUMPDEST DUP2 PUSH1 0x40 MSTORE DUP4 DUP2 MSTORE DUP7 PUSH1 0x20 DUP6 DUP9 ADD ADD GT ISZERO PUSH2 0x1930 JUMPI PUSH1 0x0 DUP1 REVERT JUMPDEST DUP4 PUSH1 0x20 DUP8 ADD PUSH1 0x20 DUP4 ADD CALLDATACOPY PUSH1 0x0 PUSH1 0x20 DUP6 DUP4 ADD ADD MSTORE DUP1 SWAP5 POP POP POP POP POP SWAP3 SWAP2 POP POP JUMP JUMPDEST PUSH1 0x0 DUP3 PUSH1 0x1F DUP4 ADD SLT PUSH2 0x1961 JUMPI PUSH1 0x0 DUP1 REVERT JUMPDEST PUSH1 0x40 MLOAD PUSH1 0x40 DUP2 ADD DUP2 DUP2 LT PUSH8 0xFFFFFFFFFFFFFFFF DUP3 GT OR ISZERO PUSH2 0x1984 JUMPI PUSH2 0x1984 PUSH2 0x1876 JUMP JUMPDEST DUP1 PUSH1 0x40 MSTORE POP DUP1 PUSH1 0x40 DUP5 ADD DUP6 DUP2 GT ISZERO PUSH2 0x199B JUMPI PUSH1 0x0 DUP1 REVERT JUMPDEST DUP5 JUMPDEST DUP2 DUP2 LT ISZERO PUSH2 0x19B5 JUMPI DUP1 CALLDATALOAD DUP4 MSTORE PUSH1 0x20 SWAP3 DUP4 ADD SWAP3 ADD PUSH2 0x199D JUMP JUMPDEST POP SWAP2 SWAP6 SWAP5 POP POP POP POP POP JUMP JUMPDEST PUSH1 0x0 DUP1 PUSH1 0x0 DUP1 PUSH1 0x0 DUP1 PUSH1 0x0 PUSH2 0x120 DUP9 DUP11 SUB SLT ISZERO PUSH2 0x19DC JUMPI PUSH1 0x0 DUP1 REVERT JUMPDEST DUP8 CALLDATALOAD PUSH8 0xFFFFFFFFFFFFFFFF DUP1 DUP3 GT ISZERO PUSH2 0x19F4 JUMPI PUSH1 0x0 DUP1 REVERT JUMPDEST PUSH2 0x1A00 DUP12 DUP4 DUP13 ADD PUSH2 0x18A5 JUMP JUMPDEST SWAP9 POP PUSH1 0x20 DUP11 ADD CALLDATALOAD SWAP2 POP PUSH32 0xFF00000000000000000000000000000000000000000000000000000000000000 DUP3 AND DUP3 EQ PUSH2 0x1A37 JUMPI PUSH1 0x0 DUP1 REVERT JUMPDEST SWAP1 SWAP7 POP PUSH1 0x40 DUP10 ADD CALLDATALOAD SWAP1 DUP1 DUP3 GT ISZERO PUSH2 0x1A4D JUMPI PUSH1 0x0 DUP1 REVERT JUMPDEST POP PUSH2 0x1A5A DUP11 DUP3 DUP12 ADD PUSH2 0x18A5 JUMP JUMPDEST SWAP6 POP POP PUSH1 0x60 DUP9 ADD CALLDATALOAD SWAP4 POP PUSH1 0x80 DUP9 ADD CALLDATALOAD SWAP3 POP PUSH2 0x1A78 DUP10 PUSH1 0xA0 DUP11 ADD PUSH2 0x1950 JUMP JUMPDEST SWAP2 POP PUSH2 0x1A87 DUP10 PUSH1 0xE0 DUP11 ADD PUSH2 0x1950 JUMP JUMPDEST SWAP1 POP SWAP3 SWAP6 SWAP9 SWAP2 SWAP5 SWAP8 POP SWAP3 SWAP6 POP JUMP JUMPDEST PUSH32 0x4E487B7100000000000000000000000000000000000000000000000000000000 PUSH1 0x0 MSTORE PUSH1 0x32 PUSH1 0x4 MSTORE PUSH1 0x24 PUSH1 0x0 REVERT JUMPDEST PUSH1 0x0 DUP3 MLOAD PUSH1 0x0 JUMPDEST DUP2 DUP2 LT ISZERO PUSH2 0x1AE5 JUMPI PUSH1 0x20 DUP2 DUP7 ADD DUP2 ADD MLOAD DUP6 DUP4 ADD MSTORE ADD PUSH2 0x1ACB JUMP JUMPDEST POP PUSH1 0x0 SWAP3 ADD SWAP2 DUP3 MSTORE POP SWAP2 SWAP1 POP JUMP JUMPDEST PUSH32 0x4E487B7100000000000000000000000000000000000000000000000000000000 PUSH1 0x0 MSTORE PUSH1 0x11 PUSH1 0x4 MSTORE PUSH1 0x24 PUSH1 0x0 REVERT JUMPDEST DUP1 DUP3 ADD DUP1 DUP3 GT ISZERO PUSH2 0x821 JUMPI PUSH2 0x821 PUSH2 0x1AF3 JUMP JUMPDEST PUSH1 0x0 PUSH1 0x20 DUP3 DUP5 SUB SLT ISZERO PUSH2 0x1B47 JUMPI PUSH1 0x0 DUP1 REVERT JUMPDEST POP MLOAD SWAP2 SWAP1 POP JUMP JUMPDEST PUSH1 0x0 DUP3 PUSH2 0x1B84 JUMPI PUSH32 0x4E487B7100000000000000000000000000000000000000000000000000000000 PUSH1 0x0 MSTORE PUSH1 0x12 PUSH1 0x4 MSTORE PUSH1 0x24 PUSH1 0x0 REVERT JUMPDEST POP DIV SWAP1 JUMP JUMPDEST DUP1 DUP3 MUL DUP2 ISZERO DUP3 DUP3 DIV DUP5 EQ OR PUSH2 0x821 JUMPI PUSH2 0x821 PUSH2 0x1AF3 JUMP JUMPDEST DUP2 DUP2 SUB DUP2 DUP2 GT ISZERO PUSH2 0x821 JUMPI PUSH2 0x821 PUSH2 0x1AF3 JUMP INVALID COINBASE TIMESTAMP NUMBER DIFFICULTY GASLIMIT CHAINID SELFBALANCE BASEFEE 0x49 0x4A 0x4B 0x4C 0x4D 0x4E 0x4F POP MLOAD MSTORE MSTORE8 SLOAD SSTORE JUMP JUMPI PC MSIZE GAS PUSH2 0x6263 PUSH5 0x6566676869 PUSH11 0x6B6C6D6E6F707172737475 PUSH23 0x7778797A303132333435363738392D5FA2646970667358 0x22 SLT KECCAK256 PUSH11 0xDE7DD0B613234B411942FD JUMP SAR 0x29 0x1E 0xD8 0xCD DUP10 SWAP1 SWAP11 PUSH20 0x11A3A3AE85F64AFB2B9D64736F6C634300081100 CALLER "},"gasEstimates":{"creation":{"codeDepositCost":"1441800","executionCost":"1537","totalCost":"1443337"},"external":{"checkSignature(bytes,bytes1,bytes,bytes32,uint256,uint256[2],uint256[2])":"infinite"},"internal":{"copyBytes(bytes memory,uint256,uint256,bytes memory,uint256)":"infinite"}},"methodIdentifiers":{"checkSignature(bytes,bytes1,bytes,bytes32,uint256,uint256[2],uint256[2])":"0d5efec9"}},"storageLayout":{"storage":[],"types":null},"userdoc":{"kind":"user","methods":{},"version":1}}}}