{"contracts/P256SignerFactory.sol":{"P256SignerFactory":{"abi":[{"inputs":[{"internalType":"address","name":"implementation_","type":"address"}],"stateMutability":"nonpayable","type":"constructor"},{"anonymous":false,"inputs":[{"indexed":true,"internalType":"uint256","name":"x","type":"uint256"},{"indexed":true,"internalType":"uint256","name":"y","type":"uint256"},{"indexed":false,"internalType":"address","name":"signer","type":"address"}],"name":"NewSignerCreated","type":"event"},{"inputs":[{"internalType":"uint256","name":"x","type":"uint256"},{"internalType":"uint256","name":"y","type":"uint256"}],"name":"create","outputs":[{"internalType":"address","name":"","type":"address"}],"stateMutability":"nonpayable","type":"function"},{"inputs":[],"name":"implementation","outputs":[{"internalType":"address","name":"","type":"address"}],"stateMutability":"view","type":"function"}],"devdoc":{"kind":"dev","methods":{"create(uint256,uint256)":{"params":{"x":"The x coordinate of the public key","y":"The y coordinate of the public key"}}},"title":"P256SignerFactory","version":1},"evm":{"bytecode":{"linkReferences":{},"object":"60a060405234801561001057600080fd5b5060405161031a38038061031a83398101604081905261002f91610040565b6001600160a01b0316608052610070565b60006020828403121561005257600080fd5b81516001600160a01b038116811461006957600080fd5b9392505050565b60805161028a610090600039600081816040015260d7015261028a6000f3fe608060405234801561001057600080fd5b50600436106100365760003560e01c80635c60da1b1461003b5780639f7b45791461008b575b600080fd5b6100627f000000000000000000000000000000000000000000000000000000000000000081565b60405173ffffffffffffffffffffffffffffffffffffffff909116815260200160405180910390f35b610062610099366004610232565b60008083836040516020016100b8929190918252602082015260400190565b60405160208183030381529060405280519060200120905060006100fc7f0000000000000000000000000000000000000000000000000000000000000000836101db565b6040517fe4a30116000000000000000000000000000000000000000000000000000000008152600481018790526024810186905290915073ffffffffffffffffffffffffffffffffffffffff82169063e4a3011690604401600060405180830381600087803b15801561016e57600080fd5b505af1158015610182573d6000803e3d6000fd5b505060405173ffffffffffffffffffffffffffffffffffffffff841681528692508791507f33b61205835e3063eb8935cac4b29d7fc333ad80d6cb11893ba4758adf8cdde19060200160405180910390a3949350505050565b60006c5af43d3d93803e602a57fd5bf36021528260145273602c3d8160093d39f33d3d3d3d363d3d37363d73600052816035600c6000f59050806102275763301164256000526004601cfd5b600060215292915050565b6000806040838503121561024557600080fd5b5050803592602090910135915056fea2646970667358221220d8b0407d1a28cd9f0ad691ad81667640a0419d8054ee5121c474b80b2ce9bf0064736f6c63430008140033","opcodes":"PUSH1 0xA0 PUSH1 0x40 MSTORE CALLVALUE DUP1 ISZERO PUSH2 0x10 JUMPI PUSH1 0x0 DUP1 REVERT JUMPDEST POP PUSH1 0x40 MLOAD PUSH2 0x31A CODESIZE SUB DUP1 PUSH2 0x31A DUP4 CODECOPY DUP2 ADD PUSH1 0x40 DUP2 SWAP1 MSTORE PUSH2 0x2F SWAP2 PUSH2 0x40 JUMP JUMPDEST PUSH1 0x1 PUSH1 0x1 PUSH1 0xA0 SHL SUB AND PUSH1 0x80 MSTORE PUSH2 0x70 JUMP JUMPDEST PUSH1 0x0 PUSH1 0x20 DUP3 DUP5 SUB SLT ISZERO PUSH2 0x52 JUMPI PUSH1 0x0 DUP1 REVERT JUMPDEST DUP2 MLOAD PUSH1 0x1 PUSH1 0x1 PUSH1 0xA0 SHL SUB DUP2 AND DUP2 EQ PUSH2 0x69 JUMPI PUSH1 0x0 DUP1 REVERT JUMPDEST SWAP4 SWAP3 POP POP POP JUMP JUMPDEST PUSH1 0x80 MLOAD PUSH2 0x28A PUSH2 0x90 PUSH1 0x0 CODECOPY PUSH1 0x0 DUP2 DUP2 PUSH1 0x40 ADD MSTORE PUSH1 0xD7 ADD MSTORE PUSH2 0x28A PUSH1 0x0 RETURN INVALID PUSH1 0x80 PUSH1 0x40 MSTORE CALLVALUE DUP1 ISZERO PUSH2 0x10 JUMPI PUSH1 0x0 DUP1 REVERT JUMPDEST POP PUSH1 0x4 CALLDATASIZE LT PUSH2 0x36 JUMPI PUSH1 0x0 CALLDATALOAD PUSH1 0xE0 SHR DUP1 PUSH4 0x5C60DA1B EQ PUSH2 0x3B JUMPI DUP1 PUSH4 0x9F7B4579 EQ PUSH2 0x8B JUMPI JUMPDEST PUSH1 0x0 DUP1 REVERT JUMPDEST PUSH2 0x62 PUSH32 0x0 DUP2 JUMP JUMPDEST PUSH1 0x40 MLOAD PUSH20 0xFFFFFFFFFFFFFFFFFFFFFFFFFFFFFFFFFFFFFFFF SWAP1 SWAP2 AND DUP2 MSTORE PUSH1 0x20 ADD PUSH1 0x40 MLOAD DUP1 SWAP2 SUB SWAP1 RETURN JUMPDEST PUSH2 0x62 PUSH2 0x99 CALLDATASIZE PUSH1 0x4 PUSH2 0x232 JUMP JUMPDEST PUSH1 0x0 DUP1 DUP4 DUP4 PUSH1 0x40 MLOAD PUSH1 0x20 ADD PUSH2 0xB8 SWAP3 SWAP2 SWAP1 SWAP2 DUP3 MSTORE PUSH1 0x20 DUP3 ADD MSTORE PUSH1 0x40 ADD SWAP1 JUMP JUMPDEST PUSH1 0x40 MLOAD PUSH1 0x20 DUP2 DUP4 SUB SUB DUP2 MSTORE SWAP1 PUSH1 0x40 MSTORE DUP1 MLOAD SWAP1 PUSH1 0x20 ADD KECCAK256 SWAP1 POP PUSH1 0x0 PUSH2 0xFC PUSH32 0x0 DUP4 PUSH2 0x1DB JUMP JUMPDEST PUSH1 0x40 MLOAD PUSH32 0xE4A3011600000000000000000000000000000000000000000000000000000000 DUP2 MSTORE PUSH1 0x4 DUP2 ADD DUP8 SWAP1 MSTORE PUSH1 0x24 DUP2 ADD DUP7 SWAP1 MSTORE SWAP1 SWAP2 POP PUSH20 0xFFFFFFFFFFFFFFFFFFFFFFFFFFFFFFFFFFFFFFFF DUP3 AND SWAP1 PUSH4 0xE4A30116 SWAP1 PUSH1 0x44 ADD PUSH1 0x0 PUSH1 0x40 MLOAD DUP1 DUP4 SUB DUP2 PUSH1 0x0 DUP8 DUP1 EXTCODESIZE ISZERO DUP1 ISZERO PUSH2 0x16E JUMPI PUSH1 0x0 DUP1 REVERT JUMPDEST POP GAS CALL ISZERO DUP1 ISZERO PUSH2 0x182 JUMPI RETURNDATASIZE PUSH1 0x0 DUP1 RETURNDATACOPY RETURNDATASIZE PUSH1 0x0 REVERT JUMPDEST POP POP PUSH1 0x40 MLOAD PUSH20 0xFFFFFFFFFFFFFFFFFFFFFFFFFFFFFFFFFFFFFFFF DUP5 AND DUP2 MSTORE DUP7 SWAP3 POP DUP8 SWAP2 POP PUSH32 0x33B61205835E3063EB8935CAC4B29D7FC333AD80D6CB11893BA4758ADF8CDDE1 SWAP1 PUSH1 0x20 ADD PUSH1 0x40 MLOAD DUP1 SWAP2 SUB SWAP1 LOG3 SWAP5 SWAP4 POP POP POP POP JUMP JUMPDEST PUSH1 0x0 PUSH13 0x5AF43D3D93803E602A57FD5BF3 PUSH1 0x21 MSTORE DUP3 PUSH1 0x14 MSTORE PUSH20 0x602C3D8160093D39F33D3D3D3D363D3D37363D73 PUSH1 0x0 MSTORE DUP2 PUSH1 0x35 PUSH1 0xC PUSH1 0x0 CREATE2 SWAP1 POP DUP1 PUSH2 0x227 JUMPI PUSH4 0x30116425 PUSH1 0x0 MSTORE PUSH1 0x4 PUSH1 0x1C REVERT JUMPDEST PUSH1 0x0 PUSH1 0x21 MSTORE SWAP3 SWAP2 POP POP JUMP JUMPDEST PUSH1 0x0 DUP1 PUSH1 0x40 DUP4 DUP6 SUB SLT ISZERO PUSH2 0x245 JUMPI PUSH1 0x0 DUP1 REVERT JUMPDEST POP POP DUP1 CALLDATALOAD SWAP3 PUSH1 0x20 SWAP1 SWAP2 ADD CALLDATALOAD SWAP2 POP JUMP INVALID LOG2 PUSH5 0x6970667358 0x22 SLT KECCAK256 0xD8 0xB0 BLOCKHASH PUSH30 0x1A28CD9F0AD691AD81667640A0419D8054EE5121C474B80B2CE9BF006473 PUSH16 0x6C634300081400330000000000000000 "},"gasEstimates":{"creation":{"codeDepositCost":"130000","executionCost":"infinite","totalCost":"infinite"},"external":{"create(uint256,uint256)":"infinite","implementation()":"infinite"}},"methodIdentifiers":{"create(uint256,uint256)":"9f7b4579","implementation()":"5c60da1b"}},"storageLayout":{"storage":[],"types":null},"userdoc":{"events":{"NewSignerCreated(uint256,uint256,address)":{"notice":"Emitted when a new P256Signer proxy contract is created"}},"kind":"user","methods":{"create(uint256,uint256)":{"notice":"Creates a new P256Signer proxy contract"},"implementation()":{"notice":"The implementation address of the P256Signer contract"}},"notice":"Factory contract for creating proxies for P256Signer","version":1}}}}