{
  "address": "0x259a123DBb8461f82fa1ed539BA8678e52d3Bda8",
  "abi": [
    {
      "inputs": [],
      "stateMutability": "nonpayable",
      "type": "constructor"
    },
    {
      "inputs": [],
      "name": "AlreadyInitialized",
      "type": "error"
    },
    {
      "inputs": [],
      "name": "InvalidHash",
      "type": "error"
    },
    {
      "inputs": [],
      "name": "InvalidSignature",
      "type": "error"
    },
    {
      "inputs": [
        {
          "internalType": "uint256",
          "name": "x_",
          "type": "uint256"
        },
        {
          "internalType": "uint256",
          "name": "y_",
          "type": "uint256"
        }
      ],
      "name": "initialize",
      "outputs": [],
      "stateMutability": "nonpayable",
      "type": "function"
    },
    {
      "inputs": [],
      "name": "initialized",
      "outputs": [
        {
          "internalType": "bool",
          "name": "",
          "type": "bool"
        }
      ],
      "stateMutability": "view",
      "type": "function"
    },
    {
      "inputs": [
        {
          "internalType": "bytes32",
          "name": "_hash",
          "type": "bytes32"
        },
        {
          "internalType": "bytes",
          "name": "_signature",
          "type": "bytes"
        }
      ],
      "name": "isValidSignature",
      "outputs": [
        {
          "internalType": "bytes4",
          "name": "",
          "type": "bytes4"
        }
      ],
      "stateMutability": "view",
      "type": "function"
    },
    {
      "inputs": [
        {
          "internalType": "bytes",
          "name": "_hash",
          "type": "bytes"
        },
        {
          "internalType": "bytes",
          "name": "_signature",
          "type": "bytes"
        }
      ],
      "name": "isValidSignature",
      "outputs": [
        {
          "internalType": "bytes4",
          "name": "",
          "type": "bytes4"
        }
      ],
      "stateMutability": "view",
      "type": "function"
    },
    {
      "inputs": [],
      "name": "x",
      "outputs": [
        {
          "internalType": "uint256",
          "name": "",
          "type": "uint256"
        }
      ],
      "stateMutability": "view",
      "type": "function"
    },
    {
      "inputs": [],
      "name": "y",
      "outputs": [
        {
          "internalType": "uint256",
          "name": "",
          "type": "uint256"
        }
      ],
      "stateMutability": "view",
      "type": "function"
    }
  ],
  "transactionHash": "0x5d3cb53a8aba607c594df7ba8de8ed095ae42ead5bcef798f6855b5009d5eea1",
  "args": [],
  "numDeployments": 1,
  "solcInputHash": "9a239a13792e7e509c47a689d8b7e7c4",
  "bytecode": "0x608060405234801561001057600080fd5b506000805460ff191660011790556107c18061002d6000396000f3fe608060405234801561001057600080fd5b50600436106100725760003560e01c806320c13b0b1161005057806320c13b0b146100f4578063a56dfe4a14610107578063e4a301161461011057600080fd5b80630c55699c14610077578063158ef93e146100935780631626ba7e146100b0575b600080fd5b61008060015481565b6040519081526020015b60405180910390f35b6000546100a09060ff1681565b604051901515815260200161008a565b6100c36100be366004610475565b610125565b6040517fffffffff00000000000000000000000000000000000000000000000000000000909116815260200161008a565b6100c36101023660046104bc565b61017a565b61008060025481565b61012361011e366004610516565b6101ae565b005b60006101528360405160200161013d91815260200190565b60405160208183030381529060405283610222565b507f1626ba7e0000000000000000000000000000000000000000000000000000000092915050565b60006101868383610222565b507f20c13b0b0000000000000000000000000000000000000000000000000000000092915050565b60005460ff16156101eb576040517f0dc149f000000000000000000000000000000000000000000000000000000000815260040160405180910390fd5b600080547fffffffffffffffffffffffffffffffffffffffffffffffffffffffffffffff0016600190811790915591909155600255565b6000828051906020012090506000806000808580602001905181019061024891906105a9565b935093509350935060007321D84679F9dd3f0e4914a806113CF329368d5253630d5efec9866001878a8888604051806040016040528060015481526020016002548152506040518863ffffffff1660e01b81526004016102ae97969594939291906106da565b602060405180830381865af41580156102cb573d6000803e3d6000fd5b505050506040513d601f19601f820116820180604052508101906102ef9190610762565b905080610328576040517f8baa579f00000000000000000000000000000000000000000000000000000000815260040160405180910390fd5b5050505050505050565b7f4e487b7100000000000000000000000000000000000000000000000000000000600052604160045260246000fd5b6040805190810167ffffffffffffffff8111828210171561038457610384610332565b60405290565b604051601f82017fffffffffffffffffffffffffffffffffffffffffffffffffffffffffffffffe016810167ffffffffffffffff811182821017156103d1576103d1610332565b604052919050565b600067ffffffffffffffff8211156103f3576103f3610332565b50601f017fffffffffffffffffffffffffffffffffffffffffffffffffffffffffffffffe01660200190565b600082601f83011261043057600080fd5b813561044361043e826103d9565b61038a565b81815284602083860101111561045857600080fd5b816020850160208301376000918101602001919091529392505050565b6000806040838503121561048857600080fd5b82359150602083013567ffffffffffffffff8111156104a657600080fd5b6104b28582860161041f565b9150509250929050565b600080604083850312156104cf57600080fd5b823567ffffffffffffffff808211156104e757600080fd5b6104f38683870161041f565b9350602085013591508082111561050957600080fd5b506104b28582860161041f565b6000806040838503121561052957600080fd5b50508035926020909101359150565b60005b8381101561055357818101518382015260200161053b565b50506000910152565b600082601f83011261056d57600080fd5b815161057b61043e826103d9565b81815284602083860101111561059057600080fd5b6105a1826020830160208701610538565b949350505050565b60008060008060a085870312156105bf57600080fd5b845167ffffffffffffffff808211156105d757600080fd5b6105e38883890161055c565b95506020915081870151818111156105fa57600080fd5b61060689828a0161055c565b955050506040860151925086607f87011261062057600080fd5b610628610361565b8060a088018981111561063a57600080fd5b606089015b81811015610656578051845292840192840161063f565b505080935050505092959194509250565b6000815180845261067f816020860160208601610538565b601f017fffffffffffffffffffffffffffffffffffffffffffffffffffffffffffffffe0169290920160200192915050565b8060005b60028110156106d45781518452602093840193909101906001016106b5565b50505050565b60006101208083526106ee8184018b610667565b90507fff000000000000000000000000000000000000000000000000000000000000008960f81b166020840152828103604084015261072d8189610667565b91505085606083015284608083015261074960a08301856106b1565b61075660e08301846106b1565b98975050505050505050565b60006020828403121561077457600080fd5b8151801515811461078457600080fd5b939250505056fea26469706673582212207cd1278d2c8b4857225fb653cc9b5ae2215dc6321928bc580a16e6fac9c293ec64736f6c63430008140033",
  "deployedBytecode": "0x608060405234801561001057600080fd5b50600436106100725760003560e01c806320c13b0b1161005057806320c13b0b146100f4578063a56dfe4a14610107578063e4a301161461011057600080fd5b80630c55699c14610077578063158ef93e146100935780631626ba7e146100b0575b600080fd5b61008060015481565b6040519081526020015b60405180910390f35b6000546100a09060ff1681565b604051901515815260200161008a565b6100c36100be366004610475565b610125565b6040517fffffffff00000000000000000000000000000000000000000000000000000000909116815260200161008a565b6100c36101023660046104bc565b61017a565b61008060025481565b61012361011e366004610516565b6101ae565b005b60006101528360405160200161013d91815260200190565b60405160208183030381529060405283610222565b507f1626ba7e0000000000000000000000000000000000000000000000000000000092915050565b60006101868383610222565b507f20c13b0b0000000000000000000000000000000000000000000000000000000092915050565b60005460ff16156101eb576040517f0dc149f000000000000000000000000000000000000000000000000000000000815260040160405180910390fd5b600080547fffffffffffffffffffffffffffffffffffffffffffffffffffffffffffffff0016600190811790915591909155600255565b6000828051906020012090506000806000808580602001905181019061024891906105a9565b9350935093509350600073__$d89787f8caa2dcaf364e9349db6aeaba37$__630d5efec9866001878a8888604051806040016040528060015481526020016002548152506040518863ffffffff1660e01b81526004016102ae97969594939291906106da565b602060405180830381865af41580156102cb573d6000803e3d6000fd5b505050506040513d601f19601f820116820180604052508101906102ef9190610762565b905080610328576040517f8baa579f00000000000000000000000000000000000000000000000000000000815260040160405180910390fd5b5050505050505050565b7f4e487b7100000000000000000000000000000000000000000000000000000000600052604160045260246000fd5b6040805190810167ffffffffffffffff8111828210171561038457610384610332565b60405290565b604051601f82017fffffffffffffffffffffffffffffffffffffffffffffffffffffffffffffffe016810167ffffffffffffffff811182821017156103d1576103d1610332565b604052919050565b600067ffffffffffffffff8211156103f3576103f3610332565b50601f017fffffffffffffffffffffffffffffffffffffffffffffffffffffffffffffffe01660200190565b600082601f83011261043057600080fd5b813561044361043e826103d9565b61038a565b81815284602083860101111561045857600080fd5b816020850160208301376000918101602001919091529392505050565b6000806040838503121561048857600080fd5b82359150602083013567ffffffffffffffff8111156104a657600080fd5b6104b28582860161041f565b9150509250929050565b600080604083850312156104cf57600080fd5b823567ffffffffffffffff808211156104e757600080fd5b6104f38683870161041f565b9350602085013591508082111561050957600080fd5b506104b28582860161041f565b6000806040838503121561052957600080fd5b50508035926020909101359150565b60005b8381101561055357818101518382015260200161053b565b50506000910152565b600082601f83011261056d57600080fd5b815161057b61043e826103d9565b81815284602083860101111561059057600080fd5b6105a1826020830160208701610538565b949350505050565b60008060008060a085870312156105bf57600080fd5b845167ffffffffffffffff808211156105d757600080fd5b6105e38883890161055c565b95506020915081870151818111156105fa57600080fd5b61060689828a0161055c565b955050506040860151925086607f87011261062057600080fd5b610628610361565b8060a088018981111561063a57600080fd5b606089015b81811015610656578051845292840192840161063f565b505080935050505092959194509250565b6000815180845261067f816020860160208601610538565b601f017fffffffffffffffffffffffffffffffffffffffffffffffffffffffffffffffe0169290920160200192915050565b8060005b60028110156106d45781518452602093840193909101906001016106b5565b50505050565b60006101208083526106ee8184018b610667565b90507fff000000000000000000000000000000000000000000000000000000000000008960f81b166020840152828103604084015261072d8189610667565b91505085606083015284608083015261074960a08301856106b1565b61075660e08301846106b1565b98975050505050505050565b60006020828403121561077457600080fd5b8151801515811461078457600080fd5b939250505056fea26469706673582212207cd1278d2c8b4857225fb653cc9b5ae2215dc6321928bc580a16e6fac9c293ec64736f6c63430008140033",
  "libraries": {
    "WrapperFCLWebAuthn": "0x21D84679F9dd3f0e4914a806113CF329368d5253"
  },
  "devdoc": {
    "details": "This contract is the implementation. It is meant to be used through      proxy clone.",
    "kind": "dev",
    "methods": {
      "initialize(uint256,uint256)": {
        "details": "This function is only callable once and needs to be called immediately      after deployment by the factory in the same transaction.",
        "params": {
          "x_": "The x coordinate of the public key",
          "y_": "The y coordinate of the public key"
        }
      },
      "isValidSignature(bytes,bytes)": {
        "details": "This is the old version of the function of EIP-1271 using bytes      memory instead of bytes32",
        "params": {
          "_hash": "The hash of the data signed",
          "_signature": "The signature"
        },
        "returns": {
          "_0": "The EIP-1271 magic value"
        }
      },
      "isValidSignature(bytes32,bytes)": {
        "params": {
          "_hash": "The hash of the data signed",
          "_signature": "The signature"
        },
        "returns": {
          "_0": "The EIP-1271 magic value"
        }
      }
    },
    "title": "P256Signer",
    "version": 1
  },
  "userdoc": {
    "errors": {
      "AlreadyInitialized()": [
        {
          "notice": "Error message when the contract is already initialized"
        }
      ],
      "InvalidHash()": [
        {
          "notice": "Error message when the hash is invalid"
        }
      ],
      "InvalidSignature()": [
        {
          "notice": "Error message when the signature is invalid"
        }
      ]
    },
    "kind": "user",
    "methods": {
      "initialized()": {
        "notice": "Whether the contract has been initialized"
      },
      "isValidSignature(bytes,bytes)": {
        "notice": "Verifies that the signer is the owner of the secp256r1 public key."
      },
      "isValidSignature(bytes32,bytes)": {
        "notice": "Verifies that the signer is the owner of the secp256r1 public key."
      },
      "x()": {
        "notice": "The x coordinate of the secp256r1 public key"
      },
      "y()": {
        "notice": "The y coordinate of the secp256r1 public key"
      }
    },
    "notice": "A contract used to verify ECDSA signatures over secp256r1 through         EIP-1271 of Webauthn payloads.",
    "version": 1
  },
  "storageLayout": {
    "storage": [
      {
        "astId": 1989,
        "contract": "contracts/P256Signer.sol:P256Signer",
        "label": "initialized",
        "offset": 0,
        "slot": "0",
        "type": "t_bool"
      },
      {
        "astId": 1992,
        "contract": "contracts/P256Signer.sol:P256Signer",
        "label": "x",
        "offset": 0,
        "slot": "1",
        "type": "t_uint256"
      },
      {
        "astId": 1995,
        "contract": "contracts/P256Signer.sol:P256Signer",
        "label": "y",
        "offset": 0,
        "slot": "2",
        "type": "t_uint256"
      }
    ],
    "types": {
      "t_bool": {
        "encoding": "inplace",
        "label": "bool",
        "numberOfBytes": "1"
      },
      "t_uint256": {
        "encoding": "inplace",
        "label": "uint256",
        "numberOfBytes": "32"
      }
    }
  }
}