{
  "address": "0x04641D72fbE21Db00c1d2f04d19E8206fB8D1eD3",
  "abi": [
    {
      "inputs": [],
      "name": "InvalidAuthenticatorData",
      "type": "error"
    },
    {
      "inputs": [],
      "name": "InvalidClientData",
      "type": "error"
    },
    {
      "inputs": [
        {
          "internalType": "bytes",
          "name": "authenticatorData",
          "type": "bytes"
        },
        {
          "internalType": "bytes1",
          "name": "authenticatorDataFlagMask",
          "type": "bytes1"
        },
        {
          "internalType": "bytes",
          "name": "clientData",
          "type": "bytes"
        },
        {
          "internalType": "bytes32",
          "name": "clientChallenge",
          "type": "bytes32"
        },
        {
          "internalType": "uint256",
          "name": "clientChallengeDataOffset",
          "type": "uint256"
        },
        {
          "internalType": "uint256[2]",
          "name": "rs",
          "type": "uint256[2]"
        },
        {
          "internalType": "uint256[2]",
          "name": "Q",
          "type": "uint256[2]"
        }
      ],
      "name": "checkSignature",
      "outputs": [
        {
          "internalType": "bool",
          "name": "",
          "type": "bool"
        }
      ],
      "stateMutability": "view",
      "type": "function"
    }
  ],
  "transactionHash": "0xb95e7faef0c1f6bc44314c62be6b3fa39e10aa75c4da539768acc28fe5125edd",
  "args": [],
  "numDeployments": 2,
  "solcInputHash": "5775f6fb0e5df41b1e0121d96a0fbccf",
  "bytecode": "0x611c2961003a600b82828239805160001a60731461002d57634e487b7160e01b600052600060045260246000fd5b30600052607381538281f3fe73000000000000000000000000000000000000000030146080604052600436106100355760003560e01c80630d5efec91461003a575b600080fd5b61004d6100483660046119c0565b610061565b604051901515815260200160405180910390f35b6000867effffffffffffffffffffffffffffffffffffffffffffffffffffffffffffff1916878960208151811061009a5761009a611a95565b0160200151167fff0000000000000000000000000000000000000000000000000000000000000016146100f9576040517ffc93479200000000000000000000000000000000000000000000000000000000815260040160405180910390fd5b60006101258660405160200161011191815260200190565b60405160208183030381529060405261035b565b90506000815167ffffffffffffffff81111561014357610143611876565b6040519080825280601f01601f19166020018201604052801561016d576020820181803683370190505b50905061017f88878351846000610484565b50806040516020016101919190611ac4565b60405160208183030381529060405280519060200120826040516020016101b89190611ac4565b6040516020818303038152906040528051906020012014610205576040517febab5d2900000000000000000000000000000000000000000000000000000000815260040160405180910390fd5b60008a5160206102159190611b22565b67ffffffffffffffff81111561022d5761022d611876565b6040519080825280601f01601f191660200182016040528015610257576020820181803683370190505b50905061026a8b60008d51846000610484565b506102eb60028a60405161027e9190611ac4565b602060405180830381855afa15801561029b573d6000803e3d6000fd5b5050506040513d601f19601f820116820180604052508101906102be9190611b35565b6040516020016102d091815260200190565b60405160208183030381529060405260006020848f51610484565b5060006002826040516102fe9190611ac4565b602060405180830381855afa15801561031b573d6000803e3d6000fd5b5050506040513d601f19601f8201168201806040525081019061033e9190611b35565b905061034b818888610512565b9c9b505050505050505050505050565b6060815160000361037a57505060408051602081019091526000815290565b6000604051806060016040528060408152602001611bb4604091399050600060016003855160026103ab9190611b22565b6103b59190611b4e565b6103c0906004611b89565b6103ca9190611ba0565b67ffffffffffffffff8111156103e2576103e2611876565b6040519080825280601f01601f19166020018201604052801561040c576020820181803683370190505b509050600182016020820185865187015b80821015610478576003820191508151603f8160121c168501518453600184019350603f81600c1c168501518453600184019350603f8160061c168501518453600184019350603f811685015184535060018301925061041d565b50929695505050505050565b606060006104928386611b22565b905080845110156104a257600080fd5b60006104af876020611b22565b905060006104be856020611b22565b90505b866104cd896020611b22565b6104d79190611b22565b8210156105055788820151868201526104f1602083611b22565b91506104fe602082611b22565b90506104c1565b5093979650505050505050565b81516000901580610544575082517fffffffff00000000ffffffffffffffffbce6faada7179e84f3b9cac2fc63255111155b8061055157506020830151155b80610580575060208301517fffffffff00000000ffffffffffffffffbce6faada7179e84f3b9cac2fc63255111155b1561058d575060006106a7565b8151602083015161059e91906106ae565b6105aa575060006106a7565b60006105e684600160200201516105e1907fffffffff00000000ffffffffffffffffbce6faada7179e84f3b9cac2fc632551611ba0565b610827565b905060007fffffffff00000000ffffffffffffffffbce6faada7179e84f3b9cac2fc632551828709905060007fffffffff00000000ffffffffffffffffbce6faada7179e84f3b9cac2fc6325518387600060200201510985516020870151919250600091610656919085856108b0565b90507fffffffff00000000ffffffffffffffffbce6faada7179e84f3b9cac2fc63255187517fffffffff00000000ffffffffffffffffbce6faada7179e84f3b9cac2fc632551038208159450505050505b9392505050565b60008215806106dc57507fffffffff00000001000000000000000000000000ffffffffffffffffffffffff83145b806106e5575081155b8061070f57507fffffffff00000001000000000000000000000000ffffffffffffffffffffffff82145b1561071c57506000610821565b60007fffffffff00000001000000000000000000000000ffffffffffffffffffffffff838409905060007fffffffff00000001000000000000000000000000ffffffffffffffffffffffff807fffffffff00000001000000000000000000000000fffffffffffffffffffffffc87097fffffffff00000001000000000000000000000000ffffffffffffffffffffffff877fffffffff00000001000000000000000000000000ffffffffffffffffffffffff898a09090890507fffffffff00000001000000000000000000000000ffffffffffffffffffffffff7f5ac635d8aa3a93e7b3ebbd55769886bc651d06b0cc53b0f63bce3c3e27d2604b8208919091149150505b92915050565b6000610831611858565b60208152602080820152602060408201528260608201527fffffffff00000000ffffffffffffffffbce6faada7179e84f3b9cac2fc63254f60808201527fffffffff00000000ffffffffffffffffbce6faada7179e84f3b9cac2fc63255160a082015260208160c0836005600019fa6108a957600080fd5b5192915050565b600080808060ff6108bf611858565b600080891580156108ce575088155b156108e35760009750505050505050506113f6565b61092f7f6b17d1f2e12c4247f8bce6e563a440f277037d812deb33a0f4a13945d898c2967f4fe342e2fe1a7f9b8ee7eb4a7c0f9e162bce33576b315ececbb6406837bf51f58e8e6113fe565b809250819350505060018a851c1660018a861c1660011b015b8061096a5760018503945060018b861c1660018b871c1660011b019050610948565b5060018a851c1660018a861c1660011b019650600187036109cc577f6b17d1f2e12c4247f8bce6e563a440f277037d812deb33a0f4a13945d898c29697507f4fe342e2fe1a7f9b8ee7eb4a7c0f9e162bce33576b315ececbb6406837bf51f594505b600287036109db578b97508a94505b600387036109ea578197508094505b60018403935060019650600195505b837fffffffffffffffffffffffffffffffffffffffffffffffffffffffffffffffff111561134f577fffffffff00000001000000000000000000000000ffffffffffffffffffffffff856002097fffffffff00000001000000000000000000000000ffffffffffffffffffffffff8182097fffffffff00000001000000000000000000000000ffffffffffffffffffffffff818b097fffffffff00000001000000000000000000000000ffffffffffffffffffffffff82840992507fffffffff00000001000000000000000000000000ffffffffffffffffffffffff807fffffffff00000001000000000000000000000000ffffffffffffffffffffffff8c8e087fffffffff00000001000000000000000000000000ffffffffffffffffffffffff8d7fffffffff00000001000000000000000000000000ffffffffffffffffffffffff038f08096003097fffffffff00000001000000000000000000000000ffffffffffffffffffffffff8a850999507fffffffff00000001000000000000000000000000ffffffffffffffffffffffff8b84099a507fffffffff00000001000000000000000000000000ffffffffffffffffffffffff80837fffffffff00000001000000000000000000000000fffffffffffffffffffffffd097fffffffff00000001000000000000000000000000ffffffffffffffffffffffff838409089b507fffffffff00000001000000000000000000000000ffffffffffffffffffffffff80837fffffffff00000001000000000000000000000000ffffffffffffffffffffffff038e08820992507fffffffff00000001000000000000000000000000ffffffffffffffffffffffff837fffffffff00000001000000000000000000000000ffffffffffffffffffffffff8b870908985060018e891c1660018e8a1c1660011b01905080610cd557887fffffffff00000001000000000000000000000000ffffffffffffffffffffffff03985050505050611344565b60018103610d24577f6b17d1f2e12c4247f8bce6e563a440f277037d812deb33a0f4a13945d898c29693507f4fe342e2fe1a7f9b8ee7eb4a7c0f9e162bce33576b315ececbb6406837bf51f592505b60028103610d33578f93508e92505b60038103610d42578593508492505b7fffffffff00000001000000000000000000000000ffffffffffffffffffffffff897fffffffff00000001000000000000000000000000ffffffffffffffffffffffff8c8609087fffffffff00000001000000000000000000000000ffffffffffffffffffffffff8d7fffffffff00000001000000000000000000000000ffffffffffffffffffffffff037fffffffff00000001000000000000000000000000ffffffffffffffffffffffff8e88090893508061113d578361113d577fffffffff00000001000000000000000000000000ffffffffffffffffffffffff8a60020994507fffffffff00000001000000000000000000000000ffffffffffffffffffffffff85860993507fffffffff00000001000000000000000000000000ffffffffffffffffffffffff848e0992507fffffffff00000001000000000000000000000000ffffffffffffffffffffffff8486097fffffffff00000001000000000000000000000000ffffffffffffffffffffffff8d8f0891507fffffffff00000001000000000000000000000000ffffffffffffffffffffffff8d7fffffffff00000001000000000000000000000000ffffffffffffffffffffffff038f0890507fffffffff00000001000000000000000000000000ffffffffffffffffffffffff8183099150507fffffffff00000001000000000000000000000000ffffffffffffffffffffffff8c8e0893507fffffffff00000001000000000000000000000000ffffffffffffffffffffffff8c7fffffffff00000001000000000000000000000000ffffffffffffffffffffffff038e0894507fffffffff00000001000000000000000000000000ffffffffffffffffffffffff84860993507fffffffff00000001000000000000000000000000ffffffffffffffffffffffff8460030991507fffffffff00000001000000000000000000000000ffffffffffffffffffffffff8b86099a507fffffffff00000001000000000000000000000000ffffffffffffffffffffffff8c85099b507fffffffff00000001000000000000000000000000ffffffffffffffffffffffff80847fffffffff00000001000000000000000000000000fffffffffffffffffffffffd097fffffffff00000001000000000000000000000000ffffffffffffffffffffffff848509089c507fffffffff00000001000000000000000000000000ffffffffffffffffffffffff808e7fffffffff00000001000000000000000000000000ffffffffffffffffffffffff038508830993507fffffffff00000001000000000000000000000000ffffffffffffffffffffffff808b87097fffffffff00000001000000000000000000000000ffffffffffffffffffffffff03850899505050505050611344565b7fffffffff00000001000000000000000000000000ffffffffffffffffffffffff84850991507fffffffff00000001000000000000000000000000ffffffffffffffffffffffff8483097fffffffff00000001000000000000000000000000ffffffffffffffffffffffff838e099c507fffffffff00000001000000000000000000000000ffffffffffffffffffffffff818d099b507fffffffff00000001000000000000000000000000ffffffffffffffffffffffff838f097fffffffff00000001000000000000000000000000ffffffffffffffffffffffff80827fffffffff00000001000000000000000000000000fffffffffffffffffffffffd097fffffffff00000001000000000000000000000000ffffffffffffffffffffffff847fffffffff00000001000000000000000000000000ffffffffffffffffffffffff037fffffffff00000001000000000000000000000000ffffffffffffffffffffffff878809080893507fffffffff00000001000000000000000000000000ffffffffffffffffffffffff80838e097fffffffff00000001000000000000000000000000ffffffffffffffffffffffff857fffffffff00000001000000000000000000000000ffffffffffffffffffffffff887fffffffff00000001000000000000000000000000ffffffffffffffffffffffff03860809089b50505050809b50505050505b6001840393506109f9565b86606084015260208352602080840152602060408401527fffffffff00000001000000000000000000000000fffffffffffffffffffffffd60808401527fffffffff00000001000000000000000000000000ffffffffffffffffffffffff60a084015260208360c0856005600019fa6113c757600080fd5b7fffffffff00000001000000000000000000000000ffffffffffffffffffffffff835189099750505050505050505b949350505050565b600080808086611415578585935093505050611453565b84611427578585935093505050611453565b61143688886001808a8a61145c565b929a509098509250905061144c88888484611721565b9350935050505b94509492505050565b6000806000808860000361147b57508492508391506001905080611714565b7fffffffff00000001000000000000000000000000ffffffffffffffffffffffff9889039889818988090894507fffffffff00000001000000000000000000000000ffffffffffffffffffffffff8a7fffffffff00000001000000000000000000000000ffffffffffffffffffffffff037fffffffff00000001000000000000000000000000ffffffffffffffffffffffff8a89090895507fffffffff00000001000000000000000000000000ffffffffffffffffffffffff86870993507fffffffff00000001000000000000000000000000ffffffffffffffffffffffff86850992507fffffffff00000001000000000000000000000000ffffffffffffffffffffffff84890991507fffffffff00000001000000000000000000000000ffffffffffffffffffffffff83880990507fffffffff00000001000000000000000000000000ffffffffffffffffffffffff848b0997507fffffffff00000001000000000000000000000000ffffffffffffffffffffffff80897fffffffff00000001000000000000000000000000fffffffffffffffffffffffd097fffffffff00000001000000000000000000000000ffffffffffffffffffffffff857fffffffff00000001000000000000000000000000ffffffffffffffffffffffff037fffffffff00000001000000000000000000000000ffffffffffffffffffffffff898a09080893507fffffffff00000001000000000000000000000000ffffffffffffffffffffffff80848b097fffffffff00000001000000000000000000000000ffffffffffffffffffffffff877fffffffff00000001000000000000000000000000ffffffffffffffffffffffff887fffffffff00000001000000000000000000000000ffffffffffffffffffffffff038d08090892505b9650965096509692505050565b600080600061172f846117d6565b90507fffffffff00000001000000000000000000000000ffffffffffffffffffffffff818709915060007fffffffff00000001000000000000000000000000ffffffffffffffffffffffff82870990507fffffffff00000001000000000000000000000000ffffffffffffffffffffffff81820991507fffffffff00000001000000000000000000000000ffffffffffffffffffffffff8289099350505094509492505050565b60006117e0611858565b60208152602080820152602060408201528260608201527fffffffff00000001000000000000000000000000fffffffffffffffffffffffd60808201527fffffffff00000001000000000000000000000000ffffffffffffffffffffffff60a082015260208160c0836005600019fa6108a957600080fd5b6040518060c001604052806006906020820280368337509192915050565b7f4e487b7100000000000000000000000000000000000000000000000000000000600052604160045260246000fd5b600082601f8301126118b657600080fd5b813567ffffffffffffffff808211156118d1576118d1611876565b604051601f83017fffffffffffffffffffffffffffffffffffffffffffffffffffffffffffffffe0908116603f0116810190828211818310171561191757611917611876565b8160405283815286602085880101111561193057600080fd5b836020870160208301376000602085830101528094505050505092915050565b600082601f83011261196157600080fd5b6040516040810181811067ffffffffffffffff8211171561198457611984611876565b806040525080604084018581111561199b57600080fd5b845b818110156119b557803583526020928301920161199d565b509195945050505050565b6000806000806000806000610120888a0312156119dc57600080fd5b873567ffffffffffffffff808211156119f457600080fd5b611a008b838c016118a5565b985060208a013591507fff0000000000000000000000000000000000000000000000000000000000000082168214611a3757600080fd5b90965060408901359080821115611a4d57600080fd5b50611a5a8a828b016118a5565b9550506060880135935060808801359250611a788960a08a01611950565b9150611a878960e08a01611950565b905092959891949750929550565b7f4e487b7100000000000000000000000000000000000000000000000000000000600052603260045260246000fd5b6000825160005b81811015611ae55760208186018101518583015201611acb565b506000920191825250919050565b7f4e487b7100000000000000000000000000000000000000000000000000000000600052601160045260246000fd5b8082018082111561082157610821611af3565b600060208284031215611b4757600080fd5b5051919050565b600082611b84577f4e487b7100000000000000000000000000000000000000000000000000000000600052601260045260246000fd5b500490565b808202811582820484141761082157610821611af3565b8181038181111561082157610821611af356fe4142434445464748494a4b4c4d4e4f505152535455565758595a6162636465666768696a6b6c6d6e6f707172737475767778797a303132333435363738392d5fa2646970667358221220eaf1ca98e985a08fe491859d37834dbac7eb9a1ebdab70e43752f69cd829dd8a64736f6c63430008110033",
  "devdoc": {
    "kind": "dev",
    "methods": {},
    "version": 1
  },
  "userdoc": {
    "kind": "user",
    "methods": {},
    "version": 1
  },
  "storageLayout": {
    "storage": [],
    "types": null
  }
}