{
  "_format": "hh-sol-artifact-1",
  "contractName": "P256Signer",
  "sourceName": "contracts/P256Signer.sol",
  "abi": [
    {
      "inputs": [],
      "name": "InvalidHash",
      "type": "error"
    },
    {
      "inputs": [],
      "name": "InvalidSignature",
      "type": "error"
    },
    {
      "inputs": [
        {
          "internalType": "bytes32",
          "name": "_hash",
          "type": "bytes32"
        },
        {
          "internalType": "bytes",
          "name": "_signature",
          "type": "bytes"
        }
      ],
      "name": "isValidSignature",
      "outputs": [
        {
          "internalType": "bytes4",
          "name": "",
          "type": "bytes4"
        }
      ],
      "stateMutability": "view",
      "type": "function"
    },
    {
      "inputs": [
        {
          "internalType": "bytes",
          "name": "_hash",
          "type": "bytes"
        },
        {
          "internalType": "bytes",
          "name": "_signature",
          "type": "bytes"
        }
      ],
      "name": "isValidSignature",
      "outputs": [
        {
          "internalType": "bytes4",
          "name": "",
          "type": "bytes4"
        }
      ],
      "stateMutability": "view",
      "type": "function"
    },
    {
      "inputs": [],
      "name": "x",
      "outputs": [
        {
          "internalType": "uint256",
          "name": "",
          "type": "uint256"
        }
      ],
      "stateMutability": "pure",
      "type": "function"
    },
    {
      "inputs": [],
      "name": "y",
      "outputs": [
        {
          "internalType": "uint256",
          "name": "",
          "type": "uint256"
        }
      ],
      "stateMutability": "pure",
      "type": "function"
    }
  ],
  "bytecode": "0x608060405234801561001057600080fd5b5061077b806100206000396000f3fe608060405234801561001057600080fd5b506004361061004c5760003560e01c80630c55699c146100515780631626ba7e1461009057806320c13b0b146100d4578063a56dfe4a146100e7575b600080fd5b367ffffffffffffffffffffffffffffffffffffffffffffffffffffffffffffffffe81013560f01c9003355b6040519081526020015b60405180910390f35b6100a361009e366004610451565b61011a565b6040517fffffffff000000000000000000000000000000000000000000000000000000009091168152602001610087565b6100a36100e2366004610498565b61016f565b367ffffffffffffffffffffffffffffffffffffffffffffffffffffffffffffffffe81013560f01c90036020013561007d565b60006101478360405160200161013291815260200190565b604051602081830303815290604052836101a3565b507f1626ba7e0000000000000000000000000000000000000000000000000000000092915050565b600061017b83836101a3565b507f20c13b0b0000000000000000000000000000000000000000000000000000000092915050565b600082805190602001209050600080600080858060200190518101906101c99190610563565b9350935093509350600073__$84047ae21dcd4eb7d6018436351b69d321$__630d5efec9866001878a888860405180604001604052806102317ffffffffffffffffffffffffffffffffffffffffffffffffffffffffffffffffe369081013560f01c90033590565b8152602090810190367ffffffffffffffffffffffffffffffffffffffffffffffffffffffffffffffffe81013560f01c900301358152506040518863ffffffff1660e01b815260040161028a9796959493929190610694565b602060405180830381865af41580156102a7573d6000803e3d6000fd5b505050506040513d601f19601f820116820180604052508101906102cb919061071c565b905080610304576040517f8baa579f00000000000000000000000000000000000000000000000000000000815260040160405180910390fd5b5050505050505050565b7f4e487b7100000000000000000000000000000000000000000000000000000000600052604160045260246000fd5b6040805190810167ffffffffffffffff811182821017156103605761036061030e565b60405290565b604051601f82017fffffffffffffffffffffffffffffffffffffffffffffffffffffffffffffffe016810167ffffffffffffffff811182821017156103ad576103ad61030e565b604052919050565b600067ffffffffffffffff8211156103cf576103cf61030e565b50601f017fffffffffffffffffffffffffffffffffffffffffffffffffffffffffffffffe01660200190565b600082601f83011261040c57600080fd5b813561041f61041a826103b5565b610366565b81815284602083860101111561043457600080fd5b816020850160208301376000918101602001919091529392505050565b6000806040838503121561046457600080fd5b82359150602083013567ffffffffffffffff81111561048257600080fd5b61048e858286016103fb565b9150509250929050565b600080604083850312156104ab57600080fd5b823567ffffffffffffffff808211156104c357600080fd5b6104cf868387016103fb565b935060208501359150808211156104e557600080fd5b5061048e858286016103fb565b60005b8381101561050d5781810151838201526020016104f5565b50506000910152565b600082601f83011261052757600080fd5b815161053561041a826103b5565b81815284602083860101111561054a57600080fd5b61055b8260208301602087016104f2565b949350505050565b60008060008060a0858703121561057957600080fd5b845167ffffffffffffffff8082111561059157600080fd5b61059d88838901610516565b95506020915081870151818111156105b457600080fd5b6105c089828a01610516565b955050506040860151925086607f8701126105da57600080fd5b6105e261033d565b8060a08801898111156105f457600080fd5b606089015b8181101561061057805184529284019284016105f9565b505080935050505092959194509250565b600081518084526106398160208601602086016104f2565b601f017fffffffffffffffffffffffffffffffffffffffffffffffffffffffffffffffe0169290920160200192915050565b8060005b600281101561068e57815184526020938401939091019060010161066f565b50505050565b60006101208083526106a88184018b610621565b90507fff000000000000000000000000000000000000000000000000000000000000008960f81b16602084015282810360408401526106e78189610621565b91505085606083015284608083015261070360a083018561066b565b61071060e083018461066b565b98975050505050505050565b60006020828403121561072e57600080fd5b8151801515811461073e57600080fd5b939250505056fea26469706673582212203a12e1f1aae2d280a0958bdf457d65d056186d23131e72961040e41b2c490d7364736f6c63430008110033",
  "linkReferences": {
    "contracts/Webauthn.sol": {
      "Webauthn": [
        {
          "length": 20,
          "start": 501
        }
      ]
    }
  },
  "deployedLinkReferences": {
    "contracts/Webauthn.sol": {
      "Webauthn": [
        {
          "length": 20,
          "start": 469
        }
      ]
    }
  }
}