{
  "_format": "hh-sol-artifact-1",
  "contractName": "P256Signer",
  "sourceName": "contracts/P256Signer.sol",
  "abi": [
    {
      "inputs": [
        {
          "internalType": "address",
          "name": "FCLWebAuthn_",
          "type": "address"
        }
      ],
      "stateMutability": "nonpayable",
      "type": "constructor"
    },
    {
      "inputs": [],
      "name": "AlreadyInitialized",
      "type": "error"
    },
    {
      "inputs": [],
      "name": "InvalidHash",
      "type": "error"
    },
    {
      "inputs": [],
      "name": "InvalidSignature",
      "type": "error"
    },
    {
      "inputs": [],
      "name": "FCLWebAuthn",
      "outputs": [
        {
          "internalType": "contract WrapperFCLWebAuthn",
          "name": "",
          "type": "address"
        }
      ],
      "stateMutability": "view",
      "type": "function"
    },
    {
      "inputs": [
        {
          "internalType": "uint256",
          "name": "x_",
          "type": "uint256"
        },
        {
          "internalType": "uint256",
          "name": "y_",
          "type": "uint256"
        }
      ],
      "name": "initialize",
      "outputs": [],
      "stateMutability": "nonpayable",
      "type": "function"
    },
    {
      "inputs": [],
      "name": "initialized",
      "outputs": [
        {
          "internalType": "bool",
          "name": "",
          "type": "bool"
        }
      ],
      "stateMutability": "view",
      "type": "function"
    },
    {
      "inputs": [
        {
          "internalType": "bytes32",
          "name": "_hash",
          "type": "bytes32"
        },
        {
          "internalType": "bytes",
          "name": "_signature",
          "type": "bytes"
        }
      ],
      "name": "isValidSignature",
      "outputs": [
        {
          "internalType": "bytes4",
          "name": "",
          "type": "bytes4"
        }
      ],
      "stateMutability": "view",
      "type": "function"
    },
    {
      "inputs": [
        {
          "internalType": "bytes",
          "name": "_hash",
          "type": "bytes"
        },
        {
          "internalType": "bytes",
          "name": "_signature",
          "type": "bytes"
        }
      ],
      "name": "isValidSignature",
      "outputs": [
        {
          "internalType": "bytes4",
          "name": "",
          "type": "bytes4"
        }
      ],
      "stateMutability": "view",
      "type": "function"
    },
    {
      "inputs": [],
      "name": "x",
      "outputs": [
        {
          "internalType": "uint256",
          "name": "",
          "type": "uint256"
        }
      ],
      "stateMutability": "view",
      "type": "function"
    },
    {
      "inputs": [],
      "name": "y",
      "outputs": [
        {
          "internalType": "uint256",
          "name": "",
          "type": "uint256"
        }
      ],
      "stateMutability": "view",
      "type": "function"
    }
  ],
  "bytecode": "0x60a060405234801561001057600080fd5b506040516108d93803806108d983398101604081905261002f9161004d565b6000805460ff191660011790556001600160a01b031660805261007d565b60006020828403121561005f57600080fd5b81516001600160a01b038116811461007657600080fd5b9392505050565b60805161083a61009f6000396000818161012001526102ab015261083a6000f3fe608060405234801561001057600080fd5b506004361061007d5760003560e01c806320c13b0b1161005b57806320c13b0b146100ff578063a56dfe4a14610112578063c71187f01461011b578063e4a301161461016757600080fd5b80630c55699c14610082578063158ef93e1461009e5780631626ba7e146100bb575b600080fd5b61008b60015481565b6040519081526020015b60405180910390f35b6000546100ab9060ff1681565b6040519015158152602001610095565b6100ce6100c93660046104ee565b61017c565b6040517fffffffff000000000000000000000000000000000000000000000000000000009091168152602001610095565b6100ce61010d366004610535565b6101d1565b61008b60025481565b6101427f000000000000000000000000000000000000000000000000000000000000000081565b60405173ffffffffffffffffffffffffffffffffffffffff9091168152602001610095565b61017a61017536600461058f565b610205565b005b60006101a98360405160200161019491815260200190565b60405160208183030381529060405283610279565b507f1626ba7e0000000000000000000000000000000000000000000000000000000092915050565b60006101dd8383610279565b507f20c13b0b0000000000000000000000000000000000000000000000000000000092915050565b60005460ff1615610242576040517f0dc149f000000000000000000000000000000000000000000000000000000000815260040160405180910390fd5b600080547fffffffffffffffffffffffffffffffffffffffffffffffffffffffffffffff0016600190811790915591909155600255565b6000828051906020012090506000806000808580602001905181019061029f9190610622565b935093509350935060007f000000000000000000000000000000000000000000000000000000000000000073ffffffffffffffffffffffffffffffffffffffff16630d5efec9866001878a8888604051806040016040528060015481526020016002548152506040518863ffffffff1660e01b81526004016103279796959493929190610753565b602060405180830381865afa158015610344573d6000803e3d6000fd5b505050506040513d601f19601f8201168201806040525081019061036891906107db565b9050806103a1576040517f8baa579f00000000000000000000000000000000000000000000000000000000815260040160405180910390fd5b5050505050505050565b7f4e487b7100000000000000000000000000000000000000000000000000000000600052604160045260246000fd5b6040805190810167ffffffffffffffff811182821017156103fd576103fd6103ab565b60405290565b604051601f82017fffffffffffffffffffffffffffffffffffffffffffffffffffffffffffffffe016810167ffffffffffffffff8111828210171561044a5761044a6103ab565b604052919050565b600067ffffffffffffffff82111561046c5761046c6103ab565b50601f017fffffffffffffffffffffffffffffffffffffffffffffffffffffffffffffffe01660200190565b600082601f8301126104a957600080fd5b81356104bc6104b782610452565b610403565b8181528460208386010111156104d157600080fd5b816020850160208301376000918101602001919091529392505050565b6000806040838503121561050157600080fd5b82359150602083013567ffffffffffffffff81111561051f57600080fd5b61052b85828601610498565b9150509250929050565b6000806040838503121561054857600080fd5b823567ffffffffffffffff8082111561056057600080fd5b61056c86838701610498565b9350602085013591508082111561058257600080fd5b5061052b85828601610498565b600080604083850312156105a257600080fd5b50508035926020909101359150565b60005b838110156105cc5781810151838201526020016105b4565b50506000910152565b600082601f8301126105e657600080fd5b81516105f46104b782610452565b81815284602083860101111561060957600080fd5b61061a8260208301602087016105b1565b949350505050565b60008060008060a0858703121561063857600080fd5b845167ffffffffffffffff8082111561065057600080fd5b61065c888389016105d5565b955060209150818701518181111561067357600080fd5b61067f89828a016105d5565b955050506040860151925086607f87011261069957600080fd5b6106a16103da565b8060a08801898111156106b357600080fd5b606089015b818110156106cf57805184529284019284016106b8565b505080935050505092959194509250565b600081518084526106f88160208601602086016105b1565b601f017fffffffffffffffffffffffffffffffffffffffffffffffffffffffffffffffe0169290920160200192915050565b8060005b600281101561074d57815184526020938401939091019060010161072e565b50505050565b60006101208083526107678184018b6106e0565b90507fff000000000000000000000000000000000000000000000000000000000000008960f81b16602084015282810360408401526107a681896106e0565b9150508560608301528460808301526107c260a083018561072a565b6107cf60e083018461072a565b98975050505050505050565b6000602082840312156107ed57600080fd5b815180151581146107fd57600080fd5b939250505056fea2646970667358221220e2459884096b6098f1ab893e1294550f8a6f46ac1414f13f4ba4f26cfbfbffe664736f6c63430008140033",
  "linkReferences": {},
  "deployedLinkReferences": {}
}