{
  "_format": "hh-sol-artifact-1",
  "contractName": "P256SignerFactory",
  "sourceName": "contracts/P256SignerFactory.sol",
  "abi": [
    {
      "inputs": [
        {
          "internalType": "address",
          "name": "implementation_",
          "type": "address"
        }
      ],
      "stateMutability": "nonpayable",
      "type": "constructor"
    },
    {
      "anonymous": false,
      "inputs": [
        {
          "indexed": true,
          "internalType": "uint256",
          "name": "x",
          "type": "uint256"
        },
        {
          "indexed": true,
          "internalType": "uint256",
          "name": "y",
          "type": "uint256"
        },
        {
          "indexed": false,
          "internalType": "address",
          "name": "signer",
          "type": "address"
        }
      ],
      "name": "NewSignerCreated",
      "type": "event"
    },
    {
      "inputs": [
        {
          "internalType": "uint256",
          "name": "x",
          "type": "uint256"
        },
        {
          "internalType": "uint256",
          "name": "y",
          "type": "uint256"
        }
      ],
      "name": "create",
      "outputs": [],
      "stateMutability": "nonpayable",
      "type": "function"
    },
    {
      "inputs": [],
      "name": "implementation",
      "outputs": [
        {
          "internalType": "address",
          "name": "",
          "type": "address"
        }
      ],
      "stateMutability": "view",
      "type": "function"
    }
  ],
  "bytecode": "0x60a060405234801561001057600080fd5b506040516103a33803806103a383398101604081905261002f91610040565b6001600160a01b0316608052610070565b60006020828403121561005257600080fd5b81516001600160a01b038116811461006957600080fd5b9392505050565b608051610313610090600039600081816040015260f601526103136000f3fe608060405234801561001057600080fd5b50600436106100365760003560e01c80635c60da1b1461003b5780639f7b45791461008b575b600080fd5b6100627f000000000000000000000000000000000000000000000000000000000000000081565b60405173ffffffffffffffffffffffffffffffffffffffff909116815260200160405180910390f35b61009e6100993660046102bb565b6100a0565b005b6040805160208101849052908101829052600090606001604080517fffffffffffffffffffffffffffffffffffffffffffffffffffffffffffffffe081840301815291905280516020820120909150600061011c7f00000000000000000000000000000000000000000000000000000000000000008484610173565b60405173ffffffffffffffffffffffffffffffffffffffff82168152909150849086907f33b61205835e3063eb8935cac4b29d7fc333ad80d6cb11893ba4758adf8cdde19060200160405180910390a35050505050565b600060608303516040840351602085035185518060208801018051600283016c5af43d3d93803e606057fd5bf38a528a600d8b035278593da1005b363d3d373d3d3d3d610000806062363936013d738160481b1760218b03527f9e4ac34f21c619cefc926c8bd93b54bf5a39c7ab2127a895af1cc0691d7e3dff603a8b035272fd6100003d81600a3d39f336602c57343d527f6062820160781b1761ff9e82106059018b03528060f01b835288606c8201604c8c036000f5975050866102415763301164256000526004601cfd5b905286527fffffffffffffffffffffffffffffffffffffffffffffffffffffffffffffffe08601527fffffffffffffffffffffffffffffffffffffffffffffffffffffffffffffffc08501527fffffffffffffffffffffffffffffffffffffffffffffffffffffffffffffffa09093019290925250919050565b600080604083850312156102ce57600080fd5b5050803592602090910135915056fea2646970667358221220c378d22d8298a7cfe6219c594ac3989bb58ae565a7681bc622a7eee52cec6dd764736f6c63430008110033",
  "linkReferences": {},
  "deployedLinkReferences": {}
}