{
  "_format": "hh-sol-artifact-1",
  "contractName": "P256SignerFactory",
  "sourceName": "contracts/P256SignerFactory.sol",
  "abi": [
    {
      "inputs": [
        {
          "internalType": "address",
          "name": "implementation_",
          "type": "address"
        }
      ],
      "stateMutability": "nonpayable",
      "type": "constructor"
    },
    {
      "anonymous": false,
      "inputs": [
        {
          "indexed": true,
          "internalType": "uint256",
          "name": "x",
          "type": "uint256"
        },
        {
          "indexed": true,
          "internalType": "uint256",
          "name": "y",
          "type": "uint256"
        },
        {
          "indexed": false,
          "internalType": "address",
          "name": "signer",
          "type": "address"
        }
      ],
      "name": "NewSignerCreated",
      "type": "event"
    },
    {
      "inputs": [
        {
          "internalType": "uint256",
          "name": "x",
          "type": "uint256"
        },
        {
          "internalType": "uint256",
          "name": "y",
          "type": "uint256"
        }
      ],
      "name": "create",
      "outputs": [
        {
          "internalType": "address",
          "name": "",
          "type": "address"
        }
      ],
      "stateMutability": "nonpayable",
      "type": "function"
    },
    {
      "inputs": [],
      "name": "implementation",
      "outputs": [
        {
          "internalType": "address",
          "name": "",
          "type": "address"
        }
      ],
      "stateMutability": "view",
      "type": "function"
    }
  ],
  "bytecode": "0x60a060405234801561001057600080fd5b5060405161031a38038061031a83398101604081905261002f91610040565b6001600160a01b0316608052610070565b60006020828403121561005257600080fd5b81516001600160a01b038116811461006957600080fd5b9392505050565b60805161028a610090600039600081816040015260d7015261028a6000f3fe608060405234801561001057600080fd5b50600436106100365760003560e01c80635c60da1b1461003b5780639f7b45791461008b575b600080fd5b6100627f000000000000000000000000000000000000000000000000000000000000000081565b60405173ffffffffffffffffffffffffffffffffffffffff909116815260200160405180910390f35b610062610099366004610232565b60008083836040516020016100b8929190918252602082015260400190565b60405160208183030381529060405280519060200120905060006100fc7f0000000000000000000000000000000000000000000000000000000000000000836101db565b6040517fe4a30116000000000000000000000000000000000000000000000000000000008152600481018790526024810186905290915073ffffffffffffffffffffffffffffffffffffffff82169063e4a3011690604401600060405180830381600087803b15801561016e57600080fd5b505af1158015610182573d6000803e3d6000fd5b505060405173ffffffffffffffffffffffffffffffffffffffff841681528692508791507f33b61205835e3063eb8935cac4b29d7fc333ad80d6cb11893ba4758adf8cdde19060200160405180910390a3949350505050565b60006c5af43d3d93803e602a57fd5bf36021528260145273602c3d8160093d39f33d3d3d3d363d3d37363d73600052816035600c6000f59050806102275763301164256000526004601cfd5b600060215292915050565b6000806040838503121561024557600080fd5b5050803592602090910135915056fea2646970667358221220d58b58802d5c7747f06cdad3d5dae1daf849ad475c9f80c8a469c68e8b50b75264736f6c63430008140033",
  "linkReferences": {},
  "deployedLinkReferences": {}
}