{
  "_format": "hh-sol-artifact-1",
  "contractName": "FCL_Elliptic_ZZ",
  "sourceName": "FreshCryptoLib/FCL_elliptic.sol",
  "abi": [
    {
      "inputs": [
        {
          "internalType": "uint256",
          "name": "alpha",
          "type": "uint256"
        },
        {
          "internalType": "uint256",
          "name": "x",
          "type": "uint256"
        },
        {
          "internalType": "uint256",
          "name": "y",
          "type": "uint256"
        },
        {
          "internalType": "uint256",
          "name": "zz",
          "type": "uint256"
        },
        {
          "internalType": "uint256",
          "name": "zzz",
          "type": "uint256"
        }
      ],
      "name": "ecZZ_Coronize",
      "outputs": [
        {
          "internalType": "uint256",
          "name": "x3",
          "type": "uint256"
        },
        {
          "internalType": "uint256",
          "name": "y3",
          "type": "uint256"
        },
        {
          "internalType": "uint256",
          "name": "zz3",
          "type": "uint256"
        },
        {
          "internalType": "uint256",
          "name": "zzz3",
          "type": "uint256"
        }
      ],
      "stateMutability": "pure",
      "type": "function"
    },
    {
      "inputs": [
        {
          "internalType": "uint256",
          "name": "h",
          "type": "uint256"
        },
        {
          "internalType": "uint256",
          "name": "v",
          "type": "uint256"
        },
        {
          "internalType": "uint256",
          "name": "r",
          "type": "uint256"
        },
        {
          "internalType": "uint256",
          "name": "s",
          "type": "uint256"
        }
      ],
      "name": "ec_recover_r1",
      "outputs": [
        {
          "internalType": "address",
          "name": "",
          "type": "address"
        }
      ],
      "stateMutability": "view",
      "type": "function"
    },
    {
      "inputs": [
        {
          "internalType": "bytes32",
          "name": "message",
          "type": "bytes32"
        },
        {
          "internalType": "uint256",
          "name": "k",
          "type": "uint256"
        },
        {
          "internalType": "uint256",
          "name": "kpriv",
          "type": "uint256"
        }
      ],
      "name": "ecdsa_sign",
      "outputs": [
        {
          "internalType": "uint256",
          "name": "r",
          "type": "uint256"
        },
        {
          "internalType": "uint256",
          "name": "s",
          "type": "uint256"
        }
      ],
      "stateMutability": "view",
      "type": "function"
    }
  ],
  "bytecode": "0x61226761003a600b82828239805160001a60731461002d57634e487b7160e01b600052600060045260246000fd5b30600052607381538281f3fe730000000000000000000000000000000000000000301460806040526004361061004b5760003560e01c80635f67f323146100505780637f99d9601461008d578063e982f355146100c0575b600080fd5b61006361005e36600461215e565b6100e8565b60405173ffffffffffffffffffffffffffffffffffffffff90911681526020015b60405180910390f35b6100a061009b366004612190565b610264565b604080519485526020850193909352918301526060820152608001610084565b6100d36100ce3660046121cb565b61035b565b60408051928352602083019190915201610084565b600082158061011757507fffffffff00000000ffffffffffffffffbce6faada7179e84f3b9cac2fc6325518310155b80610120575081155b8061014b57507fffffffff00000000ffffffffffffffffbce6faada7179e84f3b9cac2fc6325518210155b156101585750600061025c565b600061016e84610169601b886121f7565b610406565b9050600061017b8561055b565b905060007fffffffff00000000ffffffffffffffffbce6faada7179e84f3b9cac2fc632551827fffffffff00000000ffffffffffffffffbce6faada7179e84f3b9cac2fc6325518a6000086101f0907fffffffff00000000ffffffffffffffffbce6faada7179e84f3b9cac2fc6325516121f7565b09905060007fffffffff00000000ffffffffffffffffbce6faada7179e84f3b9cac2fc632551838709905060008061022a898786866105df565b604080516020808201949094528082019290925280518083038201815260609092019052805191012096505050505050505b949350505050565b6000808080807fffffffff00000001000000000000000000000000ffffffffffffffffffffffff8a8b0990507fffffffff00000001000000000000000000000000ffffffffffffffffffffffff89820994507fffffffff00000001000000000000000000000000ffffffffffffffffffffffff887fffffffff00000001000000000000000000000000ffffffffffffffffffffffff838d090993507fffffffff00000001000000000000000000000000ffffffffffffffffffffffff81880992507fffffffff00000001000000000000000000000000ffffffffffffffffffffffff80828c09870991505095509550955095915050565b60008061036c600080866000611132565b91507fffffffff00000000ffffffffffffffffbce6faada7179e84f3b9cac2fc6325518260000891507fffffffff00000000ffffffffffffffffbce6faada7179e84f3b9cac2fc632551807fffffffff00000000ffffffffffffffffbce6faada7179e84f3b9cac2fc63255185850987086103e68661055b565b0990508115806103f4575080155b156103fe57600080fd5b935093915050565b6000807fffffffff00000001000000000000000000000000ffffffffffffffffffffffff80858609850990507fffffffff00000001000000000000000000000000ffffffffffffffffffffffff807fffffffff00000001000000000000000000000000ffffffffffffffffffffffff7fffffffff00000001000000000000000000000000fffffffffffffffffffffffc870983087f5ac635d8aa3a93e7b3ebbd55769886bc651d06b0cc53b0f63bce3c3e27d2604b0890506104c781611bf9565b91507fffffffff00000002000000000000000000000000ffffffffffffffffffffffff8203610519577fffffffff00000003000000000000000000000000ffffffffffffffffffffffff915050610555565b82600116826001161461055357610550827fffffffff00000001000000000000000000000000ffffffffffffffffffffffff6121f7565b91505b505b92915050565b600060405160208152602080820152602060408201528260608201527fffffffff00000000ffffffffffffffffbce6faada7179e84f3b9cac2fc63254f60808201527fffffffff00000000ffffffffffffffffbce6faada7179e84f3b9cac2fc63255160a082015260208160c0836005600019fa6105d857600080fd5b5192915050565b600080808060ff6105ee612122565b6105f6612140565b88158015610602575087155b1561061857600080965096505050505050611129565b6106647f6b17d1f2e12c4247f8bce6e563a440f277037d812deb33a0f4a13945d898c2967f4fe342e2fe1a7f9b8ee7eb4a7c0f9e162bce33576b315ececbb6406837bf51f58d8d611cce565b6020830152815288831c600190811689851c90911b600216015b806106a05760018403935060018a851c1660018a861c1660011b01905061067e565b50600189841c16600189851c1660011b01945060018503610702577f6b17d1f2e12c4247f8bce6e563a440f277037d812deb33a0f4a13945d898c29696507f4fe342e2fe1a7f9b8ee7eb4a7c0f9e162bce33576b315ececbb6406837bf51f595505b60028503610711578a96508995505b600385036107255760208101519550805196505b60018303925060019450600193505b827fffffffffffffffffffffffffffffffffffffffffffffffffffffffffffffffff1115611011577fffffffff00000001000000000000000000000000ffffffffffffffffffffffff866002097fffffffff00000001000000000000000000000000ffffffffffffffffffffffff8182097fffffffff00000001000000000000000000000000ffffffffffffffffffffffff818a097fffffffff00000001000000000000000000000000ffffffffffffffffffffffff82840992507fffffffff00000001000000000000000000000000ffffffffffffffffffffffff807fffffffff00000001000000000000000000000000ffffffffffffffffffffffff8a8d087fffffffff00000001000000000000000000000000ffffffffffffffffffffffff8b7fffffffff00000001000000000000000000000000ffffffffffffffffffffffff038e08096003097fffffffff00000001000000000000000000000000ffffffffffffffffffffffff88850997507fffffffff00000001000000000000000000000000ffffffffffffffffffffffff89840998507fffffffff00000001000000000000000000000000ffffffffffffffffffffffff80837fffffffff00000001000000000000000000000000fffffffffffffffffffffffd097fffffffff00000001000000000000000000000000ffffffffffffffffffffffff838409089a507fffffffff00000001000000000000000000000000ffffffffffffffffffffffff80837fffffffff00000001000000000000000000000000ffffffffffffffffffffffff038d08820992507fffffffff00000001000000000000000000000000ffffffffffffffffffffffff837fffffffff00000001000000000000000000000000ffffffffffffffffffffffff8c870908995060018d881c1660018d891c1660011b01905080610a1057897fffffffff00000001000000000000000000000000ffffffffffffffffffffffff03995050505050611006565b60018103610a5f577f6b17d1f2e12c4247f8bce6e563a440f277037d812deb33a0f4a13945d898c29693507f4fe342e2fe1a7f9b8ee7eb4a7c0f9e162bce33576b315ececbb6406837bf51f592505b60028103610a6e578e93508d92505b60038103610a825784519350602085015192505b88610a9b57509198509650600195508594506110069050565b7fffffffff00000001000000000000000000000000ffffffffffffffffffffffff8a7fffffffff00000001000000000000000000000000ffffffffffffffffffffffff8a8609087fffffffff00000001000000000000000000000000ffffffffffffffffffffffff8c7fffffffff00000001000000000000000000000000ffffffffffffffffffffffff037fffffffff00000001000000000000000000000000ffffffffffffffffffffffff8c880908935080610dff5783610dff577fffffffff00000001000000000000000000000000ffffffffffffffffffffffff8b7fffffffff00000001000000000000000000000000fffffffffffffffffffffffd0994507fffffffff00000001000000000000000000000000ffffffffffffffffffffffff85860993507fffffffff00000001000000000000000000000000ffffffffffffffffffffffff848d0992507fffffffff00000001000000000000000000000000ffffffffffffffffffffffff84860994507fffffffff00000001000000000000000000000000ffffffffffffffffffffffff8a8d0890507fffffffff00000001000000000000000000000000ffffffffffffffffffffffff8a7fffffffff00000001000000000000000000000000ffffffffffffffffffffffff038d087fffffffff00000001000000000000000000000000ffffffffffffffffffffffff81830991507fffffffff00000001000000000000000000000000ffffffffffffffffffffffff8260030992507fffffffff00000001000000000000000000000000ffffffffffffffffffffffff8a82099950507fffffffff00000001000000000000000000000000ffffffffffffffffffffffff8a850999507fffffffff00000001000000000000000000000000ffffffffffffffffffffffff80847fffffffff00000001000000000000000000000000fffffffffffffffffffffffd097fffffffff00000001000000000000000000000000ffffffffffffffffffffffff848509089b507fffffffff00000001000000000000000000000000ffffffffffffffffffffffff808d7fffffffff00000001000000000000000000000000ffffffffffffffffffffffff038508830993507fffffffff00000001000000000000000000000000ffffffffffffffffffffffff808c870985089a505050505050611006565b7fffffffff00000001000000000000000000000000ffffffffffffffffffffffff84850991507fffffffff00000001000000000000000000000000ffffffffffffffffffffffff8483097fffffffff00000001000000000000000000000000ffffffffffffffffffffffff838c099a507fffffffff00000001000000000000000000000000ffffffffffffffffffffffff818b0999507fffffffff00000001000000000000000000000000ffffffffffffffffffffffff838e097fffffffff00000001000000000000000000000000ffffffffffffffffffffffff80827fffffffff00000001000000000000000000000000fffffffffffffffffffffffd097fffffffff00000001000000000000000000000000ffffffffffffffffffffffff847fffffffff00000001000000000000000000000000ffffffffffffffffffffffff037fffffffff00000001000000000000000000000000ffffffffffffffffffffffff878809080893507fffffffff00000001000000000000000000000000ffffffffffffffffffffffff80838f097fffffffff00000001000000000000000000000000ffffffffffffffffffffffff857fffffffff00000001000000000000000000000000ffffffffffffffffffffffff887fffffffff00000001000000000000000000000000ffffffffffffffffffffffff03860809089c50505050809a50505050505b600183039250610734565b83606083015260208252602080830152602060408301527fffffffff00000001000000000000000000000000fffffffffffffffffffffffd60808301527fffffffff00000001000000000000000000000000ffffffffffffffffffffffff60a083015260208260c0846005600019fa61108957600080fd5b7fffffffff00000001000000000000000000000000ffffffffffffffffffffffff8251870995507fffffffff00000001000000000000000000000000ffffffffffffffffffffffff8251860994507fffffffff00000001000000000000000000000000ffffffffffffffffffffffff85860994507fffffffff00000001000000000000000000000000ffffffffffffffffffffffff858809965050505050505b94509492505050565b600080808060ff818088158015611147575087155b1561115b576000965050505050505061025c565b6111a77f6b17d1f2e12c4247f8bce6e563a440f277037d812deb33a0f4a13945d898c2967f4fe342e2fe1a7f9b8ee7eb4a7c0f9e162bce33576b315ececbb6406837bf51f58d8d611cce565b8092508193505050600189841c16600189851c1660011b015b806111e25760018403935060018a851c1660018a861c1660011b0190506111c0565b50600189841c16600189851c1660011b01955060018603611244577f6b17d1f2e12c4247f8bce6e563a440f277037d812deb33a0f4a13945d898c29696507f4fe342e2fe1a7f9b8ee7eb4a7c0f9e162bce33576b315ececbb6406837bf51f593505b60028603611253578a96508993505b60038603611262578196508093505b60018303925060019550600194505b827fffffffffffffffffffffffffffffffffffffffffffffffffffffffffffffffff1115611b49577fffffffff00000001000000000000000000000000ffffffffffffffffffffffff846002097fffffffff00000001000000000000000000000000ffffffffffffffffffffffff8182097fffffffff00000001000000000000000000000000ffffffffffffffffffffffff818a097fffffffff00000001000000000000000000000000ffffffffffffffffffffffff82840992507fffffffff00000001000000000000000000000000ffffffffffffffffffffffff807fffffffff00000001000000000000000000000000ffffffffffffffffffffffff8b8d087fffffffff00000001000000000000000000000000ffffffffffffffffffffffff8c7fffffffff00000001000000000000000000000000ffffffffffffffffffffffff038e08096003097fffffffff00000001000000000000000000000000ffffffffffffffffffffffff89850998507fffffffff00000001000000000000000000000000ffffffffffffffffffffffff8a840999507fffffffff00000001000000000000000000000000ffffffffffffffffffffffff80837fffffffff00000001000000000000000000000000fffffffffffffffffffffffd097fffffffff00000001000000000000000000000000ffffffffffffffffffffffff838409089a507fffffffff00000001000000000000000000000000ffffffffffffffffffffffff80837fffffffff00000001000000000000000000000000ffffffffffffffffffffffff038d08820992507fffffffff00000001000000000000000000000000ffffffffffffffffffffffff837fffffffff00000001000000000000000000000000ffffffffffffffffffffffff8a870908975060018d881c1660018d891c1660011b0190508061154d57877fffffffff00000001000000000000000000000000ffffffffffffffffffffffff03975050505050611b3e565b6001810361159c577f6b17d1f2e12c4247f8bce6e563a440f277037d812deb33a0f4a13945d898c29693507f4fe342e2fe1a7f9b8ee7eb4a7c0f9e162bce33576b315ececbb6406837bf51f592505b600281036115ab578e93508d92505b600381036115ba578593508492505b896115d35750919850600197508796509450611b3e9050565b7fffffffff00000001000000000000000000000000ffffffffffffffffffffffff887fffffffff00000001000000000000000000000000ffffffffffffffffffffffff8b8609087fffffffff00000001000000000000000000000000ffffffffffffffffffffffff8c7fffffffff00000001000000000000000000000000ffffffffffffffffffffffff037fffffffff00000001000000000000000000000000ffffffffffffffffffffffff8d8809089350806119375783611937577fffffffff00000001000000000000000000000000ffffffffffffffffffffffff897fffffffff00000001000000000000000000000000fffffffffffffffffffffffd0994507fffffffff00000001000000000000000000000000ffffffffffffffffffffffff85860993507fffffffff00000001000000000000000000000000ffffffffffffffffffffffff848d0992507fffffffff00000001000000000000000000000000ffffffffffffffffffffffff84860994507fffffffff00000001000000000000000000000000ffffffffffffffffffffffff8b8d0890507fffffffff00000001000000000000000000000000ffffffffffffffffffffffff8b7fffffffff00000001000000000000000000000000ffffffffffffffffffffffff038d087fffffffff00000001000000000000000000000000ffffffffffffffffffffffff81830991507fffffffff00000001000000000000000000000000ffffffffffffffffffffffff8260030992507fffffffff00000001000000000000000000000000ffffffffffffffffffffffff8b82099a50507fffffffff00000001000000000000000000000000ffffffffffffffffffffffff8b85099a507fffffffff00000001000000000000000000000000ffffffffffffffffffffffff80847fffffffff00000001000000000000000000000000fffffffffffffffffffffffd097fffffffff00000001000000000000000000000000ffffffffffffffffffffffff848509089b507fffffffff00000001000000000000000000000000ffffffffffffffffffffffff808d7fffffffff00000001000000000000000000000000ffffffffffffffffffffffff038508830993507fffffffff00000001000000000000000000000000ffffffffffffffffffffffff808a8709850898505050505050611b3e565b7fffffffff00000001000000000000000000000000ffffffffffffffffffffffff84850991507fffffffff00000001000000000000000000000000ffffffffffffffffffffffff8483097fffffffff00000001000000000000000000000000ffffffffffffffffffffffff838d099b507fffffffff00000001000000000000000000000000ffffffffffffffffffffffff818c099a507fffffffff00000001000000000000000000000000ffffffffffffffffffffffff838e097fffffffff00000001000000000000000000000000ffffffffffffffffffffffff80827fffffffff00000001000000000000000000000000fffffffffffffffffffffffd097fffffffff00000001000000000000000000000000ffffffffffffffffffffffff847fffffffff00000001000000000000000000000000ffffffffffffffffffffffff037fffffffff00000001000000000000000000000000ffffffffffffffffffffffff878809080893507fffffffff00000001000000000000000000000000ffffffffffffffffffffffff80838d097fffffffff00000001000000000000000000000000ffffffffffffffffffffffff857fffffffff00000001000000000000000000000000ffffffffffffffffffffffff887fffffffff00000001000000000000000000000000ffffffffffffffffffffffff03860809089a50505050809a50505050505b600183039250611271565b60405186606082015260208152602080820152602060408201527fffffffff00000001000000000000000000000000fffffffffffffffffffffffd60808201527fffffffff00000001000000000000000000000000ffffffffffffffffffffffff60a082015260208160c0836005600019fa611bc457600080fd5b7fffffffff00000001000000000000000000000000ffffffffffffffffffffffff815189099c9b505050505050505050505050565b600060405160208152602080820152602060408201528260608201527f3fffffffc0000000400000000000000000000000400000000000000000000000608082015260a081017fffffffff00000001000000000000000000000000ffffffffffffffffffffffff815260208160c0846005600019fa611c7757600080fd5b5191508290507fffffffff00000001000000000000000000000000ffffffffffffffffffffffff82830914611cc957507fffffffff00000002000000000000000000000000ffffffffffffffffffffffff5b919050565b600080808086611ce5578585935093505050611129565b84611cf7578787935093505050611129565b611d0688886001808a8a611d2b565b929a5090985092509050611d1c88888484611ff0565b93509350505094509492505050565b60008060008088600003611d4a57508492508391506001905080611fe3565b7fffffffff00000001000000000000000000000000ffffffffffffffffffffffff9889039889818988090894507fffffffff00000001000000000000000000000000ffffffffffffffffffffffff8a7fffffffff00000001000000000000000000000000ffffffffffffffffffffffff037fffffffff00000001000000000000000000000000ffffffffffffffffffffffff8a89090895507fffffffff00000001000000000000000000000000ffffffffffffffffffffffff86870993507fffffffff00000001000000000000000000000000ffffffffffffffffffffffff86850992507fffffffff00000001000000000000000000000000ffffffffffffffffffffffff84890991507fffffffff00000001000000000000000000000000ffffffffffffffffffffffff83880990507fffffffff00000001000000000000000000000000ffffffffffffffffffffffff848b0997507fffffffff00000001000000000000000000000000ffffffffffffffffffffffff80897fffffffff00000001000000000000000000000000fffffffffffffffffffffffd097fffffffff00000001000000000000000000000000ffffffffffffffffffffffff857fffffffff00000001000000000000000000000000ffffffffffffffffffffffff037fffffffff00000001000000000000000000000000ffffffffffffffffffffffff898a09080893507fffffffff00000001000000000000000000000000ffffffffffffffffffffffff80848b097fffffffff00000001000000000000000000000000ffffffffffffffffffffffff877fffffffff00000001000000000000000000000000ffffffffffffffffffffffff887fffffffff00000001000000000000000000000000ffffffffffffffffffffffff038d08090892505b9650965096509692505050565b6000806000611ffe846120a5565b90507fffffffff00000001000000000000000000000000ffffffffffffffffffffffff818709915060007fffffffff00000001000000000000000000000000ffffffffffffffffffffffff82870990507fffffffff00000001000000000000000000000000ffffffffffffffffffffffff81820991507fffffffff00000001000000000000000000000000ffffffffffffffffffffffff8289099350505094509492505050565b600060405160208152602080820152602060408201528260608201527fffffffff00000001000000000000000000000000fffffffffffffffffffffffd60808201527fffffffff00000001000000000000000000000000ffffffffffffffffffffffff60a082015260208160c0836005600019fa6105d857600080fd5b6040518060c001604052806006906020820280368337509192915050565b60405180604001604052806002906020820280368337509192915050565b6000806000806080858703121561217457600080fd5b5050823594602084013594506040840135936060013592509050565b600080600080600060a086880312156121a857600080fd5b505083359560208501359550604085013594606081013594506080013592509050565b6000806000606084860312156121e057600080fd5b505081359360208301359350604090920135919050565b81810381811115610555577f4e487b7100000000000000000000000000000000000000000000000000000000600052601160045260246000fdfea2646970667358221220e95d75cac5be2e930b8af42215213dbddb970eb865b0823981765d03ccbc4f6c64736f6c63430008140033",
  "linkReferences": {},
  "deployedLinkReferences": {}
}