{
  "_format": "hh-sol-artifact-1",
  "contractName": "WrapperFCLWebAuthn",
  "sourceName": "contracts/FCL/WrapperFCLWebAuthn.sol",
  "abi": [
    {
      "inputs": [],
      "name": "InvalidAuthenticatorData",
      "type": "error"
    },
    {
      "inputs": [],
      "name": "InvalidClientData",
      "type": "error"
    },
    {
      "inputs": [
        {
          "internalType": "bytes",
          "name": "authenticatorData",
          "type": "bytes"
        },
        {
          "internalType": "bytes1",
          "name": "authenticatorDataFlagMask",
          "type": "bytes1"
        },
        {
          "internalType": "bytes",
          "name": "clientData",
          "type": "bytes"
        },
        {
          "internalType": "bytes32",
          "name": "clientChallenge",
          "type": "bytes32"
        },
        {
          "internalType": "uint256",
          "name": "clientChallengeDataOffset",
          "type": "uint256"
        },
        {
          "internalType": "uint256[2]",
          "name": "rs",
          "type": "uint256[2]"
        },
        {
          "internalType": "uint256[2]",
          "name": "Q",
          "type": "uint256[2]"
        }
      ],
      "name": "checkSignature",
      "outputs": [
        {
          "internalType": "bool",
          "name": "",
          "type": "bool"
        }
      ],
      "stateMutability": "view",
      "type": "function"
    }
  ],
  "bytecode": "0x608060405234801561001057600080fd5b50611a32806100206000396000f3fe608060405234801561001057600080fd5b506004361061002b5760003560e01c80630d5efec914610030575b600080fd5b61004361003e366004611793565b610057565b604051901515815260200160405180910390f35b600061006a8a8a8a8a8a8a8a8a8a610078565b9a9950505050505050505050565b60008061008b8b8b8b8b8b8b8b8b6100aa565b9050600061009a82868661034d565b9c9b505050505050505050505050565b60007fff000000000000000000000000000000000000000000000000000000000000008716878a8a60208181106100e3576100e3611872565b9050013560f81c60f81b167effffffffffffffffffffffffffffffffffffffffffffffffffffffffffffff191614610147576040517ffc93479200000000000000000000000000000000000000000000000000000000815260040160405180910390fd5b60006101738560405160200161015f91815260200190565b6040516020818303038152906040526104af565b90506000815167ffffffffffffffff811115610191576101916118a1565b6040519080825280601f01601f1916602001820160405280156101bb576020820181803683370190505b50905080518589016020830137600081516020830120905080836040516020016101e591906118d0565b6040516020818303038152906040528051906020012014610232576040517febab5d2900000000000000000000000000000000000000000000000000000000815260040160405180910390fd5b5060009150610244905089602061192e565b67ffffffffffffffff81111561025c5761025c6118a1565b6040519080825280601f01601f191660200182016040528015610286576020820181803683370190505b509050888a60208301376000600288886040516102a4929190611941565b602060405180830381855afa1580156102c1573d6000803e3d6000fd5b5050506040513d601f19601f820116820180604052508101906102e49190611951565b90508060208b018301526002826040516102fe91906118d0565b602060405180830381855afa15801561031b573d6000803e3d6000fd5b5050506040513d601f19601f8201168201806040525081019061033e9190611951565b9b9a5050505050505050505050565b60008235602084013581158061038357507fffffffff00000000ffffffffffffffffbce6faada7179e84f3b9cac2fc6325518210155b8061038c575080155b806103b757507fffffffff00000000ffffffffffffffffbce6faada7179e84f3b9cac2fc6325518110155b156103c7576000925050506104a8565b833560208501356103d8828261061e565b6103e95760009450505050506104a8565b60006103f484610797565b905060007fffffffff00000000ffffffffffffffffbce6faada7179e84f3b9cac2fc632551828b09905060007fffffffff00000000ffffffffffffffffbce6faada7179e84f3b9cac2fc632551838809905060006104548686858561081b565b90507fffffffff00000000ffffffffffffffffbce6faada7179e84f3b9cac2fc632551887fffffffff00000000ffffffffffffffffbce6faada7179e84f3b9cac2fc63255103820815985050505050505050505b9392505050565b606081516000036104ce57505060408051602081019091526000815290565b60006040518060600160405280604081526020016119bd60409139905060006003845160026104fd919061192e565b610507919061196a565b6105129060046119a5565b67ffffffffffffffff81111561052a5761052a6118a1565b6040519080825280601f01601f191660200182016040528015610554576020820181803683370190505b509050600182016020820185865187015b808210156105c0576003820191508151603f8160121c168501518453600184019350603f81600c1c168501518453600184019350603f8160061c168501518453600184019350603f8116850151845350600183019250610565565b50506003865106600181146105dc57600281146105e7576105ee565b6002820391506105ee565b6001820391505b508290037fffffffffffffffffffffffffffffffffffffffffffffffffffffffffffffffe0018252509392505050565b600082158061064c57507fffffffff00000001000000000000000000000000ffffffffffffffffffffffff83145b80610655575081155b8061067f57507fffffffff00000001000000000000000000000000ffffffffffffffffffffffff82145b1561068c57506000610791565b60007fffffffff00000001000000000000000000000000ffffffffffffffffffffffff838409905060007fffffffff00000001000000000000000000000000ffffffffffffffffffffffff807fffffffff00000001000000000000000000000000fffffffffffffffffffffffc87097fffffffff00000001000000000000000000000000ffffffffffffffffffffffff877fffffffff00000001000000000000000000000000ffffffffffffffffffffffff898a09090890507fffffffff00000001000000000000000000000000ffffffffffffffffffffffff7f5ac635d8aa3a93e7b3ebbd55769886bc651d06b0cc53b0f63bce3c3e27d2604b8208919091149150505b92915050565b600060405160208152602080820152602060408201528260608201527fffffffff00000000ffffffffffffffffbce6faada7179e84f3b9cac2fc63254f60808201527fffffffff00000000ffffffffffffffffbce6faada7179e84f3b9cac2fc63255160a082015260208160c0836005600019fa61081457600080fd5b5192915050565b600080808060ff818088158015610830575087155b1561084457600096505050505050506112dc565b6108907f6b17d1f2e12c4247f8bce6e563a440f277037d812deb33a0f4a13945d898c2967f4fe342e2fe1a7f9b8ee7eb4a7c0f9e162bce33576b315ececbb6406837bf51f58d8d6112e4565b8092508193505050600189841c16600189851c1660011b015b806108cb5760018403935060018a851c1660018a861c1660011b0190506108a9565b50600189841c16600189851c1660011b0195506001860361092d577f6b17d1f2e12c4247f8bce6e563a440f277037d812deb33a0f4a13945d898c29696507f4fe342e2fe1a7f9b8ee7eb4a7c0f9e162bce33576b315ececbb6406837bf51f593505b6002860361093c578a96508993505b6003860361094b578196508093505b60018303925060019550600194505b827fffffffffffffffffffffffffffffffffffffffffffffffffffffffffffffffff1115611232577fffffffff00000001000000000000000000000000ffffffffffffffffffffffff846002097fffffffff00000001000000000000000000000000ffffffffffffffffffffffff8182097fffffffff00000001000000000000000000000000ffffffffffffffffffffffff818a097fffffffff00000001000000000000000000000000ffffffffffffffffffffffff82840992507fffffffff00000001000000000000000000000000ffffffffffffffffffffffff807fffffffff00000001000000000000000000000000ffffffffffffffffffffffff8b8d087fffffffff00000001000000000000000000000000ffffffffffffffffffffffff8c7fffffffff00000001000000000000000000000000ffffffffffffffffffffffff038e08096003097fffffffff00000001000000000000000000000000ffffffffffffffffffffffff89850998507fffffffff00000001000000000000000000000000ffffffffffffffffffffffff8a840999507fffffffff00000001000000000000000000000000ffffffffffffffffffffffff80837fffffffff00000001000000000000000000000000fffffffffffffffffffffffd097fffffffff00000001000000000000000000000000ffffffffffffffffffffffff838409089a507fffffffff00000001000000000000000000000000ffffffffffffffffffffffff80837fffffffff00000001000000000000000000000000ffffffffffffffffffffffff038d08820992507fffffffff00000001000000000000000000000000ffffffffffffffffffffffff837fffffffff00000001000000000000000000000000ffffffffffffffffffffffff8a870908975060018d881c1660018d891c1660011b01905080610c3657877fffffffff00000001000000000000000000000000ffffffffffffffffffffffff03975050505050611227565b60018103610c85577f6b17d1f2e12c4247f8bce6e563a440f277037d812deb33a0f4a13945d898c29693507f4fe342e2fe1a7f9b8ee7eb4a7c0f9e162bce33576b315ececbb6406837bf51f592505b60028103610c94578e93508d92505b60038103610ca3578593508492505b89610cbc57509198506001975087965094506112279050565b7fffffffff00000001000000000000000000000000ffffffffffffffffffffffff887fffffffff00000001000000000000000000000000ffffffffffffffffffffffff8b8609087fffffffff00000001000000000000000000000000ffffffffffffffffffffffff8c7fffffffff00000001000000000000000000000000ffffffffffffffffffffffff037fffffffff00000001000000000000000000000000ffffffffffffffffffffffff8d8809089350806110205783611020577fffffffff00000001000000000000000000000000ffffffffffffffffffffffff897fffffffff00000001000000000000000000000000fffffffffffffffffffffffd0994507fffffffff00000001000000000000000000000000ffffffffffffffffffffffff85860993507fffffffff00000001000000000000000000000000ffffffffffffffffffffffff848d0992507fffffffff00000001000000000000000000000000ffffffffffffffffffffffff84860994507fffffffff00000001000000000000000000000000ffffffffffffffffffffffff8b8d0890507fffffffff00000001000000000000000000000000ffffffffffffffffffffffff8b7fffffffff00000001000000000000000000000000ffffffffffffffffffffffff038d087fffffffff00000001000000000000000000000000ffffffffffffffffffffffff81830991507fffffffff00000001000000000000000000000000ffffffffffffffffffffffff8260030992507fffffffff00000001000000000000000000000000ffffffffffffffffffffffff8b82099a50507fffffffff00000001000000000000000000000000ffffffffffffffffffffffff8b85099a507fffffffff00000001000000000000000000000000ffffffffffffffffffffffff80847fffffffff00000001000000000000000000000000fffffffffffffffffffffffd097fffffffff00000001000000000000000000000000ffffffffffffffffffffffff848509089b507fffffffff00000001000000000000000000000000ffffffffffffffffffffffff808d7fffffffff00000001000000000000000000000000ffffffffffffffffffffffff038508830993507fffffffff00000001000000000000000000000000ffffffffffffffffffffffff808a8709850898505050505050611227565b7fffffffff00000001000000000000000000000000ffffffffffffffffffffffff84850991507fffffffff00000001000000000000000000000000ffffffffffffffffffffffff8483097fffffffff00000001000000000000000000000000ffffffffffffffffffffffff838d099b507fffffffff00000001000000000000000000000000ffffffffffffffffffffffff818c099a507fffffffff00000001000000000000000000000000ffffffffffffffffffffffff838e097fffffffff00000001000000000000000000000000ffffffffffffffffffffffff80827fffffffff00000001000000000000000000000000fffffffffffffffffffffffd097fffffffff00000001000000000000000000000000ffffffffffffffffffffffff847fffffffff00000001000000000000000000000000ffffffffffffffffffffffff037fffffffff00000001000000000000000000000000ffffffffffffffffffffffff878809080893507fffffffff00000001000000000000000000000000ffffffffffffffffffffffff80838d097fffffffff00000001000000000000000000000000ffffffffffffffffffffffff857fffffffff00000001000000000000000000000000ffffffffffffffffffffffff887fffffffff00000001000000000000000000000000ffffffffffffffffffffffff03860809089a50505050809a50505050505b60018303925061095a565b60405186606082015260208152602080820152602060408201527fffffffff00000001000000000000000000000000fffffffffffffffffffffffd60808201527fffffffff00000001000000000000000000000000ffffffffffffffffffffffff60a082015260208160c0836005600019fa6112ad57600080fd5b7fffffffff00000001000000000000000000000000ffffffffffffffffffffffff815189099750505050505050505b949350505050565b6000808080866112fb578585935093505050611339565b8461130d578787935093505050611339565b61131c88886001808a8a611342565b929a509098509250905061133288888484611607565b9350935050505b94509492505050565b60008060008088600003611361575084925083915060019050806115fa565b7fffffffff00000001000000000000000000000000ffffffffffffffffffffffff9889039889818988090894507fffffffff00000001000000000000000000000000ffffffffffffffffffffffff8a7fffffffff00000001000000000000000000000000ffffffffffffffffffffffff037fffffffff00000001000000000000000000000000ffffffffffffffffffffffff8a89090895507fffffffff00000001000000000000000000000000ffffffffffffffffffffffff86870993507fffffffff00000001000000000000000000000000ffffffffffffffffffffffff86850992507fffffffff00000001000000000000000000000000ffffffffffffffffffffffff84890991507fffffffff00000001000000000000000000000000ffffffffffffffffffffffff83880990507fffffffff00000001000000000000000000000000ffffffffffffffffffffffff848b0997507fffffffff00000001000000000000000000000000ffffffffffffffffffffffff80897fffffffff00000001000000000000000000000000fffffffffffffffffffffffd097fffffffff00000001000000000000000000000000ffffffffffffffffffffffff857fffffffff00000001000000000000000000000000ffffffffffffffffffffffff037fffffffff00000001000000000000000000000000ffffffffffffffffffffffff898a09080893507fffffffff00000001000000000000000000000000ffffffffffffffffffffffff80848b097fffffffff00000001000000000000000000000000ffffffffffffffffffffffff877fffffffff00000001000000000000000000000000ffffffffffffffffffffffff887fffffffff00000001000000000000000000000000ffffffffffffffffffffffff038d08090892505b9650965096509692505050565b6000806000611615846116bc565b90507fffffffff00000001000000000000000000000000ffffffffffffffffffffffff818709915060007fffffffff00000001000000000000000000000000ffffffffffffffffffffffff82870990507fffffffff00000001000000000000000000000000ffffffffffffffffffffffff81820991507fffffffff00000001000000000000000000000000ffffffffffffffffffffffff8289099350505094509492505050565b600060405160208152602080820152602060408201528260608201527fffffffff00000001000000000000000000000000fffffffffffffffffffffffd60808201527fffffffff00000001000000000000000000000000ffffffffffffffffffffffff60a082015260208160c0836005600019fa61081457600080fd5b60008083601f84011261174b57600080fd5b50813567ffffffffffffffff81111561176357600080fd5b60208301915083602082850101111561177b57600080fd5b9250929050565b806040810183101561079157600080fd5b60008060008060008060008060006101208a8c0312156117b257600080fd5b893567ffffffffffffffff808211156117ca57600080fd5b6117d68d838e01611739565b909b50995060208c013591507fff000000000000000000000000000000000000000000000000000000000000008216821461181057600080fd5b90975060408b0135908082111561182657600080fd5b506118338c828d01611739565b90975095505060608a0135935060808a013592506118548b60a08c01611782565b91506118638b60e08c01611782565b90509295985092959850929598565b7f4e487b7100000000000000000000000000000000000000000000000000000000600052603260045260246000fd5b7f4e487b7100000000000000000000000000000000000000000000000000000000600052604160045260246000fd5b6000825160005b818110156118f157602081860181015185830152016118d7565b506000920191825250919050565b7f4e487b7100000000000000000000000000000000000000000000000000000000600052601160045260246000fd5b80820180821115610791576107916118ff565b8183823760009101908152919050565b60006020828403121561196357600080fd5b5051919050565b6000826119a0577f4e487b7100000000000000000000000000000000000000000000000000000000600052601260045260246000fd5b500490565b8082028115828204841417610791576107916118ff56fe4142434445464748494a4b4c4d4e4f505152535455565758595a6162636465666768696a6b6c6d6e6f707172737475767778797a303132333435363738392d5fa264697066735822122091354706679fa8e7c4c9fcbca93b173f20b08cd1e89df681d02ad32480ff696f64736f6c63430008140033",
  "linkReferences": {},
  "deployedLinkReferences": {}
}